:020000040800F2
:1000000000000320FD270008C9100008CF100008D9
:10001000D5100008DB100008E11000080000000007
:100020000000000000000000000000003165000832
:10003000E710000800000000116800087968000857
:100040004D2800084D2800084D2800084D280008BC
:100050004D2800084D2800084D2800084D280008AC
:100060004D2800084D2800084D2800084D2800089C
:100070004D2800084D2800084D2800084D2800088C
:100080004D2800084D2800084D2800084D2800087C
:100090004D2800084D2800084D2800084D2800086C
:1000A0004D280008F51000084D2800084D280008CC
:1000B0004D2800084D2800084D2800084D2800084C
:1000C0004D2800084D2800084D2800084D2800083C
:1000D0004D2800084D2800084D2800084D2800082C
:1000E0004D2800084D2800084D2800084D2800081C
:1000F0004D2800084D2800084D2800084D2800080C
:100100004D2800084D2800084D2800084D280008FB
:100110004D2800084D2800084D2800084D280008EB
:100120004D2800084D2800084D2800084D280008DB
:100130004D2800084D2800084D2800084D280008CB
:100140004D2800084D2800084D2800084D280008BB
:100150004D2800084D2800084D2800084D280008AB
:100160004D2800084D2800084D2800084D2800089B
:100170004D2800084D2800084D2800080000000008
:100180004D2800084D2800084D2800084D2800087B
:100190004D2800084D2800084D2800084D2800086B
:0C01A00000000000000000004D280008D6
:1001B00010B5054C237833B9044B13B10448AFF3A1
:1001C00000800123237010BDE40100200000000026
:1001D0003C6A000808B5034B1BB103490348AFF361
:1001E000008008BD00000000E80100203C6A000813
:1001F000034613F8012B002AFBD1181A0138704767
:1002000001F0FF01102A2BDB10F0070F08D010F8C7
:10021000013B013A8B422DD010F0070F42B3F6D1CB
:10022000F0B441EA012141EA014122F007047FF0E4
:1002300000070023F0E80256083C85EA010586EA3B
:10024000010685FA47F5A3FA87F586FA47F6A5FA77
:1002500087F68EB9EED1F0BC01F0FF0102F0070283
:1002600032B110F8013B013A83EA010313B1F8D12E
:100270000020704701387047002D06BF354603380F
:10028000073815F0010F07D1013015F4807F02BF48
:10029000013015F4C03F0130F0BC0138704700BF99
:1002A00081F0004102E000BF83F0004330B54FEA27
:1002B00041044FEA430594EA050F08BF90EA020F94
:1002C0001FBF54EA000C55EA020C7FEA645C7FEA27
:1002D000655C00F0E2804FEA5454D4EB5555B8BF4A
:1002E0006D420CDD2C4480EA020281EA030382EABB
:1002F000000083EA010180EA020281EA0303362D4D
:1003000088BF30BD11F0004F4FEA01314FF4801C1F
:100310004CEA113102D0404261EB410113F0004F31
:100320004FEA03334CEA133302D0524263EB4303E8
:1003300094EA050F00F0A780A4F10104D5F1200E86
:100340000DDB02FA0EFC22FA05F2801841F10001E1
:1003500003FA0EF2801843FA05F359410EE0A5F1B5
:1003600020050EF1200E012A03FA0EFC28BF4CF0E6
:10037000020C43FA05F3C01851EBE37101F000459C
:1003800007D54FF0000EDCF1000C7EEB00006EEBA9
:100390000101B1F5801F1BD3B1F5001F0CD3490833
:1003A0005FEA30004FEA3C0C04F101044FEA44528A
:1003B00012F5800F80F09A80BCF1004F08BF5FEA11
:1003C000500C50F1000041EB045141EA050130BDF1
:1003D0005FEA4C0C404141EB0101013C28BFB1F503
:1003E000801FE9D291F0000F04BF01460020B1FA4E
:1003F00081F308BF2033A3F10B03B3F120020CDA21
:100400000C3208DD02F1140CC2F10C0201FA0CF0FE
:1004100021FA02F10CE002F11402D8BFC2F1200C63
:1004200001FA02F120FA0CFCDCBF41EA0C01904019
:10043000E41AA2BF01EB0451294330BD6FEA040462
:100440001F3C1CDA0C340EDC04F11404C4F120024D
:1004500020FA04F001FA02F340EA030021FA04F35F
:1004600045EA030130BDC4F10C04C4F1200220FAB6
:1004700002F001FA04F340EA0300294630BD21FAF4
:1004800004F0294630BD94F0000F83F4801306BFBA
:1004900081F480110134013D4EE77FEA645C18BFAE
:1004A0007FEA655C29D094EA050F08BF90EA020F45
:1004B00005D054EA000C04BF1946104630BD91EA3D
:1004C000030F1EBF0021002030BD5FEA545C05D140
:1004D0004000494128BF41F0004130BD14F580047F
:1004E0003CBF01F5801130BD01F0004545F0FE41F3
:1004F00041F470014FF0000030BD7FEA645C1ABF28
:10050000194610467FEA655C1CBF0B46024650EA5E
:10051000013406BF52EA033591EA030F41F400218A
:1005200030BD00BF90F0000F04BF0021704730B510
:100530004FF4806404F132044FF000054FF00001E5
:1005400050E700BF90F0000F04BF0021704730B5A6
:100550004FF4806404F1320410F0004548BF40427B
:100560004FF000013EE700BF42004FEAE2014FEAD0
:1005700031014FEA02701FBF12F07F4393F07F4FAB
:1005800081F06051704732F07F4208BF704793F0AE
:100590007F4F04BF41F40021704730B54FF46074C1
:1005A00001F0004521F000411CE700BF50EA0102C4
:1005B00008BF704730B54FF000050AE050EA01026D
:1005C00008BF704730B511F0004502D5404261EBDD
:1005D00041014FF4806404F132045FEA915C3FF41E
:1005E000D8AE4FF003025FEADC0C18BF03325FEABB
:1005F000DC0C18BF033202EBDC02C2F1200300FA6C
:1006000003FC20FA02F001FA03FE40EA0E0021FA90
:1006100002F11444BDE600BF70B54FF0FF0C4CF47E
:10062000E06C1CEA11541DBF1CEA135594EA0C0F30
:1006300095EA0C0F00F0DEF82C4481EA030621EA6B
:100640004C5123EA4C5350EA013518BF52EA0335A6
:1006500041F4801143F4801338D0A0FB02CE4FF058
:100660000005E1FB02E506F00042E0FB03E54FF088
:100670000006E1FB03569CF0000F18BF4EF0010E80
:10068000A4F1FF04B6F5007F64F5407404D25FEA7C
:100690004E0E6D4146EB060642EAC62141EA55512F
:1006A0004FEAC52040EA5E504FEACE2EB4F1FD0C71
:1006B00088BFBCF5E06F1ED8BEF1004F08BF5FEAEF
:1006C000500E50F1000041EB045170BD06F00046A1
:1006D00046EA010140EA020081EA0301B4EB5C044E
:1006E000C2BFD4EB0C0541EA045170BD41F4801146
:1006F0004FF0000E013C00F3AB8014F1360FDEBF6B
:10070000002001F0004170BDC4F10004203C35DA46
:100710000C341BDC04F11404C4F1200500FA05F3C9
:1007200020FA04F001FA05F240EA020001F000426A
:1007300021F0004110EBD37021FA04F642EB0601E0
:100740005EEA430E08BF20EAD37070BDC4F10C040A
:10075000C4F1200500FA04F320FA05F001FA04F2CE
:1007600040EA020001F0004110EBD37041F10001BA
:100770005EEA430E08BF20EAD37070BDC4F12005C5
:1007800000FA05F24EEA020E20FA04F301FA05F22D
:1007900043EA020321FA04F001F0004121FA04F2D5
:1007A00020EA020000EBD3705EEA430E08BF20EAA5
:1007B000D37070BD94F0000F0FD101F000464000DF
:1007C00041EB010111F4801F08BF013CF7D041EA61
:1007D000060195F0000F18BF704703F00046520065
:1007E00043EB030313F4801F08BF013DF7D043EA36
:1007F0000603704794EA0C0F0CEA135518BF95EAEC
:100800000C0F0CD050EA410618BF52EA4306D1D172
:1008100081EA030101F000414FF0000070BD50EA91
:10082000410606BF1046194652EA430619D094EA1B
:100830000C0F02D150EA013613D195EA0C0F05D105
:1008400052EA03361CBF104619460AD181EA030159
:1008500001F0004141F0FE4141F470014FF0000011
:1008600070BD41F0FE4141F4780170BD70B54FF0AC
:10087000FF0C4CF4E06C1CEA11541DBF1CEA13552C
:1008800094EA0C0F95EA0C0F00F0A7F8A4EB05040E
:1008900081EA030E52EA03354FEA013100F0888005
:1008A0004FEA03334FF0805545EA131343EA1263CE
:1008B0004FEA022245EA111545EA10654FEA002683
:1008C0000EF000419D4208BF964244F1FD0404F53C
:1008D000407402D25B084FEA3202B61A65EB030598
:1008E0005B084FEA32024FF480104FF4002CB6EB55
:1008F000020E75EB030E22BFB61A754640EA0C00D5
:100900005B084FEA3202B6EB020E75EB030E22BF14
:10091000B61A754640EA5C005B084FEA3202B6EB55
:10092000020E75EB030E22BFB61A754640EA9C0014
:100930005B084FEA3202B6EB020E75EB030E22BFE4
:10094000B61A754640EADC0055EA060E18D04FEAA2
:10095000051545EA16754FEA06164FEAC30343EA42
:1009600052734FEAC2025FEA1C1CC0D111F4801F0F
:100970000BD141EA00014FF000004FF0004CB6E708
:1009800011F4801F04BF01430020B4F1FD0C88BFA7
:10099000BCF5E06F3FF6AFAEB5EB030C04BFB6EBB2
:1009A000020C5FEA500C50F1000041EB045170BDA5
:1009B0000EF0004E4EEA113114EB5C04C2BFD4EBD2
:1009C0000C0541EA045170BD41F480114FF0000E56
:1009D000013C90E645EA060E8DE60CEA135594EAD2
:1009E0000C0F08BF95EA0C0F3FF43BAF94EA0C0FD5
:1009F0000AD150EA01347FF434AF95EA0C0F7FF44A
:100A000025AF104619462CE795EA0C0F06D152EA9D
:100A100003353FF4FDAE1046194622E750EA410681
:100A200018BF52EA43067FF4C5AE50EA41047FF492
:100A30000DAF52EA43057FF4EBAE12E74FF0FF3CF7
:100A400006E000BF4FF0010C02E000BF4FF0010CC8
:100A50004DF804CD4FEA410C7FEA6C5C4FEA430C41
:100A600018BF7FEA6C5C1BD001B050EA410C0CBF90
:100A700052EA430C91EA030F02BF90EA020F0020F2
:100A8000704710F1000F91EA030F58BF994208BF59
:100A900090422CBFD8176FEAE37040F00100704716
:100AA0004FEA410C7FEA6C5C02D150EA013C07D16D
:100AB0004FEA430C7FEA6C5CD6D152EA033CD3D0B8
:100AC0005DF8040B704700BF8446104662468C46B2
:100AD0001946634600E000BF01B5FFF7B7FF0028E5
:100AE00048BF10F1000F01BD4DF808EDFFF7F4FF0E
:100AF0000CBF012000205DF808FB00BF4DF808ED99
:100B0000FFF7EAFF34BF012000205DF808FB00BFBB
:100B10004DF808EDFFF7E0FF94BF012000205DF8DD
:100B200008FB00BF4DF808EDFFF7CEFF94BF012092
:100B300000205DF808FB00BF4DF808EDFFF7C4FF8B
:100B400034BF012000205DF808FB00BF4FEA410CD4
:100B50007FEA6C5C02D150EA013C0AD14FEA430CB7
:100B60007FEA6C5C02D152EA033C02D14FF00000F4
:100B700070474FF0010070474FEA410212F5001232
:100B800015D211D56FF47873B3EB625212D94FEAD4
:100B9000C12343F0004343EA505311F0004F23FABE
:100BA00002F018BF404270474FF00000704750EA13
:100BB000013005D111F0004008BF6FF000407047D0
:100BC0004FF00000704700BF53B94AB9002908BF71
:100BD00000281CBF4FF0FF314FF0FF3000F074B918
:100BE000ADF1080C6DE904CE00F006F8DDF804E084
:100BF000DDE9022304B070472DE9F047089D044663
:100C00008E46002B4DD18A42944669D9B2FA82F2BF
:100C100052B101FA02F3C2F1200120FA01F10CFAFB
:100C200002FC41EA030E94404FEA1C48210CBEFB33
:100C3000F8F61FFA8CF708FB16E341EA034306FBBC
:100C400007F199420AD91CEB030306F1FF3080F04B
:100C50001F81994240F21C81023E63445B1AA4B298
:100C6000B3FBF8F008FB103344EA034400FB07F73A
:100C7000A7420AD91CEB040400F1FF3380F00A817B
:100C8000A74240F207816444023840EA0640E41B70
:100C900000261DB1D4400023C5E900433146BDE81C
:100CA000F0878B4209D9002D00F0EF800026C5E9BE
:100CB000000130463146BDE8F087B3FA83F6002ED6
:100CC0004AD18B4202D3824200F2F980841A61EB4E
:100CD000030301209E46002DE0D0C5E9004EDDE76C
:100CE00002B9FFDEB2FA82F2002A40F09280A1EB54
:100CF0000C014FEA1C471FFA8CFE0126200CB1FBA9
:100D0000F7F307FB131140EA01410EFB03F08842A1
:100D100008D91CEB010103F1FF3802D2884200F22E
:100D2000CB804346091AA4B2B1FBF7F007FB1011C0
:100D300044EA01440EFB00FEA64508D91CEB04045E
:100D400000F1FF3102D2A64500F2BB800846A4EBB9
:100D50000E0440EA03409CE7C6F12007B34022FAA4
:100D600007FC4CEA030C20FA07F401FA06F31C43D3
:100D7000F9404FEA1C4900FA06F3B1FBF9F8200CE0
:100D80001FFA8CFE09FB181140EA014108FB0EF026
:100D9000884202FA06F20BD91CEB010108F1FF3A76
:100DA00080F08880884240F28580A8F10208614482
:100DB000091AA4B2B1FBF9F009FB101144EA014190
:100DC00000FB0EFE8E4508D91CEB010100F1FF343B
:100DD0006CD28E456AD90238614440EA0840A0FBD3
:100DE0000294A1EB0E01A142C846A64656D353D0A9
:100DF0005DB1B3EB080261EB0E0101FA07F722FACD
:100E000006F3F1401F43C5E9007100263146BDE8F5
:100E1000F087C2F12003D8400CFA02FC21FA03F358
:100E2000914001434FEA1C471FFA8CFEB3FBF7F0D9
:100E300007FB10360B0C43EA064300FB0EF69E42FE
:100E400004FA02F408D91CEB030300F1FF382FD297
:100E50009E422DD9023863449B1B89B2B3FBF7F63F
:100E600007FB163341EA034106FB0EF38B4208D918
:100E70001CEB010106F1FF3816D28B4214D9023E59
:100E80006144C91A46EA004638E72E46284605E777
:100E90000646E3E61846F8E64B45A9D2B9EB020848
:100EA00064EB0C0E0138A3E74646EAE7204694E7D8
:100EB0004046D1E7D0467BE7023B614432E730460B
:100EC00009E76444023842E7704700BF80B500AFCD
:100ED00001F0ECFB00F006F800F08CF801F03AFCB1
:100EE000FEE7000080B594B000AF07F12003302288
:100EF0000021184601F0D0FC07F10C0300221A6013
:100F00005A609A60DA601A610023BB602B4B1B6C3D
:100F10002A4A43F080531364284B1B6C03F0805320
:100F2000BB60BB6800237B60254B1B68244A43F4ED
:100F300040431360224B1B6803F440437B607B6893
:100F400002233B620123FB6210233B630223BB634A
:100F50000023FB6308233B64B4237B640223BB644C
:100F60000423FB6407F12003184600F017FC034636
:100F7000002B01D000F038F801F066FA0346002B90
:100F800001D000F031F80F23FB6002233B61002306
:100F90007B614FF4A053BB614FF48053FB6107F1B9
:100FA0000C030521184600F071FE0346002B01D00A
:100FB00000F01AF800BF5037BD4680BD003802402F
:100FC0000070004080B582B000AF78607B681B681D
:100FD000044A934201D101F08BFB00BF0837BD46A4
:100FE00080BD00BF0000014080B400AF72B600BFFA
:100FF000FEE7000080B588B000AF07F10C030022C7
:101000001A605A609A60DA601A610023BB602B4B49
:101010001B6B2A4A43F001031363284B1B6B03F03D
:101020000103BB60BB6800237B60244B1B6B234A1E
:1010300043F010031363214B1B6B03F010037B6021
:101040007B6800233B601D4B1B6B1C4A43F0200355
:1010500013631A4B1B6B03F020033B603B680022B9
:101060004FF40061164801F0BBF900224FF48041B3
:10107000144801F0B5F94FF40063FB6001233B61B4
:1010800000237B610023BB6107F10C0319460C4868
:1010900000F0FAFF4FF48043FB6001233B61002323
:1010A0007B610023BB6107F10C031946054800F082
:1010B000EBFF00BF2037BD4680BD00BF00380240B7
:1010C000001002400014024080B400AFFEE780B47C
:1010D00000AFFEE780B400AFFEE780B400AFFEE7EC
:1010E00080B400AFFEE780B400AF00BFBD465DF83E
:1010F000047B704780B500AF024800F06BF900BF79
:1011000080BD00BF0002002080B483B000AF002388
:101110007B60104B5B6C0F4A43F4804353640D4B70
:101120005B6C03F480437B607B6800233B60094B6E
:101130001B6C084A43F080531364064B1B6C03F08E
:1011400080533B603B6800BF0C37BD465DF8047BB5
:10115000704700BF0038024080B58CB000AF7860A7
:101160000023BB6200237B620023BB602F4B5B6CC0
:101170002E4A43F0010353642C4B5B6C03F00103D4
:10118000BB60BB6807F10C0207F11003114618465B
:1011900000F048FF00F032FF03465B00BB62BB6A11
:1011A000234AA2FB03239B0C013B7B62214B224A77
:1011B0001A60204B40F2E732DA601E4A7B6A5360C5
:1011C0001C4B00221A611B4B00229A60194B002213
:1011D0009A61184800F034F8034687F82F3097F8E2
:1011E0002F30002B1BD1134800F084F8034687F8FA
:1011F0002F3097F82F30002B11D1192001F048FA29
:101200007B680F2B08D800227968192001F024FA96
:101210000A4A7B68136002E0012387F82F3097F8B1
:101220002F3018463037BD4680BD00BF0038024021
:1012300083DE1B430002002000000140000000206C
:1012400080B582B000AF78607B68002B01D10123AC
:1012500041E07B6893F83D30DBB2002B06D17B6820
:10126000002283F83C20786800F039F87B6802227D
:1012700083F83D207B681A687B6804331946104662
:1012800000F0D8F97B68012283F846207B680122B0
:1012900083F83E207B68012283F83F207B6801228F
:1012A00083F840207B68012283F841207B6801227B
:1012B00083F842207B68012283F843207B68012267
:1012C00083F844207B68012283F845207B68012253
:1012D00083F83D20002318460837BD4680BD80B402
:1012E00083B000AF786000BF0C37BD465DF8047B6B
:1012F0007047000080B485B000AF78607B6893F8D9
:101300003D30DBB2012B01D001234EE07B6802228D
:1013100083F83D207B681B68DA687B681B6842F0B5
:101320000102DA607B681B68234A934222D07B6803
:101330001B68B3F1804F1DD07B681B681F4A934226
:1013400018D07B681B681E4A934213D07B681B68C9
:101350001C4A93420ED07B681B681B4A934209D0FB
:101360007B681B68194A934204D07B681B68184A43
:10137000934211D17B681B689B6803F00703FB60F5
:10138000FB68062B10D07B681B681A687B681B689B
:1013900042F001021A6007E07B681B681A687B68EC
:1013A0001B6842F001021A60002318461437BD463C
:1013B0005DF8047B704700BF00000140000400405E
:1013C00000080040000C00400004014000400140C3
:1013D0000018004080B582B000AF78607B681B6861
:1013E0001B6903F00203022B22D17B681B68DB68B8
:1013F00003F00203022B1BD17B681B686FF0020213
:101400001A617B6801221A777B681B689B6903F06D
:101410000303002B03D0786800F0EEF805E078684D
:1014200000F0E0F8786800F0F1F87B6800221A77A5
:101430007B681B681B6903F00403042B22D17B68C3
:101440001B68DB6803F00403042B1BD17B681B685B
:101450006FF004021A617B6802221A777B681B68AE
:101460009B6903F44073002B03D0786800F0C4F844
:1014700005E0786800F0B6F8786800F0C7F87B6897
:1014800000221A777B681B681B6903F00803082B8E
:1014900022D17B681B68DB6803F00803082B1BD193
:1014A0007B681B686FF008021A617B6804221A7758
:1014B0007B681B68DB6903F00303002B03D07868AB
:1014C00000F09AF805E0786800F08CF8786800F091
:1014D0009DF87B6800221A777B681B681B6903F004
:1014E0001003102B22D17B681B68DB6803F010030C
:1014F000102B1BD17B681B686FF010021A617B6890
:1015000008221A777B681B68DB6903F44073002BA1
:1015100003D0786800F070F805E0786800F062F8B1
:10152000786800F073F87B6800221A777B681B6884
:101530001B6903F00103012B0ED17B681B68DB687C
:1015400003F00103012B07D17B681B686FF00102D8
:101550001A617868FFF736FD7B681B681B6903F02A
:101560008003802B0ED17B681B68DB6803F080034F
:10157000802B07D17B681B686FF080021A61786846
:1015800000F002F97B681B681B6903F04003402BE5
:101590000ED17B681B68DB6803F04003402B07D14A
:1015A0007B681B686FF040021A61786800F038F8B9
:1015B0007B681B681B6903F02003202B0ED17B681E
:1015C0001B68DB6803F02003202B07D17B681B68B6
:1015D0006FF020021A61786800F0CCF800BF08377D
:1015E000BD4680BD80B483B000AF786000BF0C37CB
:1015F000BD465DF8047B704780B483B000AF78606F
:1016000000BF0C37BD465DF8047B704780B483B0E3
:1016100000AF786000BF0C37BD465DF8047B7047B3
:1016200080B483B000AF786000BF0C37BD465DF872
:10163000047B704780B485B000AF786039607B6808
:101640001B68FB607B68404A934213D07B68B3F110
:10165000804F0FD07B683D4A93420BD07B683C4A59
:10166000934207D07B683B4A934203D07B683A4A57
:10167000934208D1FB6823F07003FB603B685B6812
:10168000FA681343FB607B682F4A93422BD07B6838
:10169000B3F1804F27D07B682C4A934223D07B68DC
:1016A0002B4A93421FD07B682A4A93421BD07B6807
:1016B000294A934217D07B68284A934213D07B680B
:1016C000274A93420FD07B68264A93420BD07B680F
:1016D000254A934207D07B68244A934203D07B6813
:1016E000234A934208D1FB6823F44073FB603B68B4
:1016F000DB68FA681343FB60FB6823F080023B68F9
:101700005B691343FB607B68FA681A603B689A6800
:101710007B68DA623B681A687B689A627B680A4A6F
:10172000934203D07B680C4A934203D13B681A6909
:101730007B681A637B6801225A6100BF1437BD467B
:101740005DF8047B704700BF0000014000040040CA
:1017500000080040000C004000040140004001402F
:10176000004401400048014000180040001C0040B7
:101770000020004080B483B000AF786000BF0C3719
:10178000BD465DF8047B704780B483B000AF7860DD
:1017900000BF0C37BD465DF8047B704780B586B04E
:1017A00000AF78607B68002B01D1012367E27B6882
:1017B0001B6803F00103002B75D0884B9B6803F076
:1017C0000C03042B0CD0854B9B6803F00C03082BF7
:1017D00012D1824B5B6803F48003B3F5800F0BD109
:1017E0007E4B1B6803F40033002B5BD07B685B6887
:1017F000002B57D1012342E27B685B68B3F5803F41
:1018000006D1764B1B68754A43F4803313601DE0A4
:101810007B685B68B3F5A02F0CD1704B1B686F4AD7
:1018200043F4802313606D4B1B686C4A43F4803390
:1018300013600BE0694B1B68684A23F48033136024
:10184000664B1B68654A23F4802313607B685B68E2
:10185000002B13D000F060FF386108E000F05CFF5F
:1018600002463B69D31A642B01D9032307E25B4B81
:101870001B6803F40033002BF0D014E000F04CFFA1
:10188000386108E000F048FF02463B69D31A642B38
:1018900001D90323F3E1514B1B6803F40033002B00
:1018A000F0D100E000BF7B681B6803F00203002B4F
:1018B00063D04A4B9B6803F00C03002B0BD0474BC3
:1018C0009B6803F00C03082B1CD1444B5B6803F4AA
:1018D0008003002B16D1414B1B6803F00203002B41
:1018E00005D07B68DB68012B01D00123C7E13B4BAE
:1018F0001B6823F0F8027B681B69DB003749134340
:101900000B603AE07B68DB68002B20D0344B01226F
:101910001A6000F001FF386108E000F0FDFE0246A9
:101920003B69D31A022B01D90323A8E12B4B1B6877
:1019300003F00203002BF0D0284B1B6823F0F802C1
:101940007B681B69DB00254913430B6015E0244BC2
:1019500000221A6000F0E0FE386108E000F0DCFED2
:1019600002463B69D31A022B01D9032387E11B4BA3
:101970001B6803F00203002BF0D17B681B6803F0A7
:101980000803002B36D07B685B69002B16D0154B03
:1019900001221A6000F0C0FE386108E000F0BCFED1
:1019A00002463B69D31A022B01D9032367E10B4B93
:1019B0005B6F03F00203002BF0D01BE0094B002209
:1019C0001A6000F0A9FE38610EE000F0A5FE0246A4
:1019D0003B69D31A022B07D9032350E10038024098
:1019E00000004742800E4742884B5B6F03F00203C2
:1019F000002BEAD17B681B6803F00403002B00F086
:101A000097800023FB75814B1B6C03F08053002BE8
:101A10000FD10023BB607D4B1B6C7C4A43F080538D
:101A200013647A4B1B6C03F08053BB60BB680123CB
:101A3000FB75774B1B6803F48073002B18D1744B34
:101A40001B68734A43F48073136000F065FE3861CD
:101A500008E000F061FE02463B69D31A022B01D96F
:101A600003230CE16A4B1B6803F48073002BF0D056
:101A70007B689B68012B06D1644B1B6F634A43F064
:101A8000010313671CE07B689B68052B0CD15F4B3F
:101A90001B6F5E4A43F0040313675C4B1B6F5B4A8A
:101AA00043F0010313670BE0584B1B6F574A23F0B9
:101AB00001031367554B1B6F544A23F0040313674C
:101AC0007B689B68002B15D000F026FE38610AE089
:101AD00000F022FE02463B69D31A41F2883293425B
:101AE00001D90323CBE0494B1B6F03F00203002B0A
:101AF000EED014E000F010FE38610AE000F00CFEB9
:101B000002463B69D31A41F28832934201D903233A
:101B1000B5E03E4B1B6F03F00203002BEED1FB7DC3
:101B2000012B05D1394B1B6C384A23F080531364C9
:101B30007B689B69002B00F0A180344B9B6803F00D
:101B40000C03082B5CD07B689B69022B41D1314B85
:101B500000221A6000F0E0FD386108E000F0DCFDD2
:101B600002463B69D31A022B01D9032387E0274B96
:101B70001B6803F00073002BF0D17B68DA697B6887
:101B80001B6A1A437B685B6A9B011A437B689B6AEA
:101B90005B08013B1B041A437B68DB6A1B061B497D
:101BA00013434B601B4B01221A6000F0B5FD3861F6
:101BB00008E000F0B1FD02463B69D31A022B01D9BF
:101BC00003235CE0114B1B6803F00073002BF0D083
:101BD00054E0104B00221A6000F09EFD386108E0CE
:101BE00000F09AFD02463B69D31A022B01D9032368
:101BF00045E0064B1B6803F00073002BF0D13DE07D
:101C00007B689B69012B07D1012338E00038024033
:101C100000700040600047421B4B5B68FB607B68C4
:101C20009B69012B28D0FB6803F480027B68DB6989
:101C30009A4221D1FB6803F03F027B681B6A9A42FB
:101C40001AD1FA6847F6C07313407A68526A920153
:101C5000934211D1FB6803F440327B689B6A5B08B6
:101C6000013B1B049A4207D1FB6803F070627B685A
:101C7000DB6A1B069A4201D0012300E000231846CC
:101C80001837BD4680BD00BF0038024080B584B023
:101C900000AF786039607B68002B01D10123CCE074
:101CA000684B1B6803F00F033A689A420CD9654BE6
:101CB0003A68D2B21A70634B1B6803F00F033A689C
:101CC0009A4201D00123B8E07B681B6803F002034D
:101CD000002B20D07B681B6803F00403002B05D089
:101CE000594B9B68584A43F4E05393607B681B68E8
:101CF00003F00803002B05D0534B9B68524A43F472
:101D000060439360504B9B6823F0F0027B689B68B4
:101D10004D4913438B607B681B6803F00103002B64
:101D200044D07B685B68012B07D1474B1B6803F4E9
:101D30000033002B19D101237FE07B685B68022B05
:101D400003D07B685B68032B07D13F4B1B6803F014
:101D50000073002B09D101236FE03B4B1B6803F09C
:101D60000203002B01D1012367E0374B9B6823F06E
:101D700003027B685B68344913438B6000F0CCFC42
:101D8000F8600AE000F0C8FC0246FB68D31A41F292
:101D90008832934201D903234FE02B4B9B6803F019
:101DA0000C027B685B689B009A42EBD1254B1B6859
:101DB00003F00F033A689A420CD2224B3A68D2B22F
:101DC0001A70204B1B6803F00F033A689A4201D047
:101DD000012332E07B681B6803F00403002B08D06A
:101DE000194B9B6823F4E0527B68DB681649134368
:101DF0008B607B681B6803F00803002B09D0124B33
:101E00009B6823F460427B681B69DB000E49134327
:101E10008B6000F021F802460B4B9B681B0903F016
:101E20000F030A49CB5C22FA03F3094A1360094BFA
:101E30001B681846FFF790F9002318461037BD4677
:101E400080BD00BF003C024000380240746A0008B8
:101E500008000020000000202DE9B04F90B000AF36
:101E600000237B630023FB6300233B630023BB63EE
:101E7000594B9B6803F00C03082B0DD0082B00F284
:101E8000A180002B02D0042B03D09BE0534BBB63FB
:101E90009BE0534BBB6398E04F4B5B6803F03F0301
:101EA0007B634D4B5B6803F48003002B28D04A4BC7
:101EB0005B689B0900223B627A623B6AC3F30800BD
:101EC0000021474B03FB01F2002300FB03F3134403
:101ED000434AA0FB0212FA620A46BA62FA6A134443
:101EE000FB627B6B0022BB61FA61D7E90623D7E96D
:101EF0000A01FEF769FE02460B461346FB6353E0F8
:101F0000354B5B689B0900223B617A613B69C3F3F7
:101F1000080A4FF0000B52465B464FF000004FF0AE
:101F20000001590141EAD261500102460B46B2EB71
:101F30000A0863EB0B094FF000024FF000034FEA71
:101F4000891343EA98634FEA8812B2EB080463EB03
:101F500009054FF000024FF00003EB0043EA547311
:101F6000E20014461D4614EB0A033B6045EB0B03ED
:101F70007B604FF000024FF00003D7E9004529468F
:101F80008B02214643EA915321468A0210461946A4
:101F90007B6B0022BB60FA60D7E90223FEF714FED8
:101FA00002460B461346FB630B4B5B681B0C03F0AE
:101FB000030301335B003B63FA6B3B6BB2FBF3F350
:101FC000BB6302E0054BBB6300BFBB6B18464037E9
:101FD000BD46BDE8B08F00BF003802400024F400C9
:101FE00040787D0180B400AF034B1B681846BD46A6
:101FF0005DF8047B704700BF0800002080B500AF8B
:10200000FFF7F0FF0246054B9B685B0B03F00703ED
:102010000349CB5C22FA03F3184680BD0038024026
:10202000846A000880B483B000AF786039607B6850
:102030000F221A60124B9B6803F003027B685A6000
:102040000F4B9B6803F0F0027B689A600C4B9B6817
:1020500003F4E0527B68DA60094B9B68DB0803F409
:10206000E0527B681A61074B1B6803F00F023B6864
:102070001A6000BF0C37BD465DF8047B704700BF97
:1020800000380240003C024080B489B000AF786064
:10209000396000237B6100233B610023BB61002387
:1020A000FB6177E10122FB6902FA03F37B613B6884
:1020B0001B687A6913403B613A697B699A4240F038
:1020C00066813B685B6803F00303012B05D03B6826
:1020D0005B6803F00303022B30D17B689B68BB6114
:1020E000FB695B00032202FA03F3DB43BA69134086
:1020F000BB613B68DA68FB695B0002FA03F3BA690B
:102100001343BB617B68BA699A607B685B68BB619B
:102110000122FB6902FA03F3DB43BA691340BB6196
:102120003B685B681B0903F00102FB6902FA03F3D9
:10213000BA691343BB617B68BA695A603B685B68E4
:1021400003F00303032B17D07B68DB68BB61FB69DB
:102150005B00032202FA03F3DB43BA691340BB615D
:102160003B689A68FB695B0002FA03F3BA691343A0
:10217000BB617B68BA69DA603B685B6803F00303A4
:10218000022B23D1FB69DA087B68083253F822302E
:10219000BB61FB6903F007039B000F2202FA03F304
:1021A000DB43BA691340BB613B681A69FB6903F002
:1021B00007039B0002FA03F3BA691343BB61FB698F
:1021C000DA087B680832B96943F822107B681B681B
:1021D000BB61FB695B00032202FA03F3DB43BA69CC
:1021E0001340BB613B685B6803F00302FB695B0063
:1021F00002FA03F3BA691343BB617B68BA691A60D8
:102200003B685B6803F44033002B00F0C080002380
:10221000FB60664B5B6C654A43F480435364634BDD
:102220005B6C03F48043FB60FB68614AFB699B08BD
:10223000023352F82330BB61FB6903F003039B00B8
:102240000F2202FA03F3DB43BA691340BB617B68D8
:10225000584A934237D07B68574A934231D07B68C3
:10226000564A93422BD07B68554A934225D07B68CF
:10227000544A93421FD07B68534A934219D07B68DB
:10228000524A934213D07B68514A93420DD07B68E7
:10229000504A934207D07B684F4A934201D10923A9
:1022A00012E00A2310E008230EE007230CE00623C7
:1022B0000AE0052308E0042306E0032304E00223E8
:1022C00002E0012300E00023FA6902F00302920019
:1022D0009340BA691343BB613549FB699B080233DC
:1022E000BA6941F823203D4B9B68BB613B69DB43E6
:1022F000BA691340BB613B685B6803F48013002B31
:1023000003D0BA693B691343BB61344ABB6993602C
:10231000324BDB68BB613B69DB43BA691340BB618D
:102320003B685B6803F40013002B03D0BA693B6978
:102330001343BB61294ABB69D360284B5B68BB610F
:102340003B69DB43BA691340BB613B685B6803F4DC
:102350000033002B03D0BA693B691343BB611F4AAA
:10236000BB6953601D4B1B68BB613B69DB43BA69AA
:102370001340BB613B685B6803F48033002B03D0E0
:10238000BA693B691343BB61144ABB691360FB69BB
:102390000133FB61FB690F2B7FF684AE00BF00BFEA
:1023A0002437BD465DF8047B704700BF003802400B
:1023B00000380140000002400004024000080240D2
:1023C000000C0240001002400014024000180240BD
:1023D000001C02400020024000240240003C01405A
:1023E00080B483B000AF78600B467B8013467B706F
:1023F0007B78002B03D07A887B689A6103E07B8826
:102400001A047B689A6100BF0C37BD465DF8047BF7
:10241000704780B485B000AF78600B467B807B68E6
:102420005B69FB607A88FB6813401A04FB68D94338
:102430007B880B401A437B689A6100BF1437BD4606
:102440005DF8047B7047000080B582B000AF0023C8
:102450007B6000233B60204B1B6C1F4A43F0805382
:1024600013641D4B1B6C03F080533B603B681B4B9C
:1024700001221A6000F050F9786009E000F04CF990
:1024800002467B68D31AB3F57A7F01D903231FE094
:10249000134B5B6803F48033B3F5803FEED1114BEF
:1024A00001221A6000F038F9786009E000F034F990
:1024B00002467B68D31AB3F57A7F01D9032307E07C
:1024C000074B5B6803F40033B3F5003FEED1002304
:1024D00018460837BD4680BD0038024040000E4215
:1024E0000070004044000E4280B485B000AF7860B8
:1024F0007B6803F00703FB600C4BDB68BB60BA68CA
:102500004FF6FF031340BB60FB681A02BB6813431E
:1025100043F0BF6343F40033BB60044ABB68D3603D
:1025200000BF1437BD465DF8047B704700ED00E046
:1025300080B400AF044BDB681B0A03F007031846A6
:10254000BD465DF8047B704700ED00E080B483B0C9
:1025500000AF0346FB7197F90730002B0BDBFB79CB
:1025600003F01F02074997F907305B09012000FAC1
:1025700002F241F8232000BF0C37BD465DF8047B12
:10258000704700BF00E100E080B483B000AF0346B5
:102590003960FB7197F90730002B0ADB3B68DAB230
:1025A0000C4997F907301201D2B20B4483F800238B
:1025B0000AE03B68DAB20849FB7903F00F03043BF9
:1025C0001201D2B20B441A7600BF0C37BD465DF83B
:1025D000047B704700E100E000ED00E080B489B0CA
:1025E00000AFF860B9607A60FB6803F00703FB6135
:1025F000FB69C3F10703042B28BF0423BB61FB69FC
:102600000433062B02D9FB69033B00E000237B6106
:102610004FF0FF32BB6902FA03F3DA43BB681A409A
:102620007B699A404FF0FF317B6901FA03F3D9438C
:102630007B680B40134318462437BD465DF8047B86
:10264000704780B582B000AF78607868FFF74CFFC4
:1026500000BF0837BD4680BD80B586B000AF0346D9
:10266000B9607A60FB7300237B61FFF761FF7861DB
:102670007A68B9687869FFF7B1FF024697F90F30B9
:1026800011461846FFF780FF00BF1837BD4680BDD2
:1026900080B582B000AF0346FB7197F9073018464A
:1026A000FFF754FF00BF0837BD4680BD80B500AFBF
:1026B0000E4B1B680D4A43F4007313600B4B1B68F1
:1026C0000A4A43F480631360084B1B68074A43F4CB
:1026D000807313600320FFF7B4FF0F20FEF73CFD6B
:1026E000FEF712FD0023184680BD00BF003C0240EB
:1026F00080B400AF064B1B781A46064B1B68134488
:10270000044A136000BFBD465DF8047B704700BFFC
:10271000040000204802002080B400AF034B1B6877
:102720001846BD465DF8047B704700BF4802002094
:1027300080B400AF064BD3F88830054A43F47003E9
:10274000C2F8883000BFBD465DF8047B704700BF0B
:1027500000ED00E080B582B002AF0C4B0193012385
:102760000093002380220A490A4802F041FE0A4BE6
:10277000019302230093002380220849084802F0B5
:1027800037FE02F0FDFF00BFBD4680BD4C020020B9
:10279000586A0008A527000850020020646A000853
:1027A000D127000880B582B000AF786001224FF4D5
:1027B00000610648FFF714FE4FF400610348FFF77D
:1027C00028FEC82002F05EFFF6E700BF00100240BE
:1027D00080B582B000AF786001224FF48041064896
:1027E000FFF7FEFD4FF480410348FFF712FE4FF460
:1027F0007A7002F047FFF5E700140240DFF834D0AA
:102800000D480E490E4A002302E0D458C450043348
:10281000C4188C42F9D30B4A0B4C002301E013601F
:102820000432A242FBD3FFF783FF00F011F8FEF75A
:102830004DFB70470000032000000020E401002051
:10284000BC6E0008E4010020B83F0020FEE7000055
:1028500070B50D4D0D4C641BA4100026A64209D185
:102860000B4D0C4C04F0EAF8641BA4100026A642A1
:1028700005D170BD55F8043B98470136EEE755F891
:10288000043B98470136F2E7B46E0008B46E0008C6
:10289000B46E0008B86E000802440346934200D1AB
:1028A000704703F8011BF9E72DE9FF4755EC104B82
:1028B000002D0E4619462B46BBBF05F100431D46B1
:1028C00000232D230B700D9BDDF830A0914623F0E3
:1028D0002008BCBF22461446B8F1460F05D0B8F117
:1028E000450F00D10136022100E0032103AB019323
:1028F00002AB009345EC104B5346324600F0CCFC43
:10290000B8F1470F074602D119F0010F22D0B8F1F4
:10291000460F07EB060910D13B78302B0AD1002275
:10292000002320462946FEF7DFF818B9C6F1010654
:10293000CAF80060DAF800309944002200232046EB
:102940002946FEF7D1F808B1CDF80C903022039B50
:102950004B4507D3039B0E9ADB1B3846136004B02C
:10296000BDE8F087591C03911A70F0E7F7B50346EC
:102970000029B8BF494203F8022BB4BF2D222B22F5
:10298000092942702ADD0DF10704A4460A27A6464C
:102990000A4691FBF7F607FB16153035632A04F15A
:1029A000FF340EF8015C3146F1DC3031AEF1020546
:1029B00004F8011C441C294661450AD30DF10902A3
:1029C000A2EB0E02654588BF00221344181A03B01B
:1029D000F0BD11F8012B04F8012FEDE73023303161
:1029E0008370C170031DF1E72DE9F04F2DED028BCF
:1029F0008DB00C46DDF8608016461F46054601F096
:102A000039FAD0F800A05046FDF7F2FB00230A93F4
:102A100023680593D8F8003094F818B0073323F0F2
:102A2000070303F10802C8F80020D3E90023C4E932
:102A30001223D4E9128929F000430793CDF81880B6
:102A400008EE100A9F4BDDE906014FF0FF32FEF75A
:102A50007DF888BBDDE906019A4B4FF0FF32FEF7A7
:102A600057F848BB0022002340464946FEF746F887
:102A700010B12D2384F84330934B9448BBF1470F9A
:102A800094BF9846804603232361059B23F00402EC
:102A900022604FF00009009733460BAA21462846D2
:102AA00000F0D8F9013040F090804FF0FF300DB0C9
:102AB000BDEC028BBDE8F08F42464B46404649468E
:102AC000FEF744F840B14B46002BBCBF2D2384F8E1
:102AD00043307F487F4BD1E763680BF0DF020692FB
:102AE0005A1C3FD106236360059B616843F48062F2
:102AF000002303930AABCDE901B309AB49EC108B7A
:102B0000009322600DF123032846FFF7CDFE069BBC
:102B10000999472B804608D1C81C02DB636899429B
:102B200041DDABF1020B5FFA8BFBBBF1650F20D8E7
:102B300001395A4604F150000991FFF717FF0A9A2C
:102B40001318012A8146236102DC2268D20701D5CD
:102B5000013323619DF82330002B9CD02D2384F872
:102B6000433098E7069A472ABED1002BBCD10123F7
:102B7000B9E7BBF1660F18D1002963680BDD21614D
:102B800013B92268D00702D501330B442361A16534
:102B90004FF00009DEE713B92268D20701D50233EE
:102BA000F4E70123F2E74FF0670B0A9B994205DB3C
:102BB00023682161D807EAD54B1CE7E70029D4BF79
:102BC000C1F1020201221344E0E723685A0507D449
:102BD0002369424631462846B84701302CD164E784
:102BE000BBF1650F40F2E080D4E91201002200231E
:102BF000FDF77AFF002834D0374A012331462846B2
:102C0000B84701303FF451AFDDE909239A4202DBB6
:102C10002368D80710D518EE103A52463146284698
:102C2000B84701303FF441AF4FF0000804F11A09F2
:102C30000A9B013B434509DC23689B0700F10581A2
:102C4000E0680B9B9842B8BF184630E701234A461C
:102C500031462846B84701303FF427AF08F1010854
:102C6000E6E7099B002B39DC1B4A01233146284645
:102C7000B84701303FF419AFDDE90923134302D10E
:102C80002368D907D8D518EE103A5246314628465F
:102C9000B84701303FF409AF4FF0000904F11A0AB8
:102CA000099B5B424B4501DC0A9B92E7012352469C
:102CB00031462846B84701303FF4F7AE09F1010923
:102CC000EEE700BFFFFFEF7F906A0008946A0008FC
:102CD0009C6A0008986A0008A06A00080A9AA36D16
:102CE0009A42A8BF1A46002A914637DC4FF0000BE3
:102CF00029EAE97904F11A02A36D0593A3EB09030C
:102D00005B4533DCDDE909239A423BDB2368DA07C4
:102D100038D40A9B059A09999A1AA3EB010991459F
:102D2000A8BF9146B9F1000F35DC4FF0000829EA41
:102D3000E97904F11A0ADDE909239B1AA3EB0903D7
:102D400043457FF779AF0123524631462846B847BD
:102D500001303FF4AAAE08F10108ECE71346314612
:102D600042462846B8470130C0D19EE6012331468D
:102D700028460592B84701303FF497AE059A0BF10B
:102D8000010BB9E718EE103A524631462846B847CB
:102D90000130BED189E6059A4B4642443146284669
:102DA000B8470130C1D180E60A9A012A01DCDB076D
:102DB00038D50123424631462846B84701303FF412
:102DC00074AE18EE103A524631462846B8470130E4
:102DD0003FF46BAED4E9120100220023FDF784FE1C
:102DE000D8B90A9B08F10102013B31462846B84791
:102DF00001300ED159E60123524631462846B847E4
:102E000001303FF452AE08F101080A9B013B4345F3
:102E1000F1DC4B4604F15002DCE64FF0000804F10F
:102E20001A0AF2E701234246DFE701234A46314608
:102E30002846B84701303FF438AE08F10108E3688E
:102E40000B995B1A4345F0DCFAE64FF0000804F1F9
:102E50001909F4E72DE9F047164699468A680B6987
:102E6000DDF820809342B8BF1346336091F84320C9
:102E700007460C460AB1013333602368990642BF06
:102E8000336802333360256815F0060506D104F176
:102E9000190AE36832689B1AAB4226DC94F8432097
:102EA000131E226818BF012392062BD404F143029B
:102EB00049463846C04701301ED02368E56832686D
:102EC00003F00603042B08BFAD1AA36822690CBFE8
:102ED00025EAE57500259342C4BF9B1AED1800262C
:102EE0001A34B5421AD1002008E00123524649465F
:102EF0003846C047013003D14FF0FF30BDE8F087BE
:102F00000135C6E7E1185A1C302081F843002244FD
:102F100094F8451082F843100233C7E70123224694
:102F200049463846C0470130E6D00136D9E70000AF
:102F30002DE9FF470F7E0C9D782F914680460C4669
:102F40009A4601F1430207D8622F0AD8002F00F0F9
:102F5000D880582F00F0A38004F1420584F8427015
:102F60003AE0A7F16303152BF6D801A151F823F03D
:102F7000C92F0008DD2F0008592F0008592F00081D
:102F8000592F0008592F0008DD2F0008592F00087D
:102F9000592F0008592F0008592F0008E930000860
:102FA0000D300008CB300008592F0008592F0008B9
:102FB0000B310008592F00080D300008592F000868
:102FC000592F0008D33000082B681A1D1B682A608F
:102FD00004F1420584F842300123A3E02068296807
:102FE000060601F104030AD50E682B60002E03DAF1
:102FF0002D23764284F843305E480A2319E00E6898
:103000002B6010F0400F18BF36B2EFE72B68206836
:10301000191D2960010601D51E6802E04606FBD590
:103020001E8854486F2F0CBF08230A23002184F800
:1030300043106568A560002DA2BF216821F004013E
:1030400021600EB9002D4DD01546B6FBF3F103FB00
:103050001167C75D05F8017D3746BB420E46F4D9BE
:10306000082B0BD12368DE0708D5236961689942D4
:10307000DEBF302305F8013C05F1FF35521B22610C
:10308000CDF800A04B4603AA21464046FFF7E2FEDA
:1030900001304CD14FF0FF3004B0BDE8F087354827
:1030A00081F845702968236851F8046B29601D0672
:1030B00014D5DF0744BF43F0200323601EB9236803
:1030C00023F0200323601023B0E7236843F020039C
:1030D00023607823284884F84530E3E7590648BF41
:1030E000B6B2E6E71546BBE72B6826686169181D8E
:1030F000286035061B6801D5196002E07006FBD513
:103100001980002323611546BAE72B681A1D2A602F
:103110001D68626800212846FDF772F808B1401B5F
:10312000606063682361002384F84330A8E7236963
:103130002A4649464046D0470130ABD023689B071A
:1031400013D4E068039B9842B8BF1846A4E7012354
:10315000324649464046D04701309BD00135E368AE
:1031600003995B1AAB42F2DCEBE7002504F1190688
:10317000F5E700BFA26A0008B36A00082DE9F74F1F
:1031800003690C69A3420746C0F28180013C01F14A
:10319000140800F1140505EB8403019358F824305A
:1031A00055F8242001339A424FEA840B08EB840936
:1031B000B2FBF3F631D34FF0000E4046AC46F24678
:1031C00050F8042B93B206FB03E34FEA134E9BB275
:1031D000AAEB0303DCF800A0120C13FA8AF306FB37
:1031E00002E20093009B4FEA124E92B2C2EB1A42E7
:1031F00002EB2342BDF80030814543EA02434CF81C
:10320000043B4FEA224ADBD255F80B302BB9019B25
:10321000043B9D421A462ED33C61384601F0C6F865
:10322000002824DB013628464FF0000C58F8042B08
:10323000D0F800E093B2ACEB0303120C13FA8EF358
:10324000C2EB1E4202EB23429BB243EA0243C1455A
:1032500040F8043B4FEA224CE8D255F8242005EB15
:10326000840322B9043B9D421A460AD33C6130468E
:1032700003B0BDE8F08F1268043B002ACCD1013CBA
:10328000C7E71268043B002AF0D1013CEBE70020BD
:10329000EEE70000000000002DE9F04F2DED048B5B
:1032A00057EC106B93B0456ADDF88080069110EE04
:1032B00010AA044609920C93BB4675B9102000F081
:1032C000DDFD0246606220B9A74BEA21A74801F064
:1032D00075FAC0E901550560C560636A196851B1A6
:1032E0005A684A60012393408B60204600F01CFE20
:1032F000636A00221A603B1EAABF002323F0004B22
:10330000C8F800309A4BBCBF0122C8F8002033EA4D
:103310000B031BD10C9A42F20F731360CBF3130310
:10332000334300F09285219B63B9924B22E0924B8C
:1033300001930833219A1360019813B0BDEC048BFC
:10334000BDE8F08F8B4B01930333F3E7002200239A
:1033500050465946FDF7C8FB4BEC19AB804658B1B7
:103360000C9A01231360219B002B00F06B8583488E
:103370001860431E0193DFE74BEC10AB10AA11A9B4
:10338000204601F0B9F8CBF30A5508EE100A002DDB
:1033900000F0848019EE903AC3F3130343F07F5793
:1033A000564647F44017A5F2FF35CDF83880744BE8
:1033B000002230463946FCF777FF65A3D3E90023A6
:1033C000FDF72AF964A3D3E90023FCF76FFF064653
:1033D00028460F46FDF7B6F861A3D3E90023FDF7B1
:1033E0001BF902460B4630463946FCF75FFF06469E
:1033F0000F46FDF7C1FB00220090002330463946FE
:10340000FDF77CFB50B10098FDF79CF832463B4637
:10341000FDF76AFB10B9009B013B0093009B162B44
:103420005AD8009A574B03EBC203D3E9002351EC5F
:10343000190BFDF763FB002850D0009B013B009364
:1034400000230B93109B5D1B6B1E059345BFC5F1BD
:1034500001030493002300234CBF05930493009BB6
:10346000002B3DDB059B009A0A9213440593002331
:103470000793069B092B00F28980052BC4BF043BF0
:103480000693069BA3F10203CCBF00250125032B65
:1034900000F28780DFE803F02D3A3859DDE9105358
:1034A0001D4405F23243202BC1BFC3F1400305F296
:1034B00012400BFA03F326FA00F0DABFC3F120033F
:1034C00006FA03F01843FDF72DF801230646A1F193
:1034D000F877013D0E936AE70123B2E70B90B1E75D
:1034E000049B009A9B1A04935342079300230A9368
:1034F000BFE700230893099B002B55DC0123CDE98E
:1035000002331A4609920CE00123F3E70023099ADB
:103510000893009B134402930133012B0393B8BF1C
:103520000123606A00224260042202F114069E42D6
:1035300041683DD9204600F0B7FC019000283BD1FE
:10354000114B02464FF4D571C0E60123DFE700BFFF
:1035500061436F63A787D23FB3C8608B288AC63F99
:10356000FB799F501344D33FD16A0008E86A0008F2
:103570000000F07FCD6A0008C46A0008A16A000854
:103580000000F83F206C0008666B0008012500234E
:10359000069308954FF0FF33CDE902330022122342
:1035A000B0E701230893F5E7099BCDE90233B8E7BB
:1035B000013141605200B8E7636A019A1A60039BC7
:1035C0000E2B00F29D80002D00F09A80009B002BB6
:1035D00032DDB74A03F00F0302EBC303D3E90089DE
:1035E000009BD8054FEA231716D5B24B51EC190BA7
:1035F000D3E90823FDF73AF907F00F0782468B4617
:103600000325AC4E57B942464B4650465946FDF746
:103610002DF982468B4628E00225F2E7F90708D506
:1036200040464946D6E90023FCF7F6FF01358046BF
:1036300089467F100836E5E700F09B80009B9D4F90
:103640005E429B4B06F00F0203EBC203D3E900235B
:1036500051EC190BFCF7E0FF361182468B46002334
:103660000225002E7AD1002BD3D10B9B002B00F02A
:103670008280914B002250465946FDF73FFA0028C0
:1036800079D0039B002B76D0029B002B36DD009B6C
:10369000504659465F1E0022884BFCF7BDFF029E34
:1036A00082468B4601352846FCF74CFF52465B4666
:1036B000FCF7B2FF824B0022FCF7F8FDD046D9465A
:1036C0008246A1F1507B002E58D17E4B002240460D
:1036D0004946FCF7E9FD52465B4680468946FDF7C0
:1036E0002BFA002840F0958252460BF100434046E9
:1036F0004946FDF703FA002840F089825BEC19ABDC
:10370000119B002BC0F24881009A0E2A00F34481DD
:10371000674B03EBC203D3E90089099B002B80F2BE
:10372000D580039B002B00F3D18040F06F82654B66
:10373000002240464946FCF76FFF52465B46FDF7C4
:10374000F1F9039E3746002840F04582019D312360
:1037500005F8013B009B0133009340E2F20705D5D9
:10376000D7E90023FCF758FF01350123761008370D
:1037700077E7022579E7009F039E94E701994C4B78
:1037800031440D91089903EBC60353E90223002944
:1037900043D04D490020FDF769F852465B46FCF7DF
:1037A00083FD019D82468B4649464046FDF7E4F97C
:1037B0000646FCF7C7FE02460B4640464946FCF764
:1037C00073FD303605F8016B52465B4680468946EC
:1037D000FDF794F9002863D142464B463649002054
:1037E000FCF762FD52465B46FDF788F9002840F081
:1037F000B5800D9B9D4281D0304B002250465946EA
:10380000FCF70AFF2D4B82468B4640464946002274
:10381000FCF702FF80468946C6E750465946FCF74A
:10382000FBFE0D9B019D0F9382468B464946404609
:10383000FDF7A2F90646FCF785FE303602460B4638
:1038400040464946FCF730FD05F8016B0D9B9D4253
:10385000804689464FF0000224D11B4B5046594602
:10386000FCF724FD02460B4640464946FDF764F945
:10387000002873D152465B4613490020FCF714FD23
:1038800002460B4640464946FDF738F900283FF40A
:1038900035AF0F9D6B1E0F9315F8013C302BF8D000
:1038A000009749E0054BFCF7B7FE80468946BDE727
:1038B000206C0008F86B00080000F03F0000244076
:1038C00000001C40000014400000E03F019D5646EF
:1038D0005F4642464B4630463946FCF7C7FFFDF788
:1038E0004BF98246FCF72EFE42464B46FCF794FE0F
:1038F00002460B46304639460AF13006FCF7D4FC46
:1039000005F8016B019E039FAE1BB74202460B46B2
:1039100035D1FCF7CBFC42464B4606460F46FDF739
:103920000BF9D0B942464B4630463946FDF7DCF834
:1039300010B11AF0010F10D1204618EE101A00F045
:10394000F3FA002300982B700C9B01301860219B28
:10395000002B3FF4F1AC1D60EEE4009F2B461D46AA
:1039600013F8012D392A06D1019A9A42F7D101990B
:10397000302201370A701A7801321A7090E7A64B8C
:103980000022FCF749FE0022002306460F46FDF701
:10399000ABF800289DD0CFE7089A002A00F0D78026
:1039A000069A012A00F3BA800E9A002A00F0B2802B
:1039B00003F23343079E049D049A1A440492059A25
:1039C00001211A442046059200F066FB0746002DAF
:1039D0000CDD059B002B09DDAB42049AA8BF2B46EA
:1039E000D21A0492059AED1AD31A0593079B1BB3BA
:1039F000089B002B00F0AF80002E13DD39463246C5
:103A0000204600F009FC18EE102A01460746204621
:103A100000F058FB18EE101A8046204600F084FA99
:103A200008EE108A079B9A1B06D018EE101A204643
:103A300000F0F2FB08EE100A0121204600F02CFBFA
:103A40000A9B002B064640F388801A460146204612
:103A500000F0E2FB069B012B064640F381804FF00D
:103A60000008336906EB8303186900F0C5FAC0F15A
:103A70002000059B184410F01F0000F09280C0F158
:103A80002003042B40F38A80C0F11C00049B0344F4
:103A90000493059B034405440593049B002B07DD19
:103AA00018EE101A1A46204600F010FC08EE100A14
:103AB000059B002B05DD31461A46204600F006FC2A
:103AC00006460B9B002B6ED018EE100A314600F014
:103AD0006DFC002867DA009B013B18EE101A00937A
:103AE0000A220023204600F041FA089B08EE100A43
:103AF000002B00F0B181002339460A22204600F055
:103B000035FA029B002B074600F38E80069B022BA2
:103B100051DC89E0109BC3F136034BE7039B5E1E2B
:103B2000079BB342BFBF079B0796F21A0A9BB6BF1B
:103B30009B189E1B0A93039BB8BF0026002BB7BFA0
:103B4000DDE90323DDE903359D1A002334E7079EF1
:103B5000049D089F3BE7079A67E7069B012B18DC4B
:103B6000BAF1000F15D1CBF3130393B92BF0004337
:103B70001B0D1B0583B1049B01330493059B01338B
:103B800005934FF001080A9B002B7FF46AAF0120D8
:103B90006FE74FF00008F6E79846F4E73FF47DAF93
:103BA00018461C3072E7039B002B37DC069B022B68
:103BB00034DD039B0293029B6BB9314605222046FC
:103BC00000F0D4F90146064618EE100A00F0EEFBAC
:103BD00000283FF7BBAD099B019DDB4300934FF0ED
:103BE00000083146204600F09FF9002F3FF4A4AEB4
:103BF000B8F1000F05D0B84503D04146204600F08B
:103C000093F93946204600F08FF995E600263746AD
:103C1000E1E70097374699E500002440089B002B18
:103C200000F0CA80039B0293002D05DD39462A4629
:103C3000204600F04BFB0746B8F1000F5BD07968D7
:103C4000204600F031F9054628B9874B024640F27C
:103C5000EA21FFF73BBB3A690232920007F10C01FF
:103C60000C3000F013F901222946204600F02EFB0B
:103C7000019B03F10109DDE90123134405930AF0D7
:103C80000103B84604930746314618EE100AFFF7C1
:103C900075FA4146029000F1300A18EE100A00F061
:103CA00085FB3A4603903146204600F09BFBC268F4
:103CB00009F1FF3B054602BB014618EE100A00F071
:103CC00075FB024629462046079200F02DF9DDE9F2
:103CD000063243EA0201049B0B434D460FD1BAF171
:103CE000390F2AD0039B002B02DD029B03F1310A1E
:103CF0008BF800A075E73846BAE70122E2E7039B9C
:103D0000002B04DB06990B4304990B4322D1002AB4
:103D1000EEDD18EE101A0122204600F0D7FA3146E7
:103D200008EE100A00F042FB002803DCE0D11AF094
:103D3000010FDDD0BAF1390FD7D139238BF800301C
:103D40002B461D46013B15F8012C392A71D0013252
:103D50001A7046E7002A07DDBAF1390FEDD00AF1F3
:103D600001038BF800303CE7059B09F801AC99454D
:103D700047D018EE101A00230A22204600F0F6F869
:103D8000B84508EE100A4FF000034FF00A02414612
:103D9000204606D100F0EAF88046074609F10109FD
:103DA00072E700F0E3F83946804600230A222046F5
:103DB00000F0DCF80746F1E7039B0293019D18EE43
:103DC000100A3146FFF7DAF900F1300A019B05F8D5
:103DD00001ABEA1A029B934209DD18EE101A002388
:103DE0000A22204600F0C2F808EE100AE7E7029B1C
:103DF000002BC8BF1D46019BD8BF01251D444FF0B5
:103E0000000818EE101A0122204600F05FFA314631
:103E100008EE100A00F0CAFA002891DC02D11AF06C
:103E2000010F8DD12B461D4613F8012D302AFAD0F3
:103E3000D7E6019A9A4284D1009B01330093312343
:103E40001370CEE6094BFFF795BA219B002B7FF448
:103E50006EAA074BFFF78EBA029B002BAEDC069BC7
:103E6000022B3FF7A8AEA9E7666B0008A06A00081E
:103E7000C46A00080048704760010020024B0146F8
:103E8000186800F017BC00BF0C0000200A449142E3
:103E900000F1FF3300D1704710B511F8014B03F862
:103EA000014F9142F9D110BD70B5466A04460D46E6
:103EB00076B91020FFF7E2FF0246606220B9184B86
:103EC0001848662100F07AFCC0E901660660C66009
:103ED000666AF36883B1636ADB6853F82500B8B992
:103EE000012101FA05F6721D9200204600F060FBE8
:103EF00060B1C0E901560EE021220421204600F005
:103F000057FB636AF060DB68002BE4D1002070BDD2
:103F1000026843F825200023C0E90333F7E700BF18
:103F2000D16A0008776B000870B5466A05460C46F2
:103F300076B91020FFF7A2FF0246686220B9094B4C
:103F400009488A2100F03AFCC0E901660660C660B3
:103F50003CB16B6A6268DB6853F82210216043F859
:103F6000224070BDD16A0008776B00082DE9F0414E
:103F70000D6907460C461E4601F1140C0020DCF8C2
:103F8000003099B202FB01611E0C0B0C02FB0633E0
:103F900089B2013001EB034185424CF8041B4FEA22
:103FA0001346ECDC0EB3A368AB4219DC61683846FB
:103FB0000131FFF779FF804628B902460C4B0D48C6
:103FC000B52100F0FBFB2269023204F10C019200E2
:103FD0000C30FFF75BFF21463846FFF7A5FF44464C
:103FE00004EB850301355E6125612046BDE8F08163
:103FF000666B0008776B0008030C1B04D3B9000440
:10400000102310F07F4F04BF0002083310F0704FF0
:1040100004BF0001043310F0404F04BF800002339E
:10402000002805DB10F0804F03F1010308BF2023B7
:10403000184670470023E4E7036813F007020146BF
:104040000BD0DA0723D4980749BF5B089B080120EF
:104050000B605CBF0B600220704798B2A8B91B0CC4
:104060001020DAB20AB908301B0A1A0704BF1B096C
:1040700004309A0704BF9B080230DA0703D45B08B8
:1040800000F1010005D00B6070471046E9E7002001
:10409000704720207047000010B50C460121FFF743
:1040A00003FF024628B9054B05484FF4A07100F004
:1040B00085FB01234461036110BD00BF666B0008EE
:1040C000776B00082DE9F04F91460A69D9F8103056
:1040D0009A42B8BF0B460C46BCBF4C46994627696E
:1040E000D9F810A0A368616807EB0A06B34285B04F
:1040F000B8BF0131FFF7D8FE30B90246444B4548FE
:1041000040F25D1100F05AFB00F1140505EB860842
:104110002B460022434521D304F1140303EB870708
:1041200009F1140303EB8A0202923A1B153A22F0BA
:104130000302043204F115018F4238BF04220192B8
:10414000029A03939A420CD8002E03DD58F8043DDE
:10415000002B5AD0066105B0BDE8F08F43F8042B60
:10416000D8E7B3F800A0BAF1000F24D004F1140E80
:10417000A9464FF0000C5EF8042BD9F800101FFA86
:1041800082FB89B20AFB0B114FEA124BD9F80020CF
:1041900061444FEA124C0AFB0BC202EB114289B296
:1041A00041EA0241774549F8041B4FEA124CE2D834
:1041B000019A45F802C0039AB2F802900433B9F1AB
:1041C000000F20D0296804F1140CAE464FF0000A0D
:1041D000BCF800B0BEF8022009FB0B22924489B261
:1041E00041EA0A414EF8041B5CF8042BBEF80010AB
:1041F000120C09FB021101EB1A4167454FEA114A03
:10420000E6D8019AA95004359AE7013E9CE700BF21
:10421000666B0008776B00082DE9F843154612F02D
:10422000030206460F4607D0254C013A002354F8F6
:104230002220FFF79BFE0746AD103DD0746A7CB983
:104240001020FFF71BFE0246706228B91D4B1E4866
:104250004FF4D77100F0B2FAC0E901440460C460C1
:10426000D6F82480D8F808404CB940F27121304685
:10427000FFF712FF0023C8F80800044603604FF060
:104280000009EB070AD5394622463046FFF71AFFE8
:10429000394680463046FFF747FE47466D100BD043
:1042A000206838B9224621463046FFF70BFF2060D0
:1042B000C0F800900446E4E73846BDE8F88300BF44
:1042C000E86C0008D16A0008776B00082DE9F04718
:1042D0000C464968236903EB6218A36807469146B8
:1042E0004FEA621A08F10106B3420BDB3846FFF7CA
:1042F000DBFD054648B902462A4B2B4840F2D9114E
:1043000000F05CFA01315B00EEE7002300F11401DC
:1043100000F110021846534537DB20692AEAEA7A91
:1043200004F1140319F01F0901EB8A0103EB80006B
:104330002FD0C9F1200E8A464FF0000C1A6802FAFD
:1043400009F242EA0C024AF8042B53F8042B984273
:1043500022FA0EFCF2D8031B153B23F003030433AF
:1043600004F11502904238BF042341F803C0BCF1A8
:10437000000F01D008F10206013E38462E612146A9
:10438000FFF7D2FD2846BDE8F08742F8040F01335D
:10439000C1E7043953F8042B41F8042F9842F9D8A7
:1043A000EAE700BF666B0008776B000830B502696A
:1043B0000C69121B0ED100F11403143103EB8400BD
:1043C00001EB840150F8045D51F8044DA54203D07F
:1043D00005D30122104630BD8342F3D3FAE74FF0F4
:1043E000FF32F7E72DE9F84F0C4606461146204606
:1043F0009046FFF7DBFF051E10D129463046FFF738
:1044000053FD30B93A4B024640F23221394800F0B0
:10441000D5F90123C0E90435BDE8F88FA4BF4346B0
:10442000A0463046D8F80410A6BF1C46002501253A
:10443000FFF73AFD20B92E4B02464FF41071E5E725
:10444000D8F810702669C56004F1140908F1140544
:1044500000F1140E05EB870C09EB860608F110023B
:10446000F246002159F8043B52F804BF1FFA83F8C2
:1044700011FA8BF11B0CA1EB0808C3EB1B4303EBF8
:1044800028431FFA88F819144E4548EA03434AF8AE
:10449000043BE7D8331B153B23F0030304331534E7
:1044A000A64238BF04231D4473449E462E466645EB
:1044B0000ED30CF10302521B22F00302033DAC4564
:1044C00038BF00221A4452F8043D7BB10761A3E7CC
:1044D00056F8048B11FA88F2141404EB184492B2C3
:1044E00042EA04424EF8042B2114E0E7013FEAE7D8
:1044F000666B0008776B00082DE9F74389460121B8
:1045000057EC106B9046FFF7CFFC044630B90246DB
:10451000254B264840F20A3100F050F9C7F30A55FE
:10452000C7F3130335BB002E019328D068460096CD
:10453000FFF782FD009900B3019AC0F1200302FA4F
:1045400003F30B43C24063610192019BA361002B03
:1045500014BF022201222261D5B1A5F233450544E0
:10456000C9F80050C0F13500C8F80000204603B07B
:10457000BDE8F08343F48013D5E76161E5E701A866
:10458000FFF75AFD019B6361012222612030E3E7BE
:1045900004EB8203A0F23240C9F800001869FFF76B
:1045A0002BFDC0EB4210DFE7666B0008776B00085D
:1045B00037B5A1FB02244CB91146019200F07AF8FC
:1045C000019A054630B9284603B030BD0C2202607E
:1045D0000025F8E72146FEF75FF9F4E737B5002933
:1045E00044D051F8043C0190002BA1F10404B8BF61
:1045F000E41800F025F91E4A0198136833B9636086
:10460000146003B0BDE8304000F020B9A34208D9DF
:10461000256861198B4201BF19685B6849192160DF
:10462000EDE71A465B680BB1A342FAD91168551839
:10463000A5420BD1246821445418A3421160E0D153
:104640001C685B68536021441160DAE702D90C23CF
:104650000360D6E7256861198B4204BF19685B685F
:10466000636004BF491921605460CAE703B030BDDC
:104670005402002070B50E4E0C463168054611B943
:1046800000F08CF830602146284600F087F8431C83
:104690000AD0C41C24F00304A04207D0211A2846E3
:1046A00000F07CF8013001D14FF0FF34204670BD9E
:1046B000580200202DE9F041CD1C25F003050835F6
:1046C0000C2D38BF0C25002D074601DBA94205D96A
:1046D0000C233B6000263046BDE8F0812E4E00F0F2
:1046E000AFF833681C4634BB29463846FFF7C2FF93
:1046F000431C04464DD134682646002E40D1236821
:104700003146384604EB030800F048F880453AD1BA
:10471000216803356D1A25F0030508350C2D38BFC7
:104720000C2529463846FFF7A5FF01302BD023681A
:104730002B4423600EE02268521B1ED40B2A16D98C
:104740006119A342256018BF5960636808BF3160D2
:1047500062514B60384604F10B0600F077F826F002
:104760000706231DF21AB6D09B1BA350B3E762685D
:10477000A3420CBF32605A60ECE723466468B2E79C
:1047800034467668B9E70C233B60384600F05EF8A3
:10479000A1E72560DEE700BF5402002038B5064DD2
:1047A0000023044608462B6000F0CEFD431C02D1D6
:1047B0002B6803B1236038BD5C0200201FB514468E
:1047C0001A46094B1B680546D8684CB1074B009147
:1047D000CDE9013406492B4600F00EF800F064FAEA
:1047E000044B1C46F3E700BF0C000020F46C0008EB
:1047F000016D00082F6D00080EB403B5014603AB30
:10480000054853F8042B0068019300F04FF802B0FC
:104810005DF804EB03B070470C00002082B001B9D2
:1048200001A942B14BB113780B601278101E18BF6A
:10483000012002B070471046FBE76FF00100F8E777
:10484000014800F0F1BB00BF60020020014800F009
:10485000ECBB00BF600200209368013B002B10B44A
:10486000936008DA9469A34201DB0A2903D15DF859
:10487000044B00F04BB91368581C106019700846BF
:104880005DF8044B7047F8B506460F461446D51838
:10489000AC4201D1002007E014F8011B3A46304633
:1048A000FFF7DAFF431CF3D1F8BD00002DE9F04F0C
:1048B0000D469DB014469846064618B183690BB95B
:1048C00000F014FB894B9D421BD175686B6ED907B4
:1048D00005D4AB899A0502D4A86D00F0A5FBAB897D
:1048E0001B0701D52B69EBB92946304600F06EF95C
:1048F000C0B16B6EDC070ED54FF0FF301DB0BDE8C8
:10490000F08F7B4B9D4201D1B568DFE7794B9D422B
:1049100008BFF568DAE7AB899805EDD4A86D00F01B
:1049200084FBE9E70023099320238DF82930CDF893
:104930000C803023DFF8C0818DF82A304FF0010958
:1049400023469A4613F8012B0AB1252AF9D1BAEB6E
:10495000040B0BD05B46224629463046FFF793FFF7
:10496000013000F0AA80099A5A4409929AF800305E
:10497000002B00F0A28000234FF0FF32CDE9052389
:104980000AF1010A049307938DF853301A935446A1
:10499000052214F8011B5848FBF732FC049AD8B9D9
:1049A000D10644BF20238DF85330130744BF2B2377
:1049B0008DF853309AF800302A2B15D0079A5446B8
:1049C00000204FF00A0C214611F8013B303B092B27
:1049D0004ED9B0B1079214E0A0EB080309FA03F333
:1049E00013430493A246D2E7039B191D1B6803914E
:1049F000002BBBBF5B4242F0020207930793B8BF94
:104A0000049223782E2B0CD163782A2B35D1039B6B
:104A10001A1D1B680392002BB8BF4FF0FF330234FE
:104A20000593DFF8E4A0217803225046FBF7E8FB6A
:104A300040B14023A0EB0A0003FA00F0049B0343BB
:104A40000134049314F8011B2C488DF82810062219
:104A5000FBF7D6FB00283FD0294B1BBB039B07333A
:104A600023F0070308330393099B3B44099367E74B
:104A70000CFB02320C460120A5E70023013405930C
:104A800019464FF00A0C204610F8012B303A092A3B
:104A900003D9002BC5D00591C3E70CFB01210446C7
:104AA0000123F0E703AB00932A46164B04A93046D6
:104AB000FDF79AFF0746781CD6D16B6ED90705D44F
:104AC000AB899A0502D4A86D00F0AFFAAB895B06FA
:104AD0003FF512AF099811E703AB00932A46094B43
:104AE00004A93046FEF724FAE4E700BF6C6E000824
:104AF0008C6E00084C6E00083A6D0008446D00088A
:104B0000E929000887480008406D0008F8B50E46FE
:104B10001446054618B183690BB900F0E7F9214B3B
:104B20009C422BD16C68A369A360A3891A072FD577
:104B300023696BB323692068C01A6369F6B28342A4
:104B4000374604DC2146284600F03CF930BBA36818
:104B5000013BA36023685A1C22601E706369013008
:104B6000834204D0A389DB0706D50A2E04D121464F
:104B7000284600F027F988B93846F8BD0A4B9C4210
:104B800001D1AC68CFE7094B9C4208BFEC68CAE78B
:104B90002146284600F01AF80028CBD04FF0FF3706
:104BA000EAE700BF6C6E00088C6E00084C6E0008CF
:104BB00049B1FF2A85BF8A2303600A704FF0FF3096
:104BC00098BF01207047084670470000324B70B50F
:104BD0001D6806460C4625B1AB6913B9284600F09E
:104BE00085F92E4B9C420FD16C68A389B4F90C2037
:104BF00019072CD4DD0611D40923336042F0400399
:104C0000A3814FF0FF303EE0254B9C4201D1AC68C0
:104C1000EBE7244B9C4208BFEC68E6E7580712D547
:104C2000616B41B104F14403994202D03046FFF771
:104C3000D5FC00236363A38923F02403A38100230D
:104C4000636023692360A38943F00803A381236978
:104C50004BB9A38903F42073B3F5007F03D0214639
:104C6000304600F009FAA089B4F90C2010F00103D5
:104C70000AD00023A36063695B42A361236943B93F
:104C800010F08000BAD170BD810758BF6369A3607E
:104C9000F4E70020F7E700BF0C0000206C6E00086E
:104CA0008C6E00084C6E000808B5062000F04CFA27
:104CB000012000F05FFB00008A892DE9F0410546E4
:104CC00010070C4658D44B68002B05DC0B6C002BEE
:104CD00002DC0020BDE8F081E66A002EF9D0002356
:104CE00012F480522F682B6032D0606DA3895A076E
:104CF00005D56368C01A636B0BB1236CC01A00231F
:104D00000246E66A216A2846B047431CA38906D1B9
:104D100029681D292CD82A4ACA40D60728D500223E
:104D20006260D9042269226004D5421C01D12B683B
:104D300003B96065616B2F600029CAD004F1440398
:104D4000994202D02846FFF749FC00206063C1E782
:104D5000216A01232846B047411CC7D12B68002B8C
:104D6000C4D01D2B01D0162B01D12F60B1E7A38930
:104D700043F04003A381ADE70F69002FA9D093074B
:104D80000E6808BF4B690F6018BF0023A6EB070829
:104D90008B60B8F1000F9CDD216AA66A43463A4653
:104DA0002846B047002806DCA38943F04003A381CE
:104DB0004FF0FF308EE70744A8EB0008E9E700BF9B
:104DC0000100402038B50B6905460C4613B9002593
:104DD000284638BD18B183690BB900F087F8144B29
:104DE0009C421BD16C68B4F90C30002BEFD0626E82
:104DF000D00704D4990502D4A06D00F015F9284617
:104E00002146FFF759FF636EDA070546E0D4A38910
:104E10009B05DDD4A06D00F008F9D9E7054B9C4255
:104E200001D1AC68DFE7044B9C4208BFEC68DAE7CD
:104E30006C6E00088C6E00084C6E0008002310B5E4
:104E40000446C0E90033C0E90433836081814366CE
:104E5000C2818361194608225C30FDF71DFD054BB8
:104E60006362054BA362054BE362054B2462236337
:104E700010BD00BF81510008A3510008DB5100089C
:104E8000FF510008014900F0AFB800BFC54D000850
:104E900070B568224D1E55430E4605F17401FFF7AB
:104EA00009FC044640B10021C0E900160C30A060A6
:104EB00005F16802FDF7F0FC204670BD014800F0E6
:104EC000B3B800BF61020020014800F0AEB800BFD7
:104ED00061020020014800F0A7B800BF6202002074
:104EE000014800F0A2B800BF6202002010B50446DD
:104EF000FFF7F0FFA3691BB1BDE81040FFF7F0BF5B
:104F0000C4E912332365134B134A1B68A262A34200
:104F100004BF0123A361204600F020F86060204612
:104F200000F01CF8A060204600F018F80022E060B5
:104F300004216068FFF782FFA06801220921FFF7C2
:104F40007DFFE06802221221FFF778FF0123A361B1
:104F5000D2E700BF8C6A0008854E0008F8B5074606
:104F6000FFF7ACFF1E4B1E68B36913B93046FFF75D
:104F7000BDFF4836D6E90134013B03D533680BB396
:104F80003668F7E7B4F90C50D5B9164BE36004F175
:104F90005800656600F047F8FFF796FFC4E9015531
:104FA000C4E904552560A5610822294604F15C0086
:104FB000FDF772FCC4E90D55C4E912552046F8BD51
:104FC0006834D9E704213846FFF762FF04463060B1
:104FD0000028D5D1FFF778FF0C233B60EEE700BF38
:104FE0008C6A00080100FFFF2DE9F8430646884659
:104FF00000F148040027D4E90195B9F1010905D56C
:105000002468002CF7D13846BDE8F883AB89012B22
:1050100007D9B5F90E30013303D029463046C047D1
:1050200007436835E9E770477047704770B50E462B
:10503000B1F90E10002996B014461D4608DAB6F9EB
:105040000C3000222A601A0610D44FF480630EE060
:105050006A4600F0FBF80028F1DB019A02F4704286
:10506000A2F500535A425A412A60EEE7402300203D
:10507000236016B070BD00008B8973B59D0706468E
:105080000C4607D504F147032360236101236361C4
:1050900002B070BD01AB6A46FFF7C8FF0099054634
:1050A0003046FFF707FB48B9B4F90C309A05EFD446
:1050B00023F0030343F00203A381E3E70D4BB36244
:1050C000A389206043F08003A381009B6361019B5F
:1050D00020615BB1B4F90E10304600F0C9F828B178
:1050E000A38923F0030343F00103A381A0890543AF
:1050F000A581CDE7854E00081F2938B504460D4629
:1051000004D9162303604FF0FF3038BD426C12B152
:1051100052F821304BB9204600F030F82A460146BB
:105120002046BDE8384000F017B8012B0AD0591CC2
:1051300003D1162303600120E7E7002442F825404D
:10514000284698470020E0E7024B01461868FFF721
:10515000D3BF00BF0C00002038B5074D0023044624
:10516000084611462B6000F0D7F8431C02D12B688B
:1051700003B1236038BD00BF5C02002000F0BCB862
:1051800010B50C46B1F90E1000F094F80028ABBF32
:10519000636DA3891B1823F48053ACBF6365A3819F
:1051A00010BD2DE9F0411F468B89DB0505460C46F5
:1051B000164605D5B1F90E100223002200F068F85A
:1051C000A389B4F90E1023F48053A38132463B46E1
:1051D0002846BDE8F04100F017B810B50C46B1F90B
:1051E0000E1000F055F8431CA38915BF606523F429
:1051F000805343F48053A38118BFA38110BDB1F93C
:105200000E1000F013B8000038B5074D04460846EC
:10521000114600222A601A4600F0A4F8431C02D16D
:105220002B6803B1236038BD5C02002038B5064D01
:105230000023044608462B6000F04EF8431C02D1C0
:105240002B6803B1236038BD5C02002038B5074DE0
:1052500000230446084611462B6000F045F8431C25
:1052600002D12B6803B1236038BD00BF5C0200206F
:1052700038B5064D0023044608462B6000F044F87C
:10528000431C02D12B6803B1236038BD5C020020AF
:1052900038B5074D04460846114600222A601A46D2
:1052A00000F042F8431C02D12B6803B1236038BDE3
:1052B0005C02002038B5074D04460846114600221E
:1052C0002A601A4600F038F8431C02D12B6803B15B
:1052D000236038BD5C020020024B58221A604FF058
:1052E000FF3070475C020020024B58221A604FF0DA
:1052F000FF3070475C020020024B58221A604FF0CA
:10530000FF3070475C020020024B58221A600020D8
:10531000704700BF5C020020024B58221A604FF019
:10532000FF3070475C020020024B58221A604FF099
:10533000FF3070475C020020024B58221A604FF089
:10534000FF3070475C020020044A05491368002BB7
:1053500008BF0B46184410601846704764020020CE
:10536000B83F0020024B58221A604FF0FF307047C0
:105370005C020020FEE700BF80B58AB004AFF86091
:10538000B9607A603B607B689B00184600F0F4FDD2
:1053900038613B69002B13D05C2000F0EDFD786193
:1053A0007B69002B08D05C2200217869FDF774FA34
:1053B0007B693A691A6305E0386900F009FF01E08A
:1053C00000237B617B69002B0DD0002303937B6955
:1053D00002937B6A01933B6A00933B687A68B968E1
:1053E000F86800F028F87B6918461837BD4680BD7C
:1053F00080B588B002AFF860B9607A603B607B6AC4
:1054000001933B6A00933B687A68B968F868FFF7D4
:10541000B3FF38613B69002B05D0386900F09AF87A
:1054200001237B6102E04FF0FF337B617B6918460B
:105430001837BD4680BD80B588B000AFF860B96050
:105440007A603B603B6B186B7B689B001A46A5211A
:10545000FDF722FA3B6B1A6B7B6803F18043013B3B
:105460009B001344BB61BB6923F00703BB61BB69AD
:1054700003F00703002B0AD04FF0500383F3118889
:10548000BFF36F8FBFF34F8F7B6100BFFEE7BB6839
:10549000002B1ED00023FB6112E0BA68FB691344A5
:1054A00019783A6BFB69134434330A461A70BA68A8
:1054B000FB6913441B78002B06D0FB690133FB61A9
:1054C000FB690F2BE9D900E000BF3B6B002283F89A
:1054D0004320BB6A062B0AD94FF0500383F311888F
:1054E000BFF36F8FBFF34F8F3B6100BFFEE7BB6A17
:1054F000062B01D90623BB623B6BBA6ADA623B6BAF
:10550000BA6ADA643B6B0433184601F027FA3B6B46
:105510001833184601F022FA3B6B3A6B1A61BB6AEA
:10552000C3F107023B6B9A613B6B3A6B5A623A6874
:10553000F968B86900F098FF02463B6B1A60FB6A95
:10554000002B02D0FB6A3A6B1A6000BF2037BD46C1
:1055500080BD000080B584B000AF786001F0FCF839
:10556000414B1B680133404A1360404B1B68002BC2
:1055700009D13E4A7B6813603B4B1B68012B10D15D
:1055800000F0DEFB0DE03A4B1B68002B09D1374BD6
:105590001B68DA6A7B68DB6A9A4202D8334A7B6806
:1055A0001360344B1B680133324A1360314B1A6865
:1055B0007B685A647B68DB6A01229A402E4B1B6829
:1055C00013432D4A13607B68DA6A2C4913469B000B
:1055D00013449B000B4404331B68FB607B68FA6830
:1055E0009A60FB689A687B68DA60FB689B687A68F7
:1055F00004325A607B681A1DFB689A607B68DA6A1D
:1056000013469B0013449B001C4A1A447B685A6152
:105610007B68DA6A194913469B0013449B000B44CC
:105620001B687A68D26A591C144813469B001344BD
:105630009B000344196001F0BFF80D4B1B68002B61
:105640000ED00A4B1B68DA6A7B68DB6A9A4207D283
:105650000B4B4FF080521A60BFF34F8FBFF36F8F29
:1056600000BF1037BD4680BD6803002068020020DF
:105670007403002084030020700300206C020020CB
:1056800004ED00E080B584B000AF78600023FB60DB
:105690007B68002B17D000F0B1F8124B1B68012B70
:1056A0000AD04FF0500383F31188BFF36F8FBFF31D
:1056B0004F8FBB6000BFFEE70021786800F0DAFB87
:1056C00000F0AAF8F860FB68002B07D1064B4FF0FA
:1056D00080521A60BFF34F8FBFF36F8F00BF103738
:1056E000BD4680BD9003002004ED00E080B58AB087
:1056F00002AF0123FB6100233B6100237B6111E0CA
:105700001C4A7B69134419783A467B6913440A465C
:105710001A703A467B6913441B78002B06D07B69CC
:1057200001337B617B690F2BEADD00E000BF0023C2
:10573000BB6115E0104B3B61BB699B000F4A1344F2
:105740003946019300230093002380223869FFF734
:105750004FFEF861FB69002B06D0BB690133BB61CA
:10576000BB69002BE6DD00E000BFFB69184620376F
:10577000BD4680BD6C6A0008115D00088C030020E6
:1057800080B584B000AFFFF7B1FFF860FB68012B74
:1057900016D14FF0500383F31188BFF36F8FBFF31F
:1057A0004F8FBB6000BF114B4FF0FF321A60104BA0
:1057B00001221A600F4B00221A6000F0E3FE0EE097
:1057C000FB68B3F1FF3F0AD14FF0500383F3118818
:1057D000BFF36F8FBFF34F8F7B6000BFFEE7064BB9
:1057E0001B6800BF1037BD4680BD00BF8803002086
:1057F000740300206C030020DC01002080B400AFA3
:10580000044B1B680133034A136000BFBD465DF8BB
:10581000047B70479003002080B588B000AF002360
:10582000FB610023BB6100F097FF00233B61754BD8
:105830001B68002B0AD14FF0500383F31188BFF38C
:105840006F8FBFF34F8F3B6000BFFEE76D4B1B6850
:10585000013B6C4A13606B4B1B68002B40F0CA8005
:10586000694B1B68002B00F0C5808EE0674BDB683E
:10587000DB68FB61FB699B6AFB60FB69DB69FA69BA
:10588000126A9A60FB691B6AFA69D2695A60FB68FE
:105890005A68FB6918339A4203D1FB691A6AFB689C
:1058A0005A60FB6900229A62FB681B685A1EFB68FB
:1058B0001A60FB695B69BB60FB699B68FA69D26827
:1058C0009A60FB69DB68FA6992685A60BB685A683B
:1058D000FB6904339A4203D1FB69DA68BB685A60FA
:1058E000FB6900225A61BB681B685A1EBB681A60BC
:1058F000FB69DB6A01229A40454B1B681343444A0B
:105900001360FB69DA6A434913469B0013449B000A
:105910000B4404331B687B60FB697A689A607B6880
:105920009A68FB69DA607B689B68FA6904325A609E
:10593000FB691A1D7B689A60FB69DA6A13469B0053
:1059400013449B00334A1A44FB695A61FB69DA6AC3
:10595000304913469B0013449B000B441B68FA69B3
:10596000D26A591C2B4813469B0013449B000344E6
:105970001960FB69DA6A284B1B68DB6A9A4204D912
:10598000264A3B69012142F82310204B1B68002B5B
:105990007FF46CAFFB69002B01D000F04FFA204B75
:1059A0001B687B617B69002B12D000F03DF8034639
:1059B000002B04D0194A3B69012142F823107B696E
:1059C000013B7B617B69002BEFD1154B00221A60F4
:1059D000124A3B6952F82330002B0BD00123BB61E4
:1059E0000D4B1B680F4B4FF080521A60BFF34F8F67
:1059F000BFF36F8F00F0E0FEBB6918462037BD464D
:105A000080BD00BF90030020680300202803002011
:105A1000700300206C020020680200207C0300203C
:105A20007803002004ED00E080B58AB000AF0023C9
:105A30007B627E4B1B68002B40F0EE807C4B1B682A
:105A400001333B627A4A3B6A13603B6A002B20D1E8
:105A5000784B1B681B68002B0AD04FF0500383F370
:105A60001188BFF36F8FBFF34F8F7B6000BFFEE7DE
:105A7000704B1B68FB61704B1B686E4A13606E4A6B
:105A8000FB6913606D4B1B6801336C4A136000F0B7
:105A9000D5F96B4B1B683A6A9A42C0F0A880654BF7
:105AA0001B681B68002B04D1654B4FF0FF321A6056
:105AB0009DE0604B1B68DB68DB68BB61BB695B68B2
:105AC0007B613A6A7B699A4203D25D4A7B691360C3
:105AD0008DE0BB695B693B61BB699B68BA69D26851
