:020000040800F2
:1000000000000320DD4B0008D5100008DB100008BD
:10001000E1100008E7100008ED10000800000000E3
:10002000000000000000000000000000B194000883
:10003000F31000080000000091970008F9970008ED
:100040002D4C00082D4C00082D4C00082D4C0008AC
:100050002D4C00082D4C00082D4C00082D4C00089C
:100060002D4C00082D4C00082D4C00082D4C00088C
:100070002D4C00082D4C00082D4C00082D4C00087C
:100080002D4C00082D4C00082D4C00082D4C00086C
:100090002D4C00082D4C00082D4C00082D4C00085C
:1000A0002D4C00082D4C00082D4C00082D4C00084C
:1000B000011100082D4C00082D4C00082D4C0008A3
:1000C0002D4C00082D4C00082D4C00082D4C00082C
:1000D0002D4C00082D4C0008151100082D4C00086F
:1000E0002D4C00082D4C00082D4C00082D4C00080C
:1000F0002D4C00082D4C00082D4C00082D4C0008FC
:100100002D4C00082D4C00082D4C00082D4C0008EB
:100110002D4C00082D4C00082D4C00082D4C0008DB
:100120002D4C00082D4C00082D4C00082D4C0008CB
:100130002D4C00082D4C00082D4C00082D4C0008BB
:100140002D4C00082D4C00082D4C00082D4C0008AB
:100150002D4C00082D4C00082D4C00082D4C00089B
:100160002D4C00082D4C00082D4C00082D4C00088B
:100170002D4C00082D4C00082D4C000800000000FC
:100180002D4C00082D4C00082D4C00082D4C00086B
:100190002D4C00082D4C00082D4C00082D4C00085B
:0C01A00000000000000000002D4C0008D2
:1001B00010B5054C237833B9044B13B10448AFF3A1
:1001C00000800123237010BDE40100200000000026
:1001D000BC99000808B5034B1BB103490348AFF3B2
:1001E000008008BD00000000E8010020BC99000864
:1001F000034613F8012B002AFBD1181A0138704767
:1002000001F0FF01102A2BDB10F0070F08D010F8C7
:10021000013B013A8B422DD010F0070F42B3F6D1CB
:10022000F0B441EA012141EA014122F007047FF0E4
:1002300000070023F0E80256083C85EA010586EA3B
:10024000010685FA47F5A3FA87F586FA47F6A5FA77
:1002500087F68EB9EED1F0BC01F0FF0102F0070283
:1002600032B110F8013B013A83EA010313B1F8D12E
:100270000020704701387047002D06BF354603380F
:10028000073815F0010F07D1013015F4807F02BF48
:10029000013015F4C03F0130F0BC0138704700BF99
:1002A00081F0004102E000BF83F0004330B54FEA27
:1002B00041044FEA430594EA050F08BF90EA020F94
:1002C0001FBF54EA000C55EA020C7FEA645C7FEA27
:1002D000655C00F0E2804FEA5454D4EB5555B8BF4A
:1002E0006D420CDD2C4480EA020281EA030382EABB
:1002F000000083EA010180EA020281EA0303362D4D
:1003000088BF30BD11F0004F4FEA01314FF4801C1F
:100310004CEA113102D0404261EB410113F0004F31
:100320004FEA03334CEA133302D0524263EB4303E8
:1003300094EA050F00F0A780A4F10104D5F1200E86
:100340000DDB02FA0EFC22FA05F2801841F10001E1
:1003500003FA0EF2801843FA05F359410EE0A5F1B5
:1003600020050EF1200E012A03FA0EFC28BF4CF0E6
:10037000020C43FA05F3C01851EBE37101F000459C
:1003800007D54FF0000EDCF1000C7EEB00006EEBA9
:100390000101B1F5801F1BD3B1F5001F0CD3490833
:1003A0005FEA30004FEA3C0C04F101044FEA44528A
:1003B00012F5800F80F09A80BCF1004F08BF5FEA11
:1003C000500C50F1000041EB045141EA050130BDF1
:1003D0005FEA4C0C404141EB0101013C28BFB1F503
:1003E000801FE9D291F0000F04BF01460020B1FA4E
:1003F00081F308BF2033A3F10B03B3F120020CDA21
:100400000C3208DD02F1140CC2F10C0201FA0CF0FE
:1004100021FA02F10CE002F11402D8BFC2F1200C63
:1004200001FA02F120FA0CFCDCBF41EA0C01904019
:10043000E41AA2BF01EB0451294330BD6FEA040462
:100440001F3C1CDA0C340EDC04F11404C4F120024D
:1004500020FA04F001FA02F340EA030021FA04F35F
:1004600045EA030130BDC4F10C04C4F1200220FAB6
:1004700002F001FA04F340EA0300294630BD21FAF4
:1004800004F0294630BD94F0000F83F4801306BFBA
:1004900081F480110134013D4EE77FEA645C18BFAE
:1004A0007FEA655C29D094EA050F08BF90EA020F45
:1004B00005D054EA000C04BF1946104630BD91EA3D
:1004C000030F1EBF0021002030BD5FEA545C05D140
:1004D0004000494128BF41F0004130BD14F580047F
:1004E0003CBF01F5801130BD01F0004545F0FE41F3
:1004F00041F470014FF0000030BD7FEA645C1ABF28
:10050000194610467FEA655C1CBF0B46024650EA5E
:10051000013406BF52EA033591EA030F41F400218A
:1005200030BD00BF90F0000F04BF0021704730B510
:100530004FF4806404F132044FF000054FF00001E5
:1005400050E700BF90F0000F04BF0021704730B5A6
:100550004FF4806404F1320410F0004548BF40427B
:100560004FF000013EE700BF42004FEAE2014FEAD0
:1005700031014FEA02701FBF12F07F4393F07F4FAB
:1005800081F06051704732F07F4208BF704793F0AE
:100590007F4F04BF41F40021704730B54FF46074C1
:1005A00001F0004521F000411CE700BF50EA0102C4
:1005B00008BF704730B54FF000050AE050EA01026D
:1005C00008BF704730B511F0004502D5404261EBDD
:1005D00041014FF4806404F132045FEA915C3FF41E
:1005E000D8AE4FF003025FEADC0C18BF03325FEABB
:1005F000DC0C18BF033202EBDC02C2F1200300FA6C
:1006000003FC20FA02F001FA03FE40EA0E0021FA90
:1006100002F11444BDE600BF70B54FF0FF0C4CF47E
:10062000E06C1CEA11541DBF1CEA135594EA0C0F30
:1006300095EA0C0F00F0DEF82C4481EA030621EA6B
:100640004C5123EA4C5350EA013518BF52EA0335A6
:1006500041F4801143F4801338D0A0FB02CE4FF058
:100660000005E1FB02E506F00042E0FB03E54FF088
:100670000006E1FB03569CF0000F18BF4EF0010E80
:10068000A4F1FF04B6F5007F64F5407404D25FEA7C
:100690004E0E6D4146EB060642EAC62141EA55512F
:1006A0004FEAC52040EA5E504FEACE2EB4F1FD0C71
:1006B00088BFBCF5E06F1ED8BEF1004F08BF5FEAEF
:1006C000500E50F1000041EB045170BD06F00046A1
:1006D00046EA010140EA020081EA0301B4EB5C044E
:1006E000C2BFD4EB0C0541EA045170BD41F4801146
:1006F0004FF0000E013C00F3AB8014F1360FDEBF6B
:10070000002001F0004170BDC4F10004203C35DA46
:100710000C341BDC04F11404C4F1200500FA05F3C9
:1007200020FA04F001FA05F240EA020001F000426A
:1007300021F0004110EBD37021FA04F642EB0601E0
:100740005EEA430E08BF20EAD37070BDC4F10C040A
:10075000C4F1200500FA04F320FA05F001FA04F2CE
:1007600040EA020001F0004110EBD37041F10001BA
:100770005EEA430E08BF20EAD37070BDC4F12005C5
:1007800000FA05F24EEA020E20FA04F301FA05F22D
:1007900043EA020321FA04F001F0004121FA04F2D5
:1007A00020EA020000EBD3705EEA430E08BF20EAA5
:1007B000D37070BD94F0000F0FD101F000464000DF
:1007C00041EB010111F4801F08BF013CF7D041EA61
:1007D000060195F0000F18BF704703F00046520065
:1007E00043EB030313F4801F08BF013DF7D043EA36
:1007F0000603704794EA0C0F0CEA135518BF95EAEC
:100800000C0F0CD050EA410618BF52EA4306D1D172
:1008100081EA030101F000414FF0000070BD50EA91
:10082000410606BF1046194652EA430619D094EA1B
:100830000C0F02D150EA013613D195EA0C0F05D105
:1008400052EA03361CBF104619460AD181EA030159
:1008500001F0004141F0FE4141F470014FF0000011
:1008600070BD41F0FE4141F4780170BD70B54FF0AC
:10087000FF0C4CF4E06C1CEA11541DBF1CEA13552C
:1008800094EA0C0F95EA0C0F00F0A7F8A4EB05040E
:1008900081EA030E52EA03354FEA013100F0888005
:1008A0004FEA03334FF0805545EA131343EA1263CE
:1008B0004FEA022245EA111545EA10654FEA002683
:1008C0000EF000419D4208BF964244F1FD0404F53C
:1008D000407402D25B084FEA3202B61A65EB030598
:1008E0005B084FEA32024FF480104FF4002CB6EB55
:1008F000020E75EB030E22BFB61A754640EA0C00D5
:100900005B084FEA3202B6EB020E75EB030E22BF14
:10091000B61A754640EA5C005B084FEA3202B6EB55
:10092000020E75EB030E22BFB61A754640EA9C0014
:100930005B084FEA3202B6EB020E75EB030E22BFE4
:10094000B61A754640EADC0055EA060E18D04FEAA2
:10095000051545EA16754FEA06164FEAC30343EA42
:1009600052734FEAC2025FEA1C1CC0D111F4801F0F
:100970000BD141EA00014FF000004FF0004CB6E708
:1009800011F4801F04BF01430020B4F1FD0C88BFA7
:10099000BCF5E06F3FF6AFAEB5EB030C04BFB6EBB2
:1009A000020C5FEA500C50F1000041EB045170BDA5
:1009B0000EF0004E4EEA113114EB5C04C2BFD4EBD2
:1009C0000C0541EA045170BD41F480114FF0000E56
:1009D000013C90E645EA060E8DE60CEA135594EAD2
:1009E0000C0F08BF95EA0C0F3FF43BAF94EA0C0FD5
:1009F0000AD150EA01347FF434AF95EA0C0F7FF44A
:100A000025AF104619462CE795EA0C0F06D152EA9D
:100A100003353FF4FDAE1046194622E750EA410681
:100A200018BF52EA43067FF4C5AE50EA41047FF492
:100A30000DAF52EA43057FF4EBAE12E74FF0FF3CF7
:100A400006E000BF4FF0010C02E000BF4FF0010CC8
:100A50004DF804CD4FEA410C7FEA6C5C4FEA430C41
:100A600018BF7FEA6C5C1BD001B050EA410C0CBF90
:100A700052EA430C91EA030F02BF90EA020F0020F2
:100A8000704710F1000F91EA030F58BF994208BF59
:100A900090422CBFD8176FEAE37040F00100704716
:100AA0004FEA410C7FEA6C5C02D150EA013C07D16D
:100AB0004FEA430C7FEA6C5CD6D152EA033CD3D0B8
:100AC0005DF8040B704700BF8446104662468C46B2
:100AD0001946634600E000BF01B5FFF7B7FF0028E5
:100AE00048BF10F1000F01BD4DF808EDFFF7F4FF0E
:100AF0000CBF012000205DF808FB00BF4DF808ED99
:100B0000FFF7EAFF34BF012000205DF808FB00BFBB
:100B10004DF808EDFFF7E0FF94BF012000205DF8DD
:100B200008FB00BF4DF808EDFFF7CEFF94BF012092
:100B300000205DF808FB00BF4DF808EDFFF7C4FF8B
:100B400034BF012000205DF808FB00BF4FEA410CD4
:100B50007FEA6C5C02D150EA013C0AD14FEA430CB7
:100B60007FEA6C5C02D152EA033C02D14FF00000F4
:100B700070474FF0010070474FEA410212F5001232
:100B800015D211D56FF47873B3EB625212D94FEAD4
:100B9000C12343F0004343EA505311F0004F23FABE
:100BA00002F018BF404270474FF00000704750EA13
:100BB000013005D111F0004008BF6FF000407047D0
:100BC0004FF00000704700BF53B94AB9002908BF71
:100BD00000281CBF4FF0FF314FF0FF3000F074B918
:100BE000ADF1080C6DE904CE00F006F8DDF804E084
:100BF000DDE9022304B070472DE9F047089D044663
:100C00008E46002B4DD18A42944669D9B2FA82F2BF
:100C100052B101FA02F3C2F1200120FA01F10CFAFB
:100C200002FC41EA030E94404FEA1C48210CBEFB33
:100C3000F8F61FFA8CF708FB16E341EA034306FBBC
:100C400007F199420AD91CEB030306F1FF3080F04B
:100C50001F81994240F21C81023E63445B1AA4B298
:100C6000B3FBF8F008FB103344EA034400FB07F73A
:100C7000A7420AD91CEB040400F1FF3380F00A817B
:100C8000A74240F207816444023840EA0640E41B70
:100C900000261DB1D4400023C5E900433146BDE81C
:100CA000F0878B4209D9002D00F0EF800026C5E9BE
:100CB000000130463146BDE8F087B3FA83F6002ED6
:100CC0004AD18B4202D3824200F2F980841A61EB4E
:100CD000030301209E46002DE0D0C5E9004EDDE76C
:100CE00002B9FFDEB2FA82F2002A40F09280A1EB54
:100CF0000C014FEA1C471FFA8CFE0126200CB1FBA9
:100D0000F7F307FB131140EA01410EFB03F08842A1
:100D100008D91CEB010103F1FF3802D2884200F22E
:100D2000CB804346091AA4B2B1FBF7F007FB1011C0
:100D300044EA01440EFB00FEA64508D91CEB04045E
:100D400000F1FF3102D2A64500F2BB800846A4EBB9
:100D50000E0440EA03409CE7C6F12007B34022FAA4
:100D600007FC4CEA030C20FA07F401FA06F31C43D3
:100D7000F9404FEA1C4900FA06F3B1FBF9F8200CE0
:100D80001FFA8CFE09FB181140EA014108FB0EF026
:100D9000884202FA06F20BD91CEB010108F1FF3A76
:100DA00080F08880884240F28580A8F10208614482
:100DB000091AA4B2B1FBF9F009FB101144EA014190
:100DC00000FB0EFE8E4508D91CEB010100F1FF343B
:100DD0006CD28E456AD90238614440EA0840A0FBD3
:100DE0000294A1EB0E01A142C846A64656D353D0A9
:100DF0005DB1B3EB080261EB0E0101FA07F722FACD
:100E000006F3F1401F43C5E9007100263146BDE8F5
:100E1000F087C2F12003D8400CFA02FC21FA03F358
:100E2000914001434FEA1C471FFA8CFEB3FBF7F0D9
:100E300007FB10360B0C43EA064300FB0EF69E42FE
:100E400004FA02F408D91CEB030300F1FF382FD297
:100E50009E422DD9023863449B1B89B2B3FBF7F63F
:100E600007FB163341EA034106FB0EF38B4208D918
:100E70001CEB010106F1FF3816D28B4214D9023E59
:100E80006144C91A46EA004638E72E46284605E777
:100E90000646E3E61846F8E64B45A9D2B9EB020848
:100EA00064EB0C0E0138A3E74646EAE7204694E7D8
:100EB0004046D1E7D0467BE7023B614432E730460B
:100EC00009E76444023842E7704700BF80B500AFCD
:100ED00002F066FA00F00CF800F08EF802F0B4FAB6
:100EE00002F052FB02F050FC03F05EFDFEE7000052
:100EF00080B594B000AF07F12003302200211846DE
:100F000003F0BAFE07F10C0300221A605A609A60DF
:100F1000DA601A610023BB602B4B1B6C2A4A43F03A
:100F200080531364284B1B6C03F08053BB60BB6879
:100F300000237B60254B1B68244A43F44043136025
:100F4000224B1B6803F440437B607B6802233B62B7
:100F50000123FB6210233B630223BB630023FB637B
:100F600008233B64B4237B640223BB640423FB6437
:100F700007F12003184601F0FFF90346002B01D0CA
:100F800000F035F802F0DAF80346002B01D000F04B
:100F90002EF80F23FB6002233B6100237B614FF49B
:100FA000A053BB614FF48053FB6107F10C03052193
:100FB000184601F059FC0346002B01D000F017F849
:100FC00000BF5037BD4680BD003802400070004071
:100FD00080B582B000AF78607B681B68B3F1804F4A
:100FE00001D102F0FFF900BF0837BD4680BD80B4D3
:100FF00000AF72B600BFFEE780B58AB000AF07F160
:10100000140300221A605A609A60DA601A610023A1
:101010003B612E4B1B6B2D4A43F0010313632B4B9B
:101020001B6B03F001033B613B690023FB60274B13
:101030001B6B264A43F008031363244B1B6B03F01E
:101040000803FB60FB680023BB60204B1B6B1F4A3F
:1010500043F4807313631D4B1B6B03F48073BB60FD
:10106000BB6800237B60194B1B6B184A43F01003CD
:101070001363164B1B6B03F010037B607B6800232C
:101080003B60124B1B6B114A43F0200313630F4B61
:101090001B6B03F020033B603B6800224FF4804150
:1010A0000B4801F09FFF4FF480437B610123BB613C
:1010B0000023FB6100233B6207F114031946044837
:1010C00001F0E4FD00BF2837BD4680BD0038024076
:1010D0000014024080B400AFFEE780B400AFFEE72A
:1010E00080B400AFFEE780B400AFFEE780B400AF8D
:1010F000FEE780B400AF00BFBD465DF8047B7047DB
:1011000080B500AF024800F08BFA00BF80BD00BF81
:101110000002002080B500AF024802F0BFFC00BF13
:1011200080BD00BFDC02002080B483B000AF00238C
:101130007B60104B5B6C0F4A43F4804353640D4B50
:101140005B6C03F480437B607B6800233B60094B4E
:101150001B6C084A43F080531364064B1B6C03F06E
:1011600080533B603B6800BF0C37BD465DF8047B95
:10117000704700BF0038024080B58EB000AF786085
:101180000023FB620023BB620023FB60344B1B6C1B
:10119000334A43F001031364314B1B6C03F001032A
:1011A000FB60FB6807F1100207F1140311461846B3
:1011B00001F03AFD3B6AFB62FB6A002B03D101F0B0
:1011C0000BFD786304E001F007FD03465B007B63E1
:1011D0007B6B244AA2FB03239B0C013BBB62224B8B
:1011E0004FF080421A60204B40F2E732DA601E4A2C
:1011F000BB6A53601C4B00221A611B4B00229A6091
:10120000194B00229A61184800F032F8034687F81B
:10121000333097F83330002B1BD1134800F078F8A7
:10122000034687F8333097F83330002B11D11C2058
:1012300002F0A8F87B680F2B08D8002279681C20E0
:1012400002F084F8094A7B68136002E0012387F802
:10125000333097F8333018463837BD4680BD00BF6D
:101260000038024083DE1B43000200200000002003
:1012700080B582B000AF78607B68002B01D101237C
:1012800041E07B6893F83D30DBB2002B06D17B68F0
:10129000002283F83C20786802F0D0F97B680222B3
:1012A00083F83D207B681A687B6804331946104632
:1012B00000F070FC7B68012283F846207B680122E5
:1012C00083F83E207B68012283F83F207B6801225F
:1012D00083F840207B68012283F841207B6801224B
:1012E00083F842207B68012283F843207B68012237
:1012F00083F844207B68012283F845207B68012223
:1013000083F83D20002318460837BD4680BD000005
:1013100080B485B000AF78607B6893F83D30DBB275
:10132000012B01D001234EE07B68022283F83D208F
:101330007B681B68DA687B681B6842F00102DA6030
:101340007B681B68234A934222D07B681B68B3F1F9
:10135000804F1DD07B681B681F4A934218D07B6862
:101360001B681E4A934213D07B681B681C4A934239
:101370000ED07B681B681B4A934209D07B681B68B0
:10138000194A934204D07B681B68184A934211D1D2
:101390007B681B689B6803F00703FB60FB68062BF8
:1013A00010D07B681B681A687B681B6842F00102DA
:1013B0001A6007E07B681B681A687B681B6842F04C
:1013C00001021A60002318461437BD465DF8047BFD
:1013D000704700BF000001400004004000080040CA
:1013E000000C004000040140004001400018004093
:1013F00080B582B000AF78607B68002B01D10123FB
:1014000041E07B6893F83D30DBB2002B06D17B686E
:10141000002283F83C20786802F032F97B680222CF
:1014200083F83D207B681A687B68043319461046B0
:1014300000F0B0FB7B68012283F846207B68012224
:1014400083F83E207B68012283F83F207B680122DD
:1014500083F840207B68012283F841207B680122C9
:1014600083F842207B68012283F843207B680122B5
:1014700083F844207B68012283F845207B680122A1
:1014800083F83D20002318460837BD4680BD000084
:1014900080B584B000AF786039603B68002B09D11B
:1014A0007B6893F83E30DBB2012B14BF012300238D
:1014B000DBB222E03B68042B09D17B6893F83F3014
:1014C000DBB2012B14BF01230023DBB215E03B6824
:1014D000082B09D17B6893F84030DBB2012B14BF95
:1014E00001230023DBB208E07B6893F84130DBB2D4
:1014F000012B14BF01230023DBB2002B01D00123F9
:101500007CE03B68002B04D17B68022283F83E20FC
:1015100013E03B68042B04D17B68022283F83F2050
:101520000BE03B68082B04D17B68022283F8402043
:1015300003E07B68022283F841207B681B6801225C
:101540003968184600F010FE7B681B682D4A9342EC
:1015500004D07B681B682C4A934201D1012300E030
:101560000023002B07D07B681B685A6C7B681B68C4
:1015700042F400425A647B681B68224A934222D09C
:101580007B681B68B3F1804F1DD07B681B681F4AC6
:10159000934218D07B681B681D4A934213D07B6826
:1015A0001B681C4A93420ED07B681B68164A934204
:1015B00009D07B681B68184A934204D07B681B687B
:1015C000164A934211D17B681B689B6803F007039E
:1015D000FB60FB68062B10D07B681B681A687B6871
:1015E0001B6842F001021A6007E07B681B681A68FA
:1015F0007B681B6842F001021A600023184610370E
:10160000BD4680BD000001400004014000040040D0
:1016100000080040000C004000400140001800405D
:1016200080B582B000AF78607B681B681B6903F0EF
:101630000203022B22D17B681B68DB6803F00203E4
:10164000022B1BD17B681B686FF002021A617B685A
:1016500001221A777B681B689B6903F00303002B48
:1016600003D0786800F077FA05E0786800F069FA4E
:10167000786800F07AFA7B6800221A777B681B682A
:101680001B6903F00403042B22D17B681B68DB6811
:1016900003F00403042B1BD17B681B686FF004026A
:1016A0001A617B6802221A777B681B689B6903F4C6
:1016B0004073002B03D0786800F04DFA05E078689D
:1016C00000F03FFA786800F050FA7B6800221A7741
:1016D0007B681B681B6903F00803082B22D17B6819
:1016E0001B68DB6803F00803082B1BD17B681B68B1
:1016F0006FF008021A617B6804221A777B681B6806
:10170000DB6903F00303002B03D0786800F023FAB1
:1017100005E0786800F015FA786800F026FA7B6832
:1017200000221A777B681B681B6903F01003102BDB
:1017300022D17B681B68DB6803F01003102B1BD1E0
:101740007B681B686FF010021A617B6808221A77A9
:101750007B681B68DB6903F44073002B03D0786857
:1017600000F0F9F905E0786800F0EBF9786800F02E
:10177000FCF97B6800221A777B681B681B6903F001
:101780000103012B0ED17B681B68DB6803F00103AA
:10179000012B07D17B681B686FF001021A61786822
:1017A000FFF716FC7B681B681B6903F08003802B26
:1017B0000ED17B681B68DB6803F08003802B07D1A8
:1017C0007B681B686FF080021A61786800F0CAFDC0
:1017D0007B681B681B6903F04003402B0ED17B68BC
:1017E0001B68DB6803F04003402B07D17B681B6854
:1017F0006FF040021A61786800F0C1F97B681B68DD
:101800001B6903F02003202B0ED17B681B68DB686B
:1018100003F02003202B07D17B681B686FF02002A8
:101820001A61786800F094FD00BF0837BD4680BD9E
:1018300080B586B000AFF860B9607A600023FB75B0
:10184000FB6893F83C30012B01D10223AEE0FB682A
:10185000012283F83C207B680C2B00F29F8001A2C0
:1018600052F823F0991800089D1900089D190008E6
:101870009D190008D91800089D1900089D19000835
:101880009D1900081B1900089D1900089D190008E2
:101890009D1900085B190008FB681B68B9681846A9
:1018A00000F018FAFB681B689A69FB681B6842F035
:1018B00008029A61FB681B689A69FB681B6822F042
:1018C00004029A61FB681B689969BB681A69FB6826
:1018D0001B680A439A6164E0FB681B68B968184694
:1018E00000F068FAFB681B689A69FB681B6842F4A1
:1018F00000629A61FB681B689A69FB681B6822F4A6
:1019000080629A61FB681B689969BB681B691A024F
:10191000FB681B680A439A6143E0FB681B68B9686F
:10192000184600F0BDFAFB681B68DA69FB681B68A3
:1019300042F00802DA61FB681B68DA69FB681B6821
:1019400022F00402DA61FB681B68D969BB681A6976
:10195000FB681B680A43DA6123E0FB681B68B9680F
:10196000184600F011FBFB681B68DA69FB681B680E
:1019700042F40062DA61FB681B68DA69FB681B6885
:1019800022F48062DA61FB681B68D969BB681B6955
:101990001A02FB681B680A43DA6102E00123FB7547
:1019A00000BFFB68002283F83C20FB7D18461837F7
:1019B000BD4680BD80B584B000AF7860396000233B
:1019C000FB737B6893F83C30012B01D10223B4E018
:1019D0007B68012283F83C207B68022283F83D204B
:1019E0007B681B689B68BB60BB6823F07703BB60A8
:1019F000BB6823F47F43BB607B681B68BA689A604E
:101A00003B681B68B3F5005F3ED0B3F5005F00F2A2
:101A10008780B3F5805F00F08680B3F5805F7FD864
:101A2000702B1AD0702B7BD8602B50D0602B77D8BE
:101A3000502B3CD0502B73D8402B58D0402B6FD814
:101A4000302B64D0302B6BD8202B60D0202B67D864
:101A5000002B5CD0102B5AD062E07B6818683B6882
:101A600099683B685A683B68DB6800F05DFB7B68FF
:101A70001B689B68BB60BB6843F07703BB607B68F7
:101A80001B68BA689A604FE07B6818683B68996881
:101A90003B685A683B68DB6800F046FB7B681B6864
:101AA0009A687B681B6842F480429A603CE07B68DD
:101AB00018683B6859683B68DB681A4600F0BAFA58
:101AC0007B681B685021184600F013FB2CE07B68F4
:101AD00018683B6859683B68DB681A4600F0D9FA19
:101AE0007B681B686021184600F003FB1CE07B68E4
:101AF00018683B6859683B68DB681A4600F09AFA38
:101B00007B681B684021184600F0F3FA0CE07B6804
:101B10001A683B681B681946104600F0EAFA03E0B1
:101B20000123FB7300E000BF7B68012283F83D20A6
:101B30007B68002283F83C20FB7B18461037BD46AB
:101B400080BD80B483B000AF786000BF0C37BD4665
:101B50005DF8047B704780B483B000AF786000BF4D
:101B60000C37BD465DF8047B704780B483B000AF8E
:101B7000786000BF0C37BD465DF8047B704780B4C9
:101B800083B000AF786000BF0C37BD465DF8047BC2
:101B90007047000080B485B000AF786039607B6822
:101BA0001B68FB607B68404A934213D07B68B3F1AB
:101BB000804F0FD07B683D4A93420BD07B683C4AF4
:101BC000934207D07B683B4A934203D07B683A4AF2
:101BD000934208D1FB6823F07003FB603B685B68AD
:101BE000FA681343FB607B682F4A93422BD07B68D3
:101BF000B3F1804F27D07B682C4A934223D07B6877
:101C00002B4A93421FD07B682A4A93421BD07B68A1
:101C1000294A934217D07B68284A934213D07B68A5
:101C2000274A93420FD07B68264A93420BD07B68A9
:101C3000254A934207D07B68244A934203D07B68AD
:101C4000234A934208D1FB6823F44073FB603B684E
:101C5000DB68FA681343FB60FB6823F080023B6893
:101C60005B691343FB607B68FA681A603B689A689B
:101C70007B68DA623B681A687B689A627B680A4A0A
:101C8000934203D07B680C4A934203D13B681A69A4
:101C90007B681A637B6801225A6100BF1437BD4616
:101CA0005DF8047B704700BF000001400004004065
:101CB00000080040000C00400004014000400140CA
:101CC000004401400048014000180040001C004052
:101CD0000020004080B487B000AF786039607B6836
:101CE0001B6A23F001027B681A627B681B6A7B61B6
:101CF0007B685B683B617B689B69FB60FB6823F0EA
:101D00007003FB60FB6823F00303FB603B681B6808
:101D1000FA681343FB607B6923F002037B613B6835
:101D20009B687A6913437B617B68204A934203D0A6
:101D30007B681F4A93420CD17B6923F008037B61C7
:101D40003B68DB687A6913437B617B6923F004039A
:101D50007B617B68154A934203D07B68144A9342A7
:101D600011D13B6923F480733B613B6923F4007319
:101D70003B613B685B693A6913433B613B689B6924
:101D80003A6913433B617B683A695A607B68FA6839
:101D90009A613B685A687B685A637B687A691A6201
:101DA00000BF1C37BD465DF8047B70470000014052
:101DB0000004014080B487B000AF786039607B6870
:101DC0001B6A23F010027B681A627B681B6A7B61C6
:101DD0007B685B683B617B689B69FB60FB6823F405
:101DE000E043FB60FB6823F44073FB603B681B68C7
:101DF0001B02FA681343FB607B6923F020037B61BD
:101E00003B689B681B017A6913437B617B68224AAC
:101E1000934203D07B68214A93420DD17B6923F022
:101E200080037B613B68DB681B017A6913437B613C
:101E30007B6923F040037B617B68174A934203D0A0
:101E40007B68164A934213D13B6923F480633B615C
:101E50003B6923F400633B613B685B699B003A6923
:101E600013433B613B689B699B003A6913433B61A9
:101E70007B683A695A607B68FA689A613B685A687D
:101E80007B689A637B687A691A6200BF1C37BD461B
:101E90005DF8047B704700BF000001400004014072
:101EA00080B487B000AF786039607B681B6A23F428
:101EB00080727B681A627B681B6A7B617B685B68E7
:101EC0003B617B68DB69FB60FB6823F07003FB60B0
:101ED000FB6823F00303FB603B681B68FA6813434D
:101EE000FB607B6923F400737B613B689B681B028A
:101EF0007A6913437B617B68214A934203D07B68F4
:101F0000204A93420DD17B6923F400637B613B68D7
:101F1000DB681B027A6913437B617B6923F480636E
:101F20007B617B68164A934203D07B68154A9342D3
:101F300013D13B6923F480533B613B6923F4005385
:101F40003B613B685B691B013A6913433B613B683A
:101F50009B691B013A6913433B617B683A695A608C
:101F60007B68FA68DA613B685A687B68DA637B6889
:101F70007A691A6200BF1C37BD465DF8047B704762
:101F8000000001400004014080B487B000AF7860D9
:101F900039607B681B6A23F480527B681A627B6815
:101FA0001B6A3B617B685B687B617B68DB69FB600C
:101FB000FB6823F4E043FB60FB6823F44073FB60A1
:101FC0003B681B681B02FA681343FB603B6923F400
:101FD00000533B613B689B681B033A6913433B61B9
:101FE0007B68124A934203D07B68114A934209D11D
:101FF0007B6923F480437B613B685B699B017A6961
:1020000013437B617B687A695A607B68FA68DA619E
:102010003B685A687B681A647B683A691A6200BF39
:102020001C37BD465DF8047B704700BF00000140CF
:102030000004014080B487B000AFF860B9607A60F6
:10204000FB681B6A7B61FB681B6A23F00102FB686B
:102050001A62FB689B693B613B6923F0F0033B61BB
:102060007B681B013A6913433B617B6923F00A03D8
:102070007B617A69BB6813437B61FB683A699A614B
:10208000FB687A691A6200BF1C37BD465DF8047BA5
:10209000704780B487B000AFF860B9607A60FB68C1
:1020A0001B6A23F01002FB681A62FB689B697B6164
:1020B000FB681B6A3B617B6923F470437B617B682F
:1020C0001B037A6913437B613B6923F0A0033B61E7
:1020D000BB681B013A6913433B61FB687A699A61EB
:1020E000FB683A691A6200BF1C37BD465DF8047B85
:1020F000704780B485B000AF786039607B689B68BA
:10210000FB60FB6823F07003FB603A68FB681343D5
:1021100043F00703FB607B68FA689A6000BF1437DE
:10212000BD465DF8047B704780B487B000AFF860AF
:10213000B9607A603B60FB689B687B617B6923F4D4
:102140007F437B613B681A027B681A43BB68134379
:102150007A6913437B61FB687A699A6000BF1C3718
:10216000BD465DF8047B704780B487B000AFF8606F
:10217000B9607A60BB6803F01F03012202FA03F31F
:102180007B61FB681A6A7B69DB431A40FB681A6251
:10219000FB681A6ABB6803F01F03796801FA03F34E
:1021A0001A43FB681A6200BF1C37BD465DF8047B0A
:1021B0007047000080B485B000AF786039607B68FC
:1021C00093F83C30012B01D102235AE07B680122B5
:1021D00083F83C207B68022283F83D207B681B68E3
:1021E0005B68FB607B681B689B68BB60FB6823F0D7
:1021F0007003FB603B681B68FA681343FB607B68F5
:102200001B68FA685A607B681B68214A934222D097
:102210007B681B68B3F1804F1DD07B681B681D4A2B
:10222000934218D07B681B681B4A934213D07B688B
:102230001B681A4A93420ED07B681B68184A934267
:1022400009D07B681B68174A934204D07B681B68DF
:10225000154A93420CD1BB6823F08003BB603B68F6
:102260005B68BA681343BB607B681B68BA689A6096
:102270007B68012283F83D207B68002283F83C20A4
:10228000002318461437BD465DF8047B704700BF35
:10229000000001400004004000080040000C004025
:1022A00000040140004001400018004080B485B0A7
:1022B00000AF786039600023FB607B6893F83C30A6
:1022C000012B01D102233DE07B68012283F83C20F1
:1022D000FB6823F0FF023B68DB681343FB60FB688D
:1022E00023F440723B689B681343FB60FB6823F454
:1022F00080623B685B681343FB60FB6823F4006209
:102300003B681B681343FB60FB6823F480523B6807
:102310001B691343FB60FB6823F400523B685B6955
:102320001343FB60FB6823F480423B68DB69134383
:10233000FB607B681B68FA685A647B68002283F83C
:102340003C20002318461437BD465DF8047B7047D7
:1023500080B483B000AF786000BF0C37BD465DF835
:10236000047B704780B483B000AF786000BF0C3747
:10237000BD465DF8047B704780B586B000AF7860DD
:102380007B68002B01D1012367E27B681B6803F0A7
:102390000103002B75D0884B9B6803F00C03042BC2
:1023A0000CD0854B9B6803F00C03082B12D1824B99
:1023B0005B6803F48003B3F5800F0BD17E4B1B6881
:1023C00003F40033002B5BD07B685B68002B57D194
:1023D000012342E27B685B68B3F5803F06D1764B10
:1023E0001B68754A43F4803313601DE07B685B68AB
:1023F000B3F5A02F0CD1704B1B686F4A43F48023B8
:1024000013606D4B1B686C4A43F4803313600BE020
:10241000694B1B68684A23F480331360664B1B6862
:10242000654A23F4802313607B685B68002B13D01C
:1024300000F0ECFF386108E000F0E8FF02463B697D
:10244000D31A642B01D9032307E25B4B1B6803F407
:102450000033002BF0D014E000F0D8FF386108E022
:1024600000F0D4FF02463B69D31A642B01D9032341
:10247000F3E1514B1B6803F40033002BF0D100E073
:1024800000BF7B681B6803F00203002B63D04A4B3C
:102490009B6803F00C03002B0BD0474B9B6803F0A9
:1024A0000C03082B1CD1444B5B6803F48003002B06
:1024B00016D1414B1B6803F00203002B05D07B684B
:1024C000DB68012B01D00123C7E13B4B1B6823F0E4
:1024D000F8027B681B69DB00374913430B603AE065
:1024E0007B68DB68002B20D0344B01221A6000F09F
:1024F0008DFF386108E000F089FF02463B69D31A7E
:10250000022B01D90323A8E12B4B1B6803F0020324
:10251000002BF0D0284B1B6823F0F8027B681B6966
:10252000DB00254913430B6015E0244B00221A60A1
:1025300000F06CFF386108E000F068FF02463B697C
:10254000D31A022B01D9032387E11B4B1B6803F02D
:102550000203002BF0D17B681B6803F00803002BFB
:1025600036D07B685B69002B16D0154B01221A60B0
:1025700000F04CFF386108E000F048FF02463B697C
:10258000D31A022B01D9032367E10B4B5B6F03F0D6
:102590000203002BF0D01BE0094B00221A6000F070
:1025A00035FF38610EE000F031FF02463B69D31A77
:1025B000022B07D9032350E10038024000004742B4
:1025C000800E4742884B5B6F03F00203002BEAD179
:1025D0007B681B6803F00403002B00F09780002346
:1025E000FB75814B1B6C03F08053002B0FD1002334
:1025F000BB607D4B1B6C7C4A43F0805313647A4B69
:102600001B6C03F08053BB60BB680123FB75774BE9
:102610001B6803F48073002B18D1744B1B68734A3A
:1026200043F48073136000F0F1FE386108E000F0BD
:10263000EDFE02463B69D31A022B01D903230CE1BC
:102640006A4B1B6803F48073002BF0D07B689B6897
:10265000012B06D1644B1B6F634A43F001031367E0
:102660001CE07B689B68052B0CD15F4B1B6F5E4A9F
:1026700043F0040313675C4B1B6F5B4A43F0010399
:1026800013670BE0584B1B6F574A23F00103136786
:10269000554B1B6F544A23F0040313677B689B68F8
:1026A000002B15D000F0B2FE38610AE000F0AEFE5B
:1026B00002463B69D31A41F28832934201D903237F
:1026C000CBE0494B1B6F03F00203002BEED014E06C
:1026D00000F09CFE38610AE000F098FE02463B697B
:1026E000D31A41F28832934201D90323B5E03E4B1D
:1026F0001B6F03F00203002BEED1FB7D012B05D1F4
:10270000394B1B6C384A23F0805313647B689B69F8
:10271000002B00F0A180344B9B6803F00C03082BC6
:102720005CD07B689B69022B41D1314B00221A603F
:1027300000F06CFE386108E000F068FE02463B697C
:10274000D31A022B01D9032387E0274B1B6803F020
:102750000073002BF0D17B68DA697B681B6A1A432F
:102760007B685B6A9B011A437B689B6A5B08013B41
:102770001B041A437B68DB6A1B061B4913434B602F
:102780001B4B01221A6000F041FE386108E000F0A6
:102790003DFE02463B69D31A022B01D903235CE0BC
:1027A000114B1B6803F00073002BF0D054E0104B6A
:1027B00000221A6000F02AFE386108E000F026FED0
:1027C00002463B69D31A022B01D9032345E0064B8D
:1027D0001B6803F00073002BF0D13DE07B689B6920
:1027E000012B07D1012338E000380240007000407F
:1027F000600047421B4B5B68FB607B689B69012B59
:1028000028D0FB6803F480027B68DB699A4221D1FF
:10281000FB6803F03F027B681B6A9A421AD1FA6890
:1028200047F6C07313407A68526A9201934211D1FD
:10283000FB6803F440327B689B6A5B08013B1B0426
:102840009A4207D1FB6803F070627B68DB6A1B0663
:102850009A4201D0012300E0002318461837BD46F4
:1028600080BD00BF0038024080B584B000AF786002
:1028700039607B68002B01D10123CCE0684B1B68D9
:1028800003F00F033A689A420CD9654B3A68D2B20A
:102890001A70634B1B6803F00F033A689A4201D029
:1028A0000123B8E07B681B6803F00203002B20D0F3
:1028B0007B681B6803F00403002B05D0594B9B6811
:1028C000584A43F4E05393607B681B6803F00803A5
:1028D000002B05D0534B9B68524A43F460439360EE
:1028E000504B9B6823F0F0027B689B684D49134373
:1028F0008B607B681B6803F00103002B44D07B686E
:102900005B68012B07D1474B1B6803F40033002B96
:1029100019D101237FE07B685B68022B03D07B68C1
:102920005B68032B07D13F4B1B6803F00073002B40
:1029300009D101236FE03B4B1B6803F00203002B1E
:1029400001D1012367E0374B9B6823F003027B68CA
:102950005B68344913438B6000F058FDF8600AE06F
:1029600000F054FD0246FB68D31A41F288329342CC
:1029700001D903234FE02B4B9B6803F00C027B68CB
:102980005B689B009A42EBD1254B1B6803F00F0359
:102990003A689A420CD2224B3A68D2B21A70204B53
:1029A0001B6803F00F033A689A4201D0012332E01A
:1029B0007B681B6803F00403002B08D0194B9B684D
:1029C00023F4E0527B68DB68164913438B607B6815
:1029D0001B6803F00803002B09D0124B9B6823F4FB
:1029E00060427B681B69DB000E4913438B6000F07B
:1029F00021F802460B4B9B681B0903F00F030A49A1
:102A0000CB5C22FA03F3094A1360094B1B68184692
:102A1000FEF7B2FB002318461037BD4680BD00BF4D
:102A2000003C024000380240449A000808000020A0
:102A3000000000202DE9B04F90B000AF00237B6371
:102A40000023FB6300233B630023BB63594B9B685C
:102A500003F00C03082B0DD0082B00F2A180002BF3
:102A600002D0042B03D09BE0534BBB639BE0534B42
:102A7000BB6398E04F4B5B6803F03F037B634D4BB8
:102A80005B6803F48003002B28D04A4B5B689B09EA
:102A900000223B627A623B6AC3F308000021474B85
:102AA00003FB01F2002300FB03F31344434AA0FBA2
:102AB0000212FA620A46BA62FA6A1344FB627B6B3C
:102AC0000022BB61FA61D7E90623D7E90A01FEF7C4
:102AD0007BF802460B461346FB6353E0354B5B68BD
:102AE0009B0900223B617A613B69C3F3080A4FF0FE
:102AF000000B52465B464FF000004FF000015901B9
:102B000041EAD261500102460B46B2EB0A0863EB80
:102B10000B094FF000024FF000034FEA891343EA1C
:102B200098634FEA8812B2EB080463EB09054FF093
:102B300000024FF00003EB0043EA5473E200144636
:102B40001D4614EB0A033B6045EB0B037B604FF023
:102B500000024FF00003D7E9004529468B022146C9
:102B600043EA915321468A02104619467B6B0022A4
:102B7000BB60FA60D7E90223FEF726F802460B464F
:102B80001346FB630B4B5B681B0C03F00303013321
:102B90005B003B63FA6B3B6BB2FBF3F3BB6302E09E
:102BA000054BBB6300BFBB6B18464037BD46BDE855
:102BB000B08F00BF003802400024F40040787D014F
:102BC00080B400AF034B1B681846BD465DF8047B1C
:102BD000704700BF0800002080B500AFFFF7F0FF8E
:102BE0000246054B9B689B0A03F007030349CB5C35
:102BF00022FA03F3184680BD00380240549A0008B8
:102C000080B500AFFFF7DCFF0246054B9B685B0B0E
:102C100003F007030349CB5C22FA03F3184680BD97
:102C200000380240549A000880B483B000AF786046
:102C300039607B680F221A60124B9B6803F0030215
:102C40007B685A600F4B9B6803F0F0027B689A60C8
:102C50000C4B9B6803F4E0527B68DA60094B9B687D
:102C6000DB0803F4E0527B681A61074B1B6803F032
:102C70000F023B681A6000BF0C37BD465DF8047B4D
:102C8000704700BF00380240003C024080B489B069
:102C900000AF7860396000237B6100233B61002333
:102CA000BB610023FB6177E10122FB6902FA03F3B8
:102CB0007B613B681B687A6913403B613A697B69B9
:102CC0009A4240F066813B685B6803F00303012B86
:102CD00005D03B685B6803F00303022B30D17B68AF
:102CE0009B68BB61FB695B00032202FA03F3DB43D1
:102CF000BA691340BB613B68DA68FB695B0002FAA2
:102D000003F3BA691343BB617B68BA699A607B6855
:102D10005B68BB610122FB6902FA03F3DB43BA691A
:102D20001340BB613B685B681B0903F00102FB6950
:102D300002FA03F3BA691343BB617B68BA695A604C
:102D40003B685B6803F00303032B17D07B68DB68E9
:102D5000BB61FB695B00032202FA03F3DB43BA6940
:102D60001340BB613B689A68FB695B0002FA03F39E
:102D7000BA691343BB617B68BA69DA603B685B6818
:102D800003F00303022B23D1FB69DA087B680832C6
:102D900053F82230BB61FB6903F007039B000F224D
:102DA00002FA03F3DB43BA691340BB613B681A695B
:102DB000FB6903F007039B0002FA03F3BA691343AC
:102DC000BB61FB69DA087B680832B96943F82210F5
:102DD0007B681B68BB61FB695B00032202FA03F39B
:102DE000DB43BA691340BB613B685B6803F00302D5
:102DF000FB695B0002FA03F3BA691343BB617B68AA
:102E0000BA691A603B685B6803F44033002B00F03A
:102E1000C0800023FB60664B5B6C654A43F48043D3
:102E20005364634B5B6C03F48043FB60FB68614A53
:102E3000FB699B08023352F82330BB61FB6903F046
:102E400003039B000F2202FA03F3DB43BA6913402A
:102E5000BB617B68584A934237D07B68574A93429C
:102E600031D07B68564A93422BD07B68554A9342B7
:102E700025D07B68544A93421FD07B68534A9342C3
:102E800019D07B68524A934213D07B68514A9342CF
:102E90000DD07B68504A934207D07B684F4A9342DB
:102EA00001D1092312E00A2310E008230EE00723D2
:102EB0000CE006230AE0052308E0042306E00323D0
:102EC00004E0022302E0012300E00023FA6902F09B
:102ED000030292009340BA691343BB613549FB6911
:102EE0009B080233BA6941F823203D4B9B68BB61C4
:102EF0003B69DB43BA691340BB613B685B6803F421
:102F00008013002B03D0BA693B691343BB61344A79
:102F1000BB699360324BDB68BB613B69DB43BA69D9
:102F20001340BB613B685B6803F40013002B03D0C4
:102F3000BA693B691343BB61294ABB69D360284B1B
:102F40005B68BB613B69DB43BA691340BB613B68AB
:102F50005B6803F40033002B03D0BA693B69134369
:102F6000BB611F4ABB6953601D4B1B68BB613B695A
:102F7000DB43BA691340BB613B685B6803F4803391
:102F8000002B03D0BA693B691343BB61144ABB6988
:102F90001360FB690133FB61FB690F2B7FF684AE85
:102FA00000BF00BF2437BD465DF8047B704700BFFB
:102FB0000038024000380140000002400004024096
:102FC00000080240000C02400010024000140240C1
:102FD00000180240001C0240002002400024024071
:102FE000003C014080B483B000AF78600B467B802A
:102FF00013467B707B78002B03D07A887B689A61BC
:1030000003E07B881A047B689A6100BF0C37BD46D9
:103010005DF8047B704780B584B000AF78607B6852
:103020009B6DFB6000F0F2F9B8607B6893F8353077
:10303000DBB2022B08D07B6880225A657B680022B5
:1030400083F83420012352E07B681B681A687B6890
:103050001B6822F016021A607B681B685A697B683D
:103060001B6822F080025A617B681B6C002B03D125
:103070007B689B6C002B07D07B681B681A687B6899
:103080001B6822F008021A607B681B681A687B685C
:103090001B6822F001021A6013E000F0B7F9024643
:1030A000BB68D31A052B0CD97B6820225A657B6834
:1030B000032283F835207B68002283F83420032321
:1030C00015E07B681B681B6803F00103002BE4D14B
:1030D0007B68DB6D3F229A40FB689A607B68012227
:1030E00083F835207B68002283F8342000231846BB
:1030F0001037BD4680BD80B483B000AF78607B6878
:1031000093F83530DBB2022B04D07B6880225A65FD
:1031100001230CE07B68052283F835207B681B685F
:103120001A687B681B6822F001021A6000231846A7
:103130000C37BD465DF8047B7047000080B582B057
:1031400000AF00237B6000233B60204B1B6C1F4AB9
:1031500043F0805313641D4B1B6C03F080533B60A2
:103160003B681B4B01221A6000F050F9786009E0BF
:1031700000F04CF902467B68D31AB3F57A7F01D987
:1031800003231FE0134B5B6803F48033B3F5803FE8
:10319000EED1114B01221A6000F038F9786009E095
:1031A00000F034F902467B68D31AB3F57A7F01D96F
:1031B000032307E0074B5B6803F40033B3F5003FDC
:1031C000EED1002318460837BD4680BD00380240C6
:1031D00040000E420070004044000E4280B485B0B2
:1031E00000AF78607B6803F00703FB600C4BDB6883
:1031F000BB60BA684FF6FF031340BB60FB681A025E
:10320000BB68134343F0BF6343F40033BB60044A1D
:10321000BB68D36000BF1437BD465DF8047B7047C0
:1032200000ED00E080B400AF044BDB681B0A03F044
:1032300007031846BD465DF8047B704700ED00E0CB
:1032400080B483B000AF0346FB7197F90730002BC1
:103250000BDBFB7903F01F02074997F907305B0985
:10326000012000FA02F241F8232000BF0C37BD46CE
:103270005DF8047B704700BF00E100E080B483B0DC
:1032800000AF03463960FB7197F90730002B0ADB6A
:103290003B68DAB20C4997F907301201D2B20B44FD
:1032A00083F800230AE03B68DAB20849FB7903F0AF
:1032B0000F03043B1201D2B20B441A7600BF0C3745
:1032C000BD465DF8047B704700E100E000ED00E0E2
:1032D00080B489B000AFF860B9607A60FB6803F031
:1032E0000703FB61FB69C3F10703042B28BF042319
:1032F000BB61FB690433062B02D9FB69033B00E089
:1033000000237B614FF0FF32BB6902FA03F3DA431B
:10331000BB681A407B699A404FF0FF317B6901FA24
:1033200003F3D9437B680B40134318462437BD464B
:103330005DF8047B704780B582B000AF7860786834
:10334000FFF74CFF00BF0837BD4680BD80B586B093
:1033500000AF0346B9607A60FB7300237B61FFF71F
:1033600061FF78617A68B9687869FFF7B1FF024652
:1033700097F90F3011461846FFF780FF00BF183746
:10338000BD4680BD80B582B000AF0346FB7197F9A2
:1033900007301846FFF754FF00BF0837BD4680BD11
:1033A00080B500AF0E4B1B680D4A43F400731360E9
:1033B0000B4B1B680A4A43F480631360084B1B687D
:1033C000074A43F4807313600320FFF7B4FF0F2014
:1033D000FDF7D2FEFDF7A8FE0023184680BD00BF12
:1033E000003C024080B400AF064B1B781A46064BE7
:1033F0001B681344044A136000BFBD465DF8047B9C
:10340000704700BF040000204802002080B400AFD5
:10341000034B1B681846BD465DF8047B704700BF30
:103420004802002080B400AF064BD3F88830054A2C
:1034300043F47003C2F8883000BFBD465DF8047BDA
:10344000704700BF00ED00E080B596B000AF07F117
:10345000480300221A605A609A60DA6007F140035C
:1034600000221A605A6007F1240300221A605A6091
:103470009A60DA601A615A619A613B1D202200212C
:10348000184601F0F9FB3E4B3E4A1A603C4BB32212
:103490005A603B4B00229A60394B40F2E732DA60C7
:1034A000374B00221A61364B00225A61344B80227E
:1034B0009A613348FDF7DCFE0346002B01D0FDF78F
:1034C00096FD4FF48053BB6407F1480319462C481E
:1034D000FEF770FA0346002B01D0FDF788FD28485F
:1034E000FDF786FF0346002B01D0FDF780FD00238A
:1034F0003B6400237B6407F1400319462048FEF734
:1035000059FE0346002B01D0FDF771FD60237B625D
:103510000023BB620223FB6200233B6300237B6327
:103520000023BB630023FB6307F124030422194635
:103530001348FEF77DF90346002B01D0FDF757FD38
:1035400000237B600023BB600023FB6000233B6102
:1035500000237B614FF40053BB6100233B623B1DA2
:1035600019460748FEF7A2FE0346002B01D0FDF7DF
:103570003EFD034800F0A6F800BF5837BD4680BDA9
:103580004C0200200000014080B58AB000AF07F176
:10359000200300221A605A603B1D00221A605A6004
:1035A0009A60DA601A615A619A61224B224A1A6063
:1035B000204BB3225A601F4B00229A601D4B40F2F1
:1035C000CF72DA601B4B00221A611A4B80229A617B
:1035D0001848FDF70DFF0346002B01D0FDF707FD4E
:1035E00000233B6200237B6207F120031946114848
:1035F000FEF7E0FD0346002B01D0FDF7F8FC602349
:103600007B600023BB600023FB6000237B613B1DCC
:103610000C2219460748FEF70BF90346002B01D090
:10362000FDF7E5FC034800F04DF800BF2837BD4624
:1036300080BD00BF94020020000C004080B485B023
:1036400000AF78607B681B680B4A93420DD1002362
:10365000FB600A4B5B6C094A43F001035364074B60
:103660005B6C03F00103FB60FB6800BF1437BD46D1
:103670005DF8047B704700BF000001400038024045
:1036800080B485B000AF78607B681B680B4A9342BA
:103690000DD10023FB600A4B1B6C094A43F0080361
:1036A0001364074B1B6C03F00803FB60FB6800BF4F
:1036B0001437BD465DF8047B704700BF000C004026
:1036C0000038024080B58AB000AF786007F114037B
:1036D00000221A605A609A60DA601A617B681B687F
:1036E000244A93421FD100233B61234B1B6B224A88
:1036F00043F010031363204B1B6B03F010033B617B
:103700003B694FF400637B610223BB610023FB61D3
:1037100000233B6201237B6207F11403194617481B
:10372000FFF7B4FA22E07B681B68154A93421DD16B
:103730000023FB60104B1B6B0F4A43F48073136331
:103740000D4B1B6B03F48073FB60FB6801237B61F3
:103750000223BB610023FB6100233B6202237B62E7
:1037600007F1140319460748FFF790FA00BF2837FE
:10377000BD4680BD000001400038024000100240FC
:10378000000C00400020024080B500AF114B124AEF
:103790001A60104B4FF4E1325A600E4B00229A60CF
:1037A0000C4B0022DA600B4B00221A61094B0C22F1
:1037B0005A61084B00229A61064B0022DA610548E3
:1037C00000F05CF80346002B01D0FDF710FC00BFB1
:1037D00080BD00BFDC0200200044004080B58AB0FC
:1037E00000AF786007F1140300221A605A609A60F3
:1037F000DA601A617B681B681D4A934233D100234B
:103800003B611C4B1B6C1B4A43F400331364194B84
:103810001B6C03F400333B613B690023FB60154BD9
:103820001B6B144A43F008031363124B1B6B03F02A
:103830000803FB60FB6860237B610223BB610023FC
:10384000FB6103233B6207237B6207F114031946E4
:103850000948FFF71BFA002200212620FFF776FD1A
:103860002620FFF78FFD00BF2837BD4680BD00BF73
:103870000044004000380240000C024080B582B095
:1038800000AF78607B68002B01D101233FE07B68AB
:1038900093F83D30DBB2002B06D17B68002283F821
:1038A0003C207868FFF79AFF7B68242283F83D204C
:1038B0007B681B68DA687B681B6822F40052DA6058
:1038C000786800F0FDFD7B681B681A697B681B68DF
:1038D00022F490421A617B681B685A697B681B68F6
:1038E00022F02A025A617B681B68DA687B681B68D1
:1038F00042F40052DA607B6800221A647B6820225E
:1039000083F83D207B68202283F83E200023184660
:103910000837BD4680BD80B58AB002AFF860B96097
:103920003B601346FB8000237B61FB6893F83D30CE
:10393000DBB2202B7CD1BB68002B02D0FB88002B94
:1039400001D1012375E0FB6893F83C30012B01D1D4
:1039500002236EE0FB68012283F83C20FB68002212
:103960001A64FB68212283F83D20FFF74FFD786140
:10397000FB68FA889A84FB68FA88DA84FB689B689B
:10398000B3F5805F08D1FB681B69002B04D10023CD
:10399000FB61BB68BB6103E0BB68FB610023BB61EB
:1039A000FB68002283F83C202AE03B6800937B6997
:1039B00000228021F86800F03DFB0346002B01D077
:1039C000032336E0FB69002B0BD1BB691B881A4629
:1039D000FB681B68C2F308025A60BB690233BB6113
:1039E00007E0FB691A78FB681B685A60FB690133C2
:1039F000FB61FB68DB8C9BB2013B9AB2FB68DA840B
:103A0000FB68DB8C9BB2002BCFD13B6800937B69BA
:103A100000224021F86800F00DFB0346002B01D086
:103A2000032306E0FB68202283F83D20002300E00A
:103A3000022318462037BD4680BD80B584B000AF54
:103A4000F860B9601346FB80FB6893F83E30DBB248
:103A5000202B1DD1BB68002B02D0FB88002B01D18D
:103A6000012316E0FB6893F83C30012B01D10223BF
:103A70000FE0FB68012283F83C20FB6800221A63F8
:103A8000FB881A46B968F86800F042FB034600E07C
:103A9000022318461037BD4680BD000080B5BAB07D
:103AA00000AF78607B681B681B68C7F8E4307B68F0
:103AB0001B68DB68C7F8E0307B681B685B69C7F888
:103AC000DC300023C7F8D8300023C7F8D430D7F84B
:103AD000E43003F00F03C7F8D830D7F8D830002B04
:103AE0000FD1D7F8E43003F02003002B09D0D7F82A
:103AF000E03003F02003002B03D0786800F025FCB1
:103B000056E2D7F8D830002B00F0DE80D7F8DC3052
:103B100003F00103002B06D1D7F8E03003F49073D3
:103B2000002B00F0D180D7F8E43003F00103002B24
:103B30000BD0D7F8E03003F48073002B05D07B68FE
:103B40001B6C43F001027B681A64D7F8E43003F081
:103B50000403002B0BD0D7F8DC3003F00103002B5B
:103B600005D07B681B6C43F002027B681A64D7F8AF
:103B7000E43003F00203002B0BD0D7F8DC3003F065
:103B80000103002B05D07B681B6C43F004027B68AB
:103B90001A64D7F8E43003F00803002B11D0D7F8EB
:103BA000E03003F02003002B05D1D7F8DC3003F020
:103BB0000103002B05D07B681B6C43F008027B6877
:103BC0001A647B681B6C002B00F0ED81D7F8E430A1
:103BD00003F02003002B08D0D7F8E03003F02003D7
:103BE000002B02D0786800F0B0FB7B681B685B6933
:103BF00003F04003402B0CBF01230023DBB2C7F8C6
:103C0000D4307B681B6C03F00803002B03D1D7F87A
:103C1000D430002B4FD0786800F0B8FA7B681B686E
:103C20005B6903F04003402B41D17B681B68143370
:103C3000C7F89C30D7F89C3053E8003FC7F898305D
:103C4000D7F8983023F04003C7F8D0307B681B6862
:103C50001433D7F8D020C7F8A820C7F8A430D7F875
:103C6000A410D7F8A82041E80023C7F8A030D7F85F
:103C7000A030002BD9D17B689B6B002B13D07B68C5
:103C80009B6B7D4A1A657B689B6B1846FFF733FA7E
:103C90000346002B16D07B689B6B1B6D7A68926B7A
:103CA000104698470EE0786800F090F90AE07868CE
:103CB00000F08CF906E0786800F088F97B68002253
:103CC0001A6470E100BF6EE17B681B6B012B40F052
:103CD0004A81D7F8E43003F01003002B00F0438151
:103CE000D7F8E03003F01003002B00F03C810023F4
:103CF000BB607B681B681B68BB607B681B685B687C
:103D0000BB60BB687B681B685B6903F04003402BAA
:103D100040F0B4807B689B6B1B685B68A7F8BE3083
:103D2000B7F8BE30002B00F040817B689B8DB7F860
:103D3000BE209A4280F039817B68B7F8BE20DA85D0
:103D40007B689B6BDB69B3F5807F00F088807B68C4
:103D50001B680C33C7F88830D7F8883053E8003F29
:103D6000C7F88430D7F8843023F48073C7F8B830AC
:103D70007B681B680C33D7F8B820C7F89420C7F8C5
:103D80009030D7F89010D7F8942041E80023C7F876
:103D90008C30D7F88C30002BD9D17B681B6814335A
:103DA0007B677B6F53E8003F3B673B6F23F001036A
:103DB000C7F8B4307B681B681433D7F8B420C7F851
:103DC0008020FB67F96FD7F8802041E80023BB67AC
:103DD000BB6F002BE1D17B681B6814333B663B6EE5
:103DE00053E8003FFB65FB6D23F04003C7F8B0309C
:103DF0007B681B681433D7F8B020FA66BB66B96ECF
:103E0000FA6E41E800237B667B6E002BE3D17B6872
:103E1000202283F83E207B6800221A637B681B689F
:103E20000C33FB64FB6C53E8003FBB64BB6C23F0BA
:103E30001003C7F8AC307B681B680C33D7F8AC2094
:103E4000BA657B65796DBA6D41E800233B653B6DD2
:103E5000002BE3D17B689B6B1846FFF7DCF87B688F
:103E60009A8D7B68DB8D9BB2D31A9BB2194678681A
:103E700000F0B6F899E000BF534200087B689A8DC5
:103E80007B68DB8D9BB2D31AA7F8CE307B68DB8DC5
:103E90009BB2002B00F08B80B7F8CE30002B00F0E7
:103EA00086807B681B680C33BB63BB6B53E8003FA9
:103EB0007B637B6B23F49073C7F8C8307B681B6807
:103EC0000C33D7F8C8207A643B64396C7A6C41E8CB
:103ED0000023FB63FB6B002BE3D17B681B6814336F
:103EE0007B627B6A53E8003F3B623B6A23F001033D
:103EF000C7F8C4307B681B681433D7F8C4203A6312
:103F0000FB62F96A3A6B41E80023BB62BB6A002B93
:103F1000E3D17B68202283F83E207B6800221A636D
:103F20007B681B680C333B613B6953E8003FFB60D7
:103F3000FB6823F01003C7F8C0307B681B680C33A4
:103F4000D7F8C020FA61BB61B969FA6941E800237A
:103F50007B617B69002BE3D1B7F8CE3019467868D6
:103F600000F03EF823E0D7F8E43003F08003002BA4
:103F700009D0D7F8E03003F08003002B03D0786835
:103F800000F07BF914E0D7F8E43003F04003002B95
:103F90000ED0D7F8E03003F04003002B08D078684B
:103FA00000F0BBF904E000BF02E000BF00E000BF8A
:103FB000E837BD4680BD00BF80B483B000AF7860F5
:103FC00000BF0C37BD465DF8047B704780B483B0FA
:103FD00000AF786000BF0C37BD465DF8047B7047CA
:103FE00080B483B000AF78600B467B8000BF0C3795
:103FF000BD465DF8047B704780B485B000AF786043
:104000000023FB600023BB607B6893F83D30DBB28C
:10401000FB607B6893F83E30DBB2BB60FB68DAB2D2
:10402000BB68DBB21343DBB218461437BD465DF8FC
:10403000047B704780B590B000AFF860B9603B601A
:104040001346FB7150E0BB6CB3F1FF3F4CD0BB6C2F
:10405000002B07D0FFF7DAF902463B68D31ABA6C97
:104060009A4241D2FB681B680C33BB62BB6A53E8BF
:10407000003F7B627B6A23F4D073FB63FB681B68A1
:104080000C33FA6B7A633B63396B7A6B41E800233C
:10409000FB62FB6A002BE5D1FB681B6814337B6174
:1040A0007B6953E8003F3B613B6923F00103BB633D
:1040B000FB681B681433BA6B3A62FB61F9693A6AB0
:1040C00041E80023BB61BB69002BE5D1FB682022DE
:1040D00083F83D20FB68202283F83E20FB68002205
:1040E00083F83C2003230FE0FB681B681A68BB6859
:1040F0001340BA689A420CBF01230023DBB21A4670
:10410000FB799A429FD0002318464037BD4680BDB8
:1041100080B485B000AFF860B9601346FB80FB68DF
:10412000BA689A62FB68FA889A85FB68FA88DA8529
:10413000FB6800221A64FB68222283F83E20FB6899
:10414000002283F83C20FB681B69002B07D0FB682A
:104150001B68DA68FB681B6842F48072DA60FB68EF
:104160001B685A69FB681B6842F001025A61FB68D0
:104170001B68DA68FB681B6842F02002DA600023E3
:1041800018461437BD465DF8047B704780B495B07F
:1041900000AF78607B681B680C337B637B6B53E8F4
:1041A000003F3B633B6B23F49073FB647B681B68AD
:1041B0000C33FA6C3A64FB63F96B3A6C41E8002308
:1041C000BB63BB6B002BE5D17B681B6814333B6280
:1041D0003B6A53E8003FFB61FB6923F00103BB64CA
:1041E0007B681B681433BA6CFA62BB62B96AFA6AFC
:1041F00041E800237B627B6A002BE5D17B681B6B67
:10420000012B19D17B681B680C33FB60FB6853E8FA
:10421000003FBB60BB6823F010037B647B681B68B6
:104220000C337A6CBA617B617969BA6941E8002321
:104230003B613B69002BE5D17B68202283F83E205F
:104240007B6800221A6300BF5437BD465DF8047BCB
:10425000704780B584B000AF78607B689B6BFB6073
:10426000FB680022DA85FB680022DA84F868FFF731
:10427000ADFE00BF1037BD4680BD80B485B000AF35
:1042800078607B6893F83D30DBB2212B3ED17B68B0
:104290009B68B3F5805F14D17B681B69002B10D13C
:1042A0007B681B6AFB60FB681B881A467B681B687F
:1042B000C2F308025A607B681B6A9A1C7B681A6208
:1042C00008E07B681B6A591C7A6811621A787B685F
:1042D0001B685A607B68DB8C9BB2013B9BB27A689F
:1042E0001946D184002B0FD17B681B68DA687B6884
:1042F0001B6822F08002DA607B681B68DA687B68E2
:104300001B6842F04002DA60002300E002231846F6
:104310001437BD465DF8047B704780B582B000AFAE
:1043200078607B681B68DA687B681B6822F0400253
:10433000DA607B68202283F83D207868FFF73CFE36
:10434000002318460837BD4680BD80B58CB000AF4D
:1043500078607B6893F83E30DBB2222B40F0AB8074
:104360007B689B68B3F5805F17D17B681B69002B66
:1043700013D10023FB627B689B6ABB627B681B686E
:104380005B689BB2C3F308039AB2BB6A1A807B686E
:104390009B6A9A1C7B689A6226E07B689B6AFB6238
:1043A0000023BB627B689B68B3F5805F07D07B68A6
:1043B0009B68002B0AD17B681B69002B06D17B68A8
:1043C0001B685B68DAB2FB6A1A7008E07B681B68DE
:1043D0005B68DBB203F07F03DAB2FB6A1A707B68BA
:1043E0009B6A5A1C7B689A627B68DB8D9BB2013B9F
:1043F0009BB27A681946D185002B5AD17B681B681D
:10440000DA687B681B6822F02002DA607B681B6830
:10441000DA687B681B6822F48072DA607B681B684C
:104420005A697B681B6822F001025A617B6820226E
:1044300083F83E207B681B6B012B35D17B68002203
:104440001A637B681B680C337B617B6953E8003F10
:104450003B613B6923F010037B627B681B680C3374
:104460007A6A3A62FB61F9693A6A41E80023BB6102
:10447000BB69002BE5D17B681B681B6803F0100348
:10448000102B0AD10023FB607B681B681B68FB6054
:104490007B681B685B68FB60FB687B689B8D1946CB
:1044A0007868FFF79DFD02E0786800F03DFB00238F
:1044B00002E0002300E0022318463037BD4680BDED
:1044C0002DE9B04FC0B000AFC7F8F400D7F8F43012
:1044D0001B681B6923F44050D7F8F430D968D7F82B
:1044E000F4301A6840EA01031361D7F8F4309A688F
:1044F000D7F8F4301B691A43D7F8F4305B691A43D4
:10450000D7F8F430DB691343C7F8F830D7F8F43044
:104510001B68DB6823F4164121F00C01D7F8F43056
:104520001A68D7F8F8300B43D360D7F8F4301B681B
:104530005B6923F44070D7F8F4309969D7F8F43008
:104540001A6840EA01035361D7F8F4301A688F4BB8
:104550009A4205D0D7F8F4301A688D4B9A4204D1AC
:10456000FEF74EFBC7F8FC0003E0FEF735FBC7F88B
:10457000FC00D7F8F430DB69B3F5004F40F00C8154
:10458000D7F8FC300022C7F8E830C7F8EC20D7E9AC
:104590003A4522462B469118B9655B41FB65D7E940
:1045A0001623214612EB0108294643EB01094FF07F
:1045B00000024FF000034FEAC90343EA58734FEA81
:1045C000C80290469946234618EB0303C7F8E0302B
:1045D0002B4649EB0303C7F8E430D7F8F4305B68A7
:1045E0000022C7F8D830C7F8DC20D7E936120B46CE
:1045F000DB183B65134642EB03037B65D7E91423C5
:10460000D7E93801FCF7E0FA02460B46614BA3FB01
:1046100002235B091C01D7F8FC300022C7F8D03018
:10462000C7F8D420D7E9348942464B469118B9647B
:104630005B41FB64D7E91223414612EB010A49466C
:1046400043EB010B4FF000024FF000034FEACB03A6
:1046500043EA5A734FEACA0292469B4643461AEB14
:104660000303C7F8C8304B464BEB0303C7F8CC3005
:10467000D7F8F4305B680022C7F8C030C7F8C42010
:10468000D7E930120B46DB183B64134642EB0303B9
:104690007B64D7E91023D7E93201FCF795FA02468B
:1046A0000B4611463B4BA3FB01235B09642202FB33
:1046B00003F3CB1ADB0003F13202364BA3FB0223D8
:1046C0005B095B0003F4F8731C44D7F8FC3000224C
:1046D000C7F8B830C7F8BC20D7E92E8942464B4608
:1046E0009118B9635B41FB63D7E90E23414651182A
:1046F000396349464B417B634FF000024FF00003A2
:10470000D7E90CAB5946CB00514643EA51735146A9
:10471000CA0010461946034642469B18C7F8B030F7
:104720004B460A4642EB0303C7F8B430D7F8F430DF
:104730005B680022C7F8A830C7F8AC20D7E92A1276
:104740000B46DB18BB62134642EB0303FB62D7E95F
:104750000A23D7E92C01FCF737FA02460B460D4B2A
:10476000A3FB02135B09642101FB03F3D31ADB00F3
:104770003233084AA2FB03235B0903F00702D7F890
:10478000F4301B6822449A6005E100BF001001402C
:10479000001401401F85EB51D7F8FC300022C7F808
:1047A000A030C7F8A420D7E9288942464B46911883
:1047B00039625B417B62D7E9082341465418494678
:1047C00043EB01054FF000024FF00003EB0043EA1A
:1047D0005473E20014461D464346E318C7F8983068
:1047E0004B4645EB0303C7F89C30D7F8F4305B68C1
:1047F0000022C7F89030C7F894204FF000024FF025
:104800000003D7E9244529468B00214643EA9173EA
:1048100021468A00D7E92601FCF7D6F902460B4665
:10482000604BA3FB02235B091C01D7F8FC3000227C
:10483000C7F88830C7F88C20D7E9228942464B4612
:104840009118B9615B41FB61D7E9062341465118D4
:10485000396149464B417B614FF000024FF0000344
:10486000D7E904AB5946CB00514643EA5173514650
:10487000CA0010461946034642469B18C7F88030C6
:104880004B460A4642EB0303C7F88430D7F8F430AE
:104890005B680022BB67FA674FF000024FF000032D
:1048A000D7E91E8949468B00414643EA9173414648
:1048B0008A00D7E92001FCF787F902460B46394BFD
:1048C000A3FB02135B09642101FB03F3D31A1B0151
:1048D0003233344AA2FB03235B0903F0F0031C4488
:1048E000D7F8FC3000223B677A67D7E91C8942463B
:1048F0004B469118B9605B41FB60D7E90223414602
:104900005118396049464B417B604FF000024FF02F
:104910000003D7E900AB5946CB00514643EA517337
:104920005146CA0010461946034642469B18BB66CC
:104930004B460A4642EB0303FB66D7F8F4305B684C
:1049400000223B667A664FF000024FF00003D7E981
:10495000188949468B00414643EA917341468A00D3
:10496000D7E91A01FCF730F902460B460D4BA3FBC1
:1049700002135B09642101FB03F3D31A1B013233D9
:10498000084AA2FB03235B0903F00F02D7F8F430B7
:104990001B6822449A6000BF07F58077BD46BDE8DA
:1049A000B08F00BF1F85EB5180B582B002AF0120F0
:1049B00003F06FF80346094A136000F07DF8084BD6
:1049C000019301230093002380220649064803F047
:1049D00087FA03F04DFC00BFBD4680BD24030020D4
:1049E00020030020D8990008ED49000880B584B064
:1049F00000AF786004211248FCF74AFD0023FB60F9
:104A00000523BB600F4800F02FFEFB68B3F57A7FEB
:104A100007DCFB68002B04DBFA68BB681344FB600F
:104A200006E0BB685B42BB60FA68BB681344FB608E
:104A3000034B1B68FA689A630A2003F09BFBE4E7C8
:104A40004C020020E099000880B582B000AF786089
:104A50003960391D4FF0FF3301220748FEF75BFF35
:104A60000346002B02D04FF0FF3300E07B6818466E
:104A70000837BD4680BD00BFDC02002080B586B08F
:104A800000AFF860B9607A6000237B610AE0BB6820
:104A90005A1CBA601B7800211846FFF7D5FF7B69C6
:104AA00001337B617A697B689A42F0DB7B68184648
:104AB0001837BD4680BD000080B582B002AF064BFE
:104AC000019302230093002380220449044803F049
:104AD00007FA00BFBD4680BD28030020F4990008F6
:104AE000E54A000880B582B000AF786001220A492B
:104AF0000A48FEF7A2FF0346002B04D0084800F046
:104B00002DFDFCF774FA074800F0AEFD4FF47A7003
:104B100003F030FBFAE700BF2C040020DC02002089
:104B2000009A0008189A000880B582B000AF78603B
:104B3000254B1B78FF2B0CD1234B00221A704FF40E
:104B400080720021214800F097F8214800F006FD0E
:104B500031E01D4B1B785A1CD1B21B4A11701A460A
:104B60001C4B1978194B9954174B1B78013B174A6A
:104B7000D35C0A2B1FD1144B1B78023B134AD35C26
:104B80000D2B18D1104B1B789AB24FF6FF730F49BB
:104B90001148FEF7C0FE00BF0F48FFF72DFA03468D
:104BA000212BF9D0084B00221A704FF4807200219B
:104BB000064800F061F8012206490748FEF73DFF6C
:104BC00000BF0837BD4680BD2D0400202C03002007
:104BD0002C9A00082C040020DC020020DFF834D0DE
:104BE0000D480E490E4A002302E0D458C450043345
:104BF000C4188C42F9D30B4A0B4C002301E013601C
:104C00000432A242FBD3FEF70DFC00F011F8FCF7D2
:104C10005DF970470000032000000020E40100203F
:104C20008C9E0008E401002094410020FEE7000073
:104C300070B50D4D0D4C641BA4100026A64209D181
:104C40000B4D0C4C04F0BAFE641BA4100026A642C7
:104C500005D170BD55F8043B98470136EEE755F88D
:104C6000043B98470136F2E7849E0008849E0008C2
:104C7000849E0008889E000802440346934200D1A7
:104C8000704703F8011BF9E72DE9FF4755EC104B7E
:104C9000002D0E4619462B46BBBF05F100431D46AD
:104CA00000232D230B700D9BDDF830A0914623F0DF
:104CB0002008BCBF22461446B8F1460F05D0B8F113
:104CC000450F00D10136022100E0032103AB01931F
:104CD00002AB009345EC104B5346324600F018FEF1
:104CE000B8F1470F074602D119F0010F22D0B8F1F1
:104CF000460F07EB060910D13B78302B0AD1002272
:104D0000002320462946FBF7EFFE18B9C6F101063D
:104D1000CAF80060DAF800309944002200232046E7
:104D20002946FBF7E1FE08B1CDF80C903022039B39
:104D30004B4507D3039B0E9ADB1B3846136004B028
:104D4000BDE8F087591C03911A70F0E7F7B50346E8
:104D50000029B8BF494203F8022BB4BF2D222B22F1
:104D6000092942702ADD0DF10704A4460A27A64648
:104D70000A4691FBF7F607FB16153035632A04F156
:104D8000FF340EF8015C3146F1DC3031AEF1020542
:104D900004F8011C441C294661450AD30DF109029F
:104DA000A2EB0E02654588BF00221344181A03B017
:104DB000F0BD11F8012B04F8012FEDE7302330315D
:104DC0008370C170031DF1E72DE9F04F2DED028BCB
:104DD0008DB00C46DDF8608016461F46054601F092
:104DE0003DFDD0F800A05046FBF702FA00230A93DD
:104DF00023680593D8F8003094F818B0073323F0EF
:104E0000070303F10802C8F80020D3E90023C4E92E
:104E10001223D4E9128929F000430793CDF81880B2
:104E200008EE100A9F4BDDE906014FF0FF32FBF759
:104E30008DFE88BBDDE906019A4B4FF0FF32FBF790
:104E400067FE48BB0022002340464946FBF756FE5A
:104E500010B12D2384F84330934B9448BBF1470F96
:104E600094BF9846804603232361059B23F00402E8
:104E700022604FF00009009733460BAA21462846CE
:104E800000F0D8F9013040F090804FF0FF300DB0C5
:104E9000BDEC028BBDE8F08F42464B46404649468A
:104EA000FBF754FE40B14B46002BBCBF2D2384F8CA
:104EB00043307F487F4BD1E763680BF0DF020692F7
:104EC0005A1C3FD106236360059B616843F48062EE
:104ED000002303930AABCDE901B309AB49EC108B76
:104EE000009322600DF123032846FFF7CDFE069BB9
:104EF0000999472B804608D1C81C02DB6368994298
:104F000041DDABF1020B5FFA8BFBBBF1650F20D8E3
:104F100001395A4604F150000991FFF717FF0A9A28
:104F20001318012A8146236102DC2268D20701D5C9
:104F3000013323619DF82330002B9CD02D2384F86E
:104F4000433098E7069A472ABED1002BBCD10123F3
:104F5000B9E7BBF1660F18D1002963680BDD216149
:104F600013B92268D00702D501330B442361A16530
:104F70004FF00009DEE713B92268D20701D50233EA
:104F8000F4E70123F2E74FF0670B0A9B994205DB38
:104F900023682161D807EAD54B1CE7E70029D4BF75
:104FA000C1F1020201221344E0E723685A0507D445
:104FB0002369424631462846B84701302CD164E780
:104FC000BBF1650F40F2E080D4E91201002200231A
:104FD000FBF78AFD002834D0374A012331462846A2
:104FE000B84701303FF451AFDDE909239A4202DBB3
:104FF0002368D80710D518EE103A52463146284695
:10500000B84701303FF441AF4FF0000804F11A09EE
:105010000A9B013B434509DC23689B0700F105819E
:10502000E0680B9B9842B8BF184630E701234A4618
:1050300031462846B84701303FF427AF08F1010850
:10504000E6E7099B002B39DC1B4A01233146284641
:10505000B84701303FF419AFDDE90923134302D10A
:105060002368D907D8D518EE103A5246314628465B
:10507000B84701303FF409AF4FF0000904F11A0AB4
:10508000099B5B424B4501DC0A9B92E70123524698
:1050900031462846B84701303FF4F7AE09F101091F
:1050A000EEE700BFFFFFEF7F609A0008649A0008F8
:1050B0006C9A0008689A0008709A00080A9AA36D12
:1050C0009A42A8BF1A46002A914637DC4FF0000BDF
:1050D00029EAE97904F11A02A36D0593A3EB090308
:1050E0005B4533DCDDE909239A423BDB2368DA07C1
:1050F00038D40A9B059A09999A1AA3EB010991459C
:10510000A8BF9146B9F1000F35DC4FF0000829EA3D
:10511000E97904F11A0ADDE909239B1AA3EB0903D3
:1051200043457FF779AF0123524631462846B847B9
:1051300001303FF4AAAE08F10108ECE7134631460E
:1051400042462846B8470130C0D19EE60123314689
:1051500028460592B84701303FF497AE059A0BF107
:10516000010BB9E718EE103A524631462846B847C7
:105170000130BED189E6059A4B4642443146284665
:10518000B8470130C1D180E60A9A012A01DCDB0769
:1051900038D50123424631462846B84701303FF40E
:1051A00074AE18EE103A524631462846B8470130E0
:1051B0003FF46BAED4E9120100220023FBF794FC0C
:1051C000D8B90A9B08F10102013B31462846B8478D
:1051D00001300ED159E60123524631462846B847E0
:1051E00001303FF452AE08F101080A9B013B4345F0
:1051F000F1DC4B4604F15002DCE64FF0000804F10C
:105200001A0AF2E701234246DFE701234A46314604
:105210002846B84701303FF438AE08F10108E3688A
:105220000B995B1A4345F0DCFAE64FF0000804F1F5
:105230001909F4E72DE9F047164699468A680B6983
:10524000DDF820809342B8BF1346336091F84320C5
:1052500007460C460AB1013333602368990642BF02
:10526000336802333360256815F0060506D104F172
:10527000190AE36832689B1AAB4226DC94F8432093
:10528000131E226818BF012392062BD404F1430297
:1052900049463846C04701301ED02368E568326869
:1052A00003F00603042B08BFAD1AA36822690CBFE4
:1052B00025EAE57500259342C4BF9B1AED18002628
:1052C0001A34B5421AD1002008E00123524649465B
:1052D0003846C047013003D14FF0FF30BDE8F087BA
:1052E0000135C6E7E1185A1C302081F843002244FA
:1052F00094F8451082F843100233C7E70123224691
:1053000049463846C0470130E6D00136D9E70000AB
:105310002DE9FF470F7E0C9D782F914680460C4665
:105320009A4601F1430207D8622F0AD8002F00F0F5
:10533000D880582F00F0A38004F1420584F8427011
:105340003AE0A7F16303152BF6D801A151F823F039
:10535000A9530008BD530008395300083953000809
:105360003953000839530008BD5300083953000869
:10537000395300083953000839530008C95400084C
:10538000ED530008AB5400083953000839530008A6
:10539000EB54000839530008ED5300083953000856
:1053A00039530008B35400082B681A1D1B682A6083
:1053B00004F1420584F842300123A3E02068296803
:1053C000060601F104030AD50E682B60002E03DAED
:1053D0002D23764284F843305E480A2319E00E6894
:1053E0002B6010F0400F18BF36B2EFE72B68206833
:1053F000191D2960010601D51E6802E04606FBD58D
:105400001E8854486F2F0CBF08230A23002184F8FC
:1054100043106568A560002DA2BF216821F004013A
:1054200021600EB9002D4DD01546B6FBF3F103FBFC
:105430001167C75D05F8017D3746BB420E46F4D9BA
:10544000082B0BD12368DE0708D5236961689942D0
:10545000DEBF302305F8013C05F1FF35521B226108
:10546000CDF800A04B4603AA21464046FFF7E2FED6
:1054700001304CD14FF0FF3004B0BDE8F087354823
:1054800081F845702968236851F8046B29601D066E
:1054900014D5DF0744BF43F0200323601EB92368FF
:1054A00023F0200323601023B0E7236843F0200398
:1054B00023607823284884F84530E3E7590648BF3D
:1054C000B6B2E6E71546BBE72B6826686169181D8A
:1054D000286035061B6801D5196002E07006FBD50F
:1054E0001980002323611546BAE72B681A1D2A602C
:1054F0001D68626800212846FAF782FE08B1401B49
:10550000606063682361002384F84330A8E723695F
:105510002A4649464046D0470130ABD023689B0716
:1055200013D4E068039B9842B8BF1846A4E7012350
:10553000324649464046D04701309BD00135E368AA
:1055400003995B1AAB42F2DCEBE7002504F1190684
:10555000F5E700BF729A0008839A00080FB40A4B5F
:1055600013B51C6824B1A36913B9204601F0D8F81B
:1055700005AB049AA1680193204601F095FE02B0A4
:10558000BDE8104004B070470C00002070B50E4616
:10559000054618B183690BB901F0C2F8AB69AC6874
:1055A00013B9284601F0BCF82C4B9C4220D16C6802
:1055B000636EDB0705D4A389980502D4A06D01F0C2
:1055C00052F9A38919071DD52369DBB1013EA368F0
:1055D00016F8011F013BA36039BB002B38DA2246C5
:1055E0000A21284600F048F8013011D00A2511E0C0
:1055F0001B4B9C4201D1AC68DAE71A4B9C4208BFB6
:10560000EC68D5E72146284600F088F80028DDD070
:105610004FF0FF35636EDA0705D4A3899B0502D4EA
:10562000A06D01F021F9284670BD002B04DAA269B3
:105630009A4206DC0A2904D023685A1C2260197099
:10564000C5E72246284600F017F80130BFD1DFE752
:1056500023680A255A1C22601D70DBE7689B00083E
:10566000889B0008489B0008024B01461868FFF71A
:105670008DBF00BF0C000020F8B50E46144605464D
:1056800018B183690BB901F04BF8214B9C422BD127
:105690006C68A369A360A3891A072FD523696BB32C
:1056A00023692068C01A6369F6B28342374604DC76
:1056B0002146284600F0A0FF30BBA368013BA36051
:1056C00023685A1C22601E7063690130834204D033
:1056D000A389DB0706D50A2E04D12146284600F00F
:1056E0008BFF88B93846F8BD0A4B9C4201D1AC68A3
:1056F000CFE7094B9C4208BFEC68CAE72146284621
:1057000000F00CF80028CBD04FF0FF37EAE700BFDD
:10571000689B0008889B0008489B0008324B70B5C6
:105720001D6806460C4625B1AB6913B9284600F042
:10573000F7FF2E4B9C420FD16C68A389B4F90C2063
:1057400019072CD4DD0611D40923336042F040033D
:10575000A3814FF0FF303EE0254B9C4201D1AC6865
:10576000EBE7244B9C4208BFEC68E6E7580712D5EC
:10577000616B41B104F14403994202D0304601F01B
:1057800089FC00236363A38923F02403A3810023FE
:10579000636023692360A38943F00803A38123691D
:1057A0004BB9A38903F42073B3F5007F03D02146DE
:1057B000304601F07FF8A089B4F90C2010F0010305
:1057C0000AD00023A36063695B42A361236943B9E4
:1057D00010F08000BAD170BD810758BF6369A36023
:1057E000F4E70020F7E700BF0C000020689B0008EA
:1057F000889B0008489B00082DE9F74F03690C6956
:10580000A3420746C0F28180013C01F1140800F177
:10581000140505EB8403019358F8243055F824202F
:1058200001339A424FEA840B08EB8409B2FBF3F68A
:1058300031D34FF0000E4046AC46F24650F8042BF0
:1058400093B206FB03E34FEA134E9BB2AAEB0303AA
:10585000DCF800A0120C13FA8AF306FB02E20093B4
:10586000009B4FEA124E92B2C2EB1A4202EB234265
:10587000BDF80030814543EA02434CF8043B4FEA4F
:10588000224ADBD255F80B302BB9019B043B9D42D9
:105890001A462ED33C61384601F0E4FA002824DB96
:1058A000013628464FF0000C58F8042BD0F800E0E1
:1058B00093B2ACEB0303120C13FA8EF3C2EB1E424D
:1058C00002EB23429BB243EA0243C14540F8043B4A
:1058D0004FEA224CE8D255F8242005EB840322B984
:1058E000043B9D421A460AD33C61304603B0BDE8F2
:1058F000F08F1268043B002ACCD1013CC7E7126844
:10590000043B002AF0D1013CEBE70020EEE7000069
:105910002DE9F04F2DED048B57EC106B93B0456AD9
:10592000DDF88080069110EE10AA044609920C93CF
:10593000BB4675B9102000F0FDFF0246606220B939
:10594000A74BEA21A74801F045FEC0E901550560D3
:10595000C560636A196851B15A684A60012393406F
:105960008B60204601F03CF8636A00221A603B1EFF
:10597000AABF002323F0004BC8F800309A4BBCBFED
:105980000122C8F8002033EA0B031BD10C9A42F223
:105990000F731360CBF31303334300F09285219B05
:1059A00063B9924B22E0924B01930833219A136022
:1059B000019813B0BDEC048BBDE8F08F8B4B0193C5
:1059C0000333F3E70022002350465946FBF78CF8D7
:1059D0004BEC19AB804658B10C9A01231360219B04
:1059E000002B00F06B8583481860431E0193DFE7AE
:1059F0004BEC10AB10AA11A9204601F0D9FACBF359
:105A00000A5508EE100A002D00F0848019EE903A35
:105A1000C3F3130343F07F57564647F44017A5F2EC
:105A2000FF35CDF83880744B002230463946FAF7FE
:105A30003BFC65A3D3E90023FAF7EEFD64A3D3E9A9
:105A40000023FAF733FC064628460F46FAF77AFD9C
:105A500061A3D3E90023FAF7DFFD02460B46304687
:105A60003946FAF723FC06460F46FBF785F8002275
:105A70000090002330463946FBF740F850B10098BB
:105A8000FAF760FD32463B46FBF72EF810B9009B53
:105A9000013B0093009B162B5AD8009A574B03EBFF
:105AA000C203D3E9002351EC190BFBF727F80028B8
:105AB00050D0009B013B009300230B93109B5D1B78
:105AC0006B1E059345BFC5F101030493002300231A
:105AD0004CBF05930493009B002B3DDB059B009A74
