:020000040800F2
:100000000000032001370008D5100008DB100008AD
:10001000E1100008E7100008ED10000800000000E3
:10002000000000000000000000000000D17E000879
:10003000F310000800000000B181000819820008D8
:100040005137000851370008513700085137000870
:100050005137000851370008513700085137000860
:100060005137000851370008513700085137000850
:100070005137000851370008513700085137000840
:100080005137000851370008513700085137000830
:100090005137000851370008513700085137000820
:1000A0005137000851370008513700085137000810
:1000B0000111000851370008513700085137000876
:1000C00051370008513700085137000851370008F0
:1000D00051370008513700085137000851370008E0
:1000E00051370008513700085137000851370008D0
:1000F00051370008513700085137000851370008C0
:1001000051370008513700085137000851370008AF
:10011000513700085137000851370008513700089F
:10012000513700085137000851370008513700088F
:10013000513700085137000851370008513700087F
:10014000513700085137000851370008513700086F
:10015000513700085137000851370008513700085F
:10016000513700085137000851370008513700084F
:1001700051370008513700085137000800000000CF
:10018000513700085137000851370008513700082F
:10019000513700085137000851370008513700081F
:0C01A000000000000000000051370008C3
:1001B00010B5054C237833B9044B13B10448AFF3A1
:1001C00000800123237010BDE40100200000000026
:1001D000DC83000808B5034B1BB103490348AFF3A8
:1001E000008008BD00000000E8010020DC8300085A
:1001F000034613F8012B002AFBD1181A0138704767
:1002000001F0FF01102A2BDB10F0070F08D010F8C7
:10021000013B013A8B422DD010F0070F42B3F6D1CB
:10022000F0B441EA012141EA014122F007047FF0E4
:1002300000070023F0E80256083C85EA010586EA3B
:10024000010685FA47F5A3FA87F586FA47F6A5FA77
:1002500087F68EB9EED1F0BC01F0FF0102F0070283
:1002600032B110F8013B013A83EA010313B1F8D12E
:100270000020704701387047002D06BF354603380F
:10028000073815F0010F07D1013015F4807F02BF48
:10029000013015F4C03F0130F0BC0138704700BF99
:1002A00081F0004102E000BF83F0004330B54FEA27
:1002B00041044FEA430594EA050F08BF90EA020F94
:1002C0001FBF54EA000C55EA020C7FEA645C7FEA27
:1002D000655C00F0E2804FEA5454D4EB5555B8BF4A
:1002E0006D420CDD2C4480EA020281EA030382EABB
:1002F000000083EA010180EA020281EA0303362D4D
:1003000088BF30BD11F0004F4FEA01314FF4801C1F
:100310004CEA113102D0404261EB410113F0004F31
:100320004FEA03334CEA133302D0524263EB4303E8
:1003300094EA050F00F0A780A4F10104D5F1200E86
:100340000DDB02FA0EFC22FA05F2801841F10001E1
:1003500003FA0EF2801843FA05F359410EE0A5F1B5
:1003600020050EF1200E012A03FA0EFC28BF4CF0E6
:10037000020C43FA05F3C01851EBE37101F000459C
:1003800007D54FF0000EDCF1000C7EEB00006EEBA9
:100390000101B1F5801F1BD3B1F5001F0CD3490833
:1003A0005FEA30004FEA3C0C04F101044FEA44528A
:1003B00012F5800F80F09A80BCF1004F08BF5FEA11
:1003C000500C50F1000041EB045141EA050130BDF1
:1003D0005FEA4C0C404141EB0101013C28BFB1F503
:1003E000801FE9D291F0000F04BF01460020B1FA4E
:1003F00081F308BF2033A3F10B03B3F120020CDA21
:100400000C3208DD02F1140CC2F10C0201FA0CF0FE
:1004100021FA02F10CE002F11402D8BFC2F1200C63
:1004200001FA02F120FA0CFCDCBF41EA0C01904019
:10043000E41AA2BF01EB0451294330BD6FEA040462
:100440001F3C1CDA0C340EDC04F11404C4F120024D
:1004500020FA04F001FA02F340EA030021FA04F35F
:1004600045EA030130BDC4F10C04C4F1200220FAB6
:1004700002F001FA04F340EA0300294630BD21FAF4
:1004800004F0294630BD94F0000F83F4801306BFBA
:1004900081F480110134013D4EE77FEA645C18BFAE
:1004A0007FEA655C29D094EA050F08BF90EA020F45
:1004B00005D054EA000C04BF1946104630BD91EA3D
:1004C000030F1EBF0021002030BD5FEA545C05D140
:1004D0004000494128BF41F0004130BD14F580047F
:1004E0003CBF01F5801130BD01F0004545F0FE41F3
:1004F00041F470014FF0000030BD7FEA645C1ABF28
:10050000194610467FEA655C1CBF0B46024650EA5E
:10051000013406BF52EA033591EA030F41F400218A
:1005200030BD00BF90F0000F04BF0021704730B510
:100530004FF4806404F132044FF000054FF00001E5
:1005400050E700BF90F0000F04BF0021704730B5A6
:100550004FF4806404F1320410F0004548BF40427B
:100560004FF000013EE700BF42004FEAE2014FEAD0
:1005700031014FEA02701FBF12F07F4393F07F4FAB
:1005800081F06051704732F07F4208BF704793F0AE
:100590007F4F04BF41F40021704730B54FF46074C1
:1005A00001F0004521F000411CE700BF50EA0102C4
:1005B00008BF704730B54FF000050AE050EA01026D
:1005C00008BF704730B511F0004502D5404261EBDD
:1005D00041014FF4806404F132045FEA915C3FF41E
:1005E000D8AE4FF003025FEADC0C18BF03325FEABB
:1005F000DC0C18BF033202EBDC02C2F1200300FA6C
:1006000003FC20FA02F001FA03FE40EA0E0021FA90
:1006100002F11444BDE600BF70B54FF0FF0C4CF47E
:10062000E06C1CEA11541DBF1CEA135594EA0C0F30
:1006300095EA0C0F00F0DEF82C4481EA030621EA6B
:100640004C5123EA4C5350EA013518BF52EA0335A6
:1006500041F4801143F4801338D0A0FB02CE4FF058
:100660000005E1FB02E506F00042E0FB03E54FF088
:100670000006E1FB03569CF0000F18BF4EF0010E80
:10068000A4F1FF04B6F5007F64F5407404D25FEA7C
:100690004E0E6D4146EB060642EAC62141EA55512F
:1006A0004FEAC52040EA5E504FEACE2EB4F1FD0C71
:1006B00088BFBCF5E06F1ED8BEF1004F08BF5FEAEF
:1006C000500E50F1000041EB045170BD06F00046A1
:1006D00046EA010140EA020081EA0301B4EB5C044E
:1006E000C2BFD4EB0C0541EA045170BD41F4801146
:1006F0004FF0000E013C00F3AB8014F1360FDEBF6B
:10070000002001F0004170BDC4F10004203C35DA46
:100710000C341BDC04F11404C4F1200500FA05F3C9
:1007200020FA04F001FA05F240EA020001F000426A
:1007300021F0004110EBD37021FA04F642EB0601E0
:100740005EEA430E08BF20EAD37070BDC4F10C040A
:10075000C4F1200500FA04F320FA05F001FA04F2CE
:1007600040EA020001F0004110EBD37041F10001BA
:100770005EEA430E08BF20EAD37070BDC4F12005C5
:1007800000FA05F24EEA020E20FA04F301FA05F22D
:1007900043EA020321FA04F001F0004121FA04F2D5
:1007A00020EA020000EBD3705EEA430E08BF20EAA5
:1007B000D37070BD94F0000F0FD101F000464000DF
:1007C00041EB010111F4801F08BF013CF7D041EA61
:1007D000060195F0000F18BF704703F00046520065
:1007E00043EB030313F4801F08BF013DF7D043EA36
:1007F0000603704794EA0C0F0CEA135518BF95EAEC
:100800000C0F0CD050EA410618BF52EA4306D1D172
:1008100081EA030101F000414FF0000070BD50EA91
:10082000410606BF1046194652EA430619D094EA1B
:100830000C0F02D150EA013613D195EA0C0F05D105
:1008400052EA03361CBF104619460AD181EA030159
:1008500001F0004141F0FE4141F470014FF0000011
:1008600070BD41F0FE4141F4780170BD70B54FF0AC
:10087000FF0C4CF4E06C1CEA11541DBF1CEA13552C
:1008800094EA0C0F95EA0C0F00F0A7F8A4EB05040E
:1008900081EA030E52EA03354FEA013100F0888005
:1008A0004FEA03334FF0805545EA131343EA1263CE
:1008B0004FEA022245EA111545EA10654FEA002683
:1008C0000EF000419D4208BF964244F1FD0404F53C
:1008D000407402D25B084FEA3202B61A65EB030598
:1008E0005B084FEA32024FF480104FF4002CB6EB55
:1008F000020E75EB030E22BFB61A754640EA0C00D5
:100900005B084FEA3202B6EB020E75EB030E22BF14
:10091000B61A754640EA5C005B084FEA3202B6EB55
:10092000020E75EB030E22BFB61A754640EA9C0014
:100930005B084FEA3202B6EB020E75EB030E22BFE4
:10094000B61A754640EADC0055EA060E18D04FEAA2
:10095000051545EA16754FEA06164FEAC30343EA42
:1009600052734FEAC2025FEA1C1CC0D111F4801F0F
:100970000BD141EA00014FF000004FF0004CB6E708
:1009800011F4801F04BF01430020B4F1FD0C88BFA7
:10099000BCF5E06F3FF6AFAEB5EB030C04BFB6EBB2
:1009A000020C5FEA500C50F1000041EB045170BDA5
:1009B0000EF0004E4EEA113114EB5C04C2BFD4EBD2
:1009C0000C0541EA045170BD41F480114FF0000E56
:1009D000013C90E645EA060E8DE60CEA135594EAD2
:1009E0000C0F08BF95EA0C0F3FF43BAF94EA0C0FD5
:1009F0000AD150EA01347FF434AF95EA0C0F7FF44A
:100A000025AF104619462CE795EA0C0F06D152EA9D
:100A100003353FF4FDAE1046194622E750EA410681
:100A200018BF52EA43067FF4C5AE50EA41047FF492
:100A30000DAF52EA43057FF4EBAE12E74FF0FF3CF7
:100A400006E000BF4FF0010C02E000BF4FF0010CC8
:100A50004DF804CD4FEA410C7FEA6C5C4FEA430C41
:100A600018BF7FEA6C5C1BD001B050EA410C0CBF90
:100A700052EA430C91EA030F02BF90EA020F0020F2
:100A8000704710F1000F91EA030F58BF994208BF59
:100A900090422CBFD8176FEAE37040F00100704716
:100AA0004FEA410C7FEA6C5C02D150EA013C07D16D
:100AB0004FEA430C7FEA6C5CD6D152EA033CD3D0B8
:100AC0005DF8040B704700BF8446104662468C46B2
:100AD0001946634600E000BF01B5FFF7B7FF0028E5
:100AE00048BF10F1000F01BD4DF808EDFFF7F4FF0E
:100AF0000CBF012000205DF808FB00BF4DF808ED99
:100B0000FFF7EAFF34BF012000205DF808FB00BFBB
:100B10004DF808EDFFF7E0FF94BF012000205DF8DD
:100B200008FB00BF4DF808EDFFF7CEFF94BF012092
:100B300000205DF808FB00BF4DF808EDFFF7C4FF8B
:100B400034BF012000205DF808FB00BF4FEA410CD4
:100B50007FEA6C5C02D150EA013C0AD14FEA430CB7
:100B60007FEA6C5C02D152EA033C02D14FF00000F4
:100B700070474FF0010070474FEA410212F5001232
:100B800015D211D56FF47873B3EB625212D94FEAD4
:100B9000C12343F0004343EA505311F0004F23FABE
:100BA00002F018BF404270474FF00000704750EA13
:100BB000013005D111F0004008BF6FF000407047D0
:100BC0004FF00000704700BF53B94AB9002908BF71
:100BD00000281CBF4FF0FF314FF0FF3000F074B918
:100BE000ADF1080C6DE904CE00F006F8DDF804E084
:100BF000DDE9022304B070472DE9F047089D044663
:100C00008E46002B4DD18A42944669D9B2FA82F2BF
:100C100052B101FA02F3C2F1200120FA01F10CFAFB
:100C200002FC41EA030E94404FEA1C48210CBEFB33
:100C3000F8F61FFA8CF708FB16E341EA034306FBBC
:100C400007F199420AD91CEB030306F1FF3080F04B
:100C50001F81994240F21C81023E63445B1AA4B298
:100C6000B3FBF8F008FB103344EA034400FB07F73A
:100C7000A7420AD91CEB040400F1FF3380F00A817B
:100C8000A74240F207816444023840EA0640E41B70
:100C900000261DB1D4400023C5E900433146BDE81C
:100CA000F0878B4209D9002D00F0EF800026C5E9BE
:100CB000000130463146BDE8F087B3FA83F6002ED6
:100CC0004AD18B4202D3824200F2F980841A61EB4E
:100CD000030301209E46002DE0D0C5E9004EDDE76C
:100CE00002B9FFDEB2FA82F2002A40F09280A1EB54
:100CF0000C014FEA1C471FFA8CFE0126200CB1FBA9
:100D0000F7F307FB131140EA01410EFB03F08842A1
:100D100008D91CEB010103F1FF3802D2884200F22E
:100D2000CB804346091AA4B2B1FBF7F007FB1011C0
:100D300044EA01440EFB00FEA64508D91CEB04045E
:100D400000F1FF3102D2A64500F2BB800846A4EBB9
:100D50000E0440EA03409CE7C6F12007B34022FAA4
:100D600007FC4CEA030C20FA07F401FA06F31C43D3
:100D7000F9404FEA1C4900FA06F3B1FBF9F8200CE0
:100D80001FFA8CFE09FB181140EA014108FB0EF026
:100D9000884202FA06F20BD91CEB010108F1FF3A76
:100DA00080F08880884240F28580A8F10208614482
:100DB000091AA4B2B1FBF9F009FB101144EA014190
:100DC00000FB0EFE8E4508D91CEB010100F1FF343B
:100DD0006CD28E456AD90238614440EA0840A0FBD3
:100DE0000294A1EB0E01A142C846A64656D353D0A9
:100DF0005DB1B3EB080261EB0E0101FA07F722FACD
:100E000006F3F1401F43C5E9007100263146BDE8F5
:100E1000F087C2F12003D8400CFA02FC21FA03F358
:100E2000914001434FEA1C471FFA8CFEB3FBF7F0D9
:100E300007FB10360B0C43EA064300FB0EF69E42FE
:100E400004FA02F408D91CEB030300F1FF382FD297
:100E50009E422DD9023863449B1B89B2B3FBF7F63F
:100E600007FB163341EA034106FB0EF38B4208D918
:100E70001CEB010106F1FF3816D28B4214D9023E59
:100E80006144C91A46EA004638E72E46284605E777
:100E90000646E3E61846F8E64B45A9D2B9EB020848
:100EA00064EB0C0E0138A3E74646EAE7204694E7D8
:100EB0004046D1E7D0467BE7023B614432E730460B
:100EC00009E76444023842E7704700BF80B500AFCD
:100ED00002F0B6F900F00AF800F08CF802F004FA1B
:100EE00002F0A2FA02F0A0FBFEE7000080B594B089
:100EF00000AF07F1200330220021184602F04EFC1B
:100F000007F10C0300221A605A609A60DA601A61D5
:100F10000023BB602B4B1B6C2A4A43F080531364A5
:100F2000284B1B6C03F08053BB60BB6800237B60C5
:100F3000254B1B68244A43F440431360224B1B6833
:100F400003F440437B607B6802233B620123FB6226
:100F500010233B630223BB630023FB6308233B6432
:100F6000B4237B640223BB640423FB6407F12003E6
:100F7000184601F0F7F90346002B01D000F035F8D0
:100F800002F02CF80346002B01D000F02EF80F23BE
:100F9000FB6002233B6100237B614FF4A053BB61E4
:100FA0004FF48053FB6107F10C030521184601F053
:100FB00051FC0346002B01D000F017F800BF50375A
:100FC000BD4680BD003802400070004080B582B050
:100FD00000AF78607B681B68B3F1804F01D102F0ED
:100FE00051F900BF0837BD4680BD80B400AF72B66E
:100FF00000BFFEE780B58AB000AF07F114030022FE
:101000001A605A609A60DA601A6100233B612E4BC5
:101010001B6B2D4A43F0010313632B4B1B6B03F037
:1010200001033B613B690023FB60274B1B6B264A96
:1010300043F480731363244B1B6B03F48073FB60D6
:10104000FB680023BB60204B1B6B1F4A43F010035F
:1010500013631D4B1B6B03F01003BB60BB680023C5
:101060007B60194B1B6B184A43F020031363164B2C
:101070001B6B03F020037B607B6800224FF48041F0
:10108000124801F091FF01237B614FF48813BB618B
:101090000023FB6107F1140319460D4801F0D8FD48
:1010A0004FF480437B610123BB610023FB6100237C
:1010B0003B6207F114031946044801F0C9FD00BF63
:1010C0002837BD4680BD00BF0038024000140240F2
:1010D0000020024080B400AFFEE780B400AFFEE71E
:1010E00080B400AFFEE780B400AFFEE780B400AF8D
:1010F000FEE780B400AF00BFBD465DF8047B7047DB
:1011000080B500AF024800F081FA00BF80BD00BF8B
:101110000002002080B483B000AF00237B60104B3E
:101120005B6C0F4A43F4804353640D4B5B6C03F4D8
:1011300080437B607B6800233B60094B1B6C084A43
:1011400043F080531364064B1B6C03F080533B60E9
:101150003B6800BF0C37BD465DF8047B704700BF9D
:101160000038024080B58EB000AF78600023FB628B
:101170000023BB620023FB60344B1B6C334A43F0FB
:1011800001031364314B1B6C03F00103FB60FB682C
:1011900007F1100207F114031146184601F026FD6D
:1011A0003B6AFB62FB6A002B03D101F00BFD786305
:1011B00004E001F007FD03465B007B637B6B244A80
:1011C000A2FB03239B0C013BBB62224B4FF08042EE
:1011D0001A60204B40F2E732DA601E4ABB6A536065
:1011E0001C4B00221A611B4B00229A60194B0022F3
:1011F0009A61184800F032F8034687F8333097F8C0
:101200003330002B1BD1134800F078F8034687F8E1
:10121000333097F83330002B11D11C2002F002F844
:101220007B680F2B08D8002279681C2001F0DEFFB4
:10123000094A7B68136002E0012387F8333097F88E
:10124000333018463837BD4680BD00BF00380240F5
:1012500083DE1B43000200200000002080B582B026
:1012600000AF78607B68002B01D1012341E07B68EF
:1012700093F83D30DBB2002B06D17B68002283F867
:101280003C20786802F02AF97B68022283F83D202E
:101290007B681A687B6804331946104600F070FCBE
:1012A0007B68012283F846207B68012283F83E2078
:1012B0007B68012283F83F207B68012283F840206D
:1012C0007B68012283F841207B68012283F8422059
:1012D0007B68012283F843207B68012283F8442045
:1012E0007B68012283F845207B68012283F83D203A
:1012F000002318460837BD4680BD000080B485B085
:1013000000AF78607B6893F83D30DBB2012B01D0F1
:1013100001234EE07B68022283F83D207B681B6836
:10132000DA687B681B6842F00102DA607B681B6840
:10133000234A934222D07B681B68B3F1804F1DD0B3
:101340007B681B681F4A934218D07B681B681E4A43
:10135000934213D07B681B681C4A93420ED07B6873
:101360001B681B4A934209D07B681B68194A934249
:1013700004D07B681B68184A934211D17B681B68B4
:101380009B6803F00703FB60FB68062B10D07B68AB
:101390001B681A687B681B6842F001021A6007E04C
:1013A0007B681B681A687B681B6842F001021A6040
:1013B000002318461437BD465DF8047B704700BF14
:1013C000000001400004004000080040000C004004
:1013D00000040140004001400018004080B582B088
:1013E00000AF78607B68002B01D1012341E07B686E
:1013F00093F83D30DBB2002B06D17B68002283F8E6
:101400003C20786802F08CF87B68022283F83D204B
:101410007B681A687B6804331946104600F0B0FBFD
:101420007B68012283F846207B68012283F83E20F6
:101430007B68012283F83F207B68012283F84020EB
:101440007B68012283F841207B68012283F84220D7
:101450007B68012283F843207B68012283F84420C3
:101460007B68012283F845207B68012283F83D20B8
:10147000002318460837BD4680BD000080B584B003
:1014800000AF786039603B68002B09D17B6893F826
:101490003E30DBB2012B14BF01230023DBB222E07C
:1014A0003B68042B09D17B6893F83F30DBB2012BFA
:1014B00014BF01230023DBB215E03B68082B09D1E0
:1014C0007B6893F84030DBB2012B14BF012300236B
:1014D000DBB208E07B6893F84130DBB2012B14BF2C
:1014E00001230023DBB2002B01D001237CE03B6809
:1014F000002B04D17B68022283F83E2013E03B6876
:10150000042B04D17B68022283F83F200BE03B6868
:10151000082B04D17B68022283F8402003E07B681B
:10152000022283F841207B681B6801223968184633
:1015300000F010FE7B681B682D4A934204D07B6844
:101540001B682C4A934201D1012300E00023002BA9
:1015500007D07B681B685A6C7B681B6842F40042AA
:101560005A647B681B68224A934222D07B681B68BE
:10157000B3F1804F1DD07B681B681F4A934218D07F
:101580007B681B681D4A934213D07B681B681C4A0A
:1015900093420ED07B681B68164A934209D07B6841
:1015A0001B68184A934204D07B681B68164A934212
:1015B00011D17B681B689B6803F00703FB60FB6825
:1015C000062B10D07B681B681A687B681B6842F08A
:1015D00001021A6007E07B681B681A687B681B6859
:1015E00042F001021A60002318461037BD4680BD44
:1015F00000000140000401400004004000080040D9
:10160000000C0040004001400018004080B582B04E
:1016100000AF78607B681B681B6903F00203022B34
:1016200022D17B681B68DB6803F00203022B1BD10D
:101630007B681B686FF002021A617B6801221A77CF
:101640007B681B689B6903F00303002B03D0786859
:1016500000F077FA05E0786800F069FA786800F041
:101660007AFA7B6800221A777B681B681B6903F093
:101670000403042B22D17B681B68DB6803F004039E
:10168000042B1BD17B681B686FF004021A617B6816
:1016900002221A777B681B689B6903F44073002B56
:1016A00003D0786800F04DFA05E0786800F03FFA62
:1016B000786800F050FA7B6800221A777B681B6814
:1016C0001B6903F00803082B22D17B681B68DB68C9
:1016D00003F00803082B1BD17B681B686FF008021E
:1016E0001A617B6804221A777B681B68DB6903F048
:1016F0000303002B03D0786800F023FA05E0786834
:1017000000F015FA786800F026FA7B6800221A7754
:101710007B681B681B6903F01003102B22D17B68C8
:101720001B68DB6803F01003102B1BD17B681B6860
:101730006FF010021A617B6808221A777B681B68B9
:10174000DB6903F44073002B03D0786800F0F9F9EB
:1017500005E0786800F0EBF9786800F0FCF97B6848
:1017600000221A777B681B681B6903F00103012BB9
:101770000ED17B681B68DB6803F00103012B07D1E6
:101780007B681B686FF001021A617868FFF71EFC26
:101790007B681B681B6903F08003802B0ED17B687C
:1017A0001B68DB6803F08003802B07D17B681B6814
:1017B0006FF080021A61786800F0CAFD7B681B68D0
:1017C0001B6903F04003402B0ED17B681B68DB686C
:1017D00003F04003402B07D17B681B686FF0400289
:1017E0001A61786800F0C1F97B681B681B6903F017
:1017F0002003202B0ED17B681B68DB6803F02003DD
:10180000202B07D17B681B686FF020021A61786873
:1018100000F094FD00BF0837BD4680BD80B586B09E
:1018200000AFF860B9607A600023FB75FB6893F83D
:101830003C30012B01D10223AEE0FB68012283F88A
:101840003C207B680C2B00F29F8001A252F823F011
:1018500085180008891900088919000889190008E5
:10186000C518000889190008891900088919000895
:101870000719000889190008891900088919000842
:1018800047190008FB681B68B968184600F018FA89
:10189000FB681B689A69FB681B6842F008029A6142
:1018A000FB681B689A69FB681B6822F004029A6156
:1018B000FB681B689969BB681A69FB681B680A4367
:1018C0009A6164E0FB681B68B968184600F068FA22
:1018D000FB681B689A69FB681B6842F400629A61A6
:1018E000FB681B689A69FB681B6822F480629A6136
:1018F000FB681B689969BB681B691A02FB681B6857
:101900000A439A6143E0FB681B68B968184600F017
:10191000BDFAFB681B68DA69FB681B6842F00802C5
:10192000DA61FB681B68DA69FB681B6822F0040255
:10193000DA61FB681B68D969BB681A69FB681B68B8
:101940000A43DA6123E0FB681B68B968184600F0B7
:1019500011FBFB681B68DA69FB681B6842F40062D4
:10196000DA61FB681B68DA69FB681B6822F4806235
:10197000DA61FB681B68D969BB681B691A02FB68DE
:101980001B680A43DA6102E00123FB7500BFFB68B4
:10199000002283F83C20FB7D18461837BD4680BDE9
:1019A00080B584B000AF786039600023FB737B683A
:1019B00093F83C30012B01D10223B4E07B68012273
:1019C00083F83C207B68022283F83D207B681B68FB
:1019D0009B68BB60BB6823F07703BB60BB6823F4E4
:1019E0007F43BB607B681B68BA689A603B681B6872
:1019F000B3F5005F3ED0B3F5005F00F28780B3F52A
:101A0000805F00F08680B3F5805F7FD8702B1AD09E
:101A1000702B7BD8602B50D0602B77D8502B3CD0CC
:101A2000502B73D8402B58D0402B6FD8302B64D01C
:101A3000302B6BD8202B60D0202B67D8002B5CD0AC
:101A4000102B5AD062E07B6818683B6899683B6845
:101A50005A683B68DB6800F05DFB7B681B689B682D
:101A6000BB60BB6843F07703BB607B681B68BA68E8
:101A70009A604FE07B6818683B6899683B685A68D1
:101A80003B68DB6800F046FB7B681B689A687B68F4
:101A90001B6842F480429A603CE07B6818683B68AF
:101AA00059683B68DB681A4600F0BAFA7B681B6825
:101AB0005021184600F013FB2CE07B6818683B6847
:101AC00059683B68DB681A4600F0D9FA7B681B68E6
:101AD0006021184600F003FB1CE07B6818683B6837
:101AE00059683B68DB681A4600F09AFA7B681B6805
:101AF0004021184600F0F3FA0CE07B681A683B6856
:101B00001B681946104600F0EAFA03E00123FB7354
:101B100000E000BF7B68012283F83D207B68002243
:101B200083F83C20FB7B18461037BD4680BD80B44F
:101B300083B000AF786000BF0C37BD465DF8047B12
:101B4000704780B483B000AF786000BF0C37BD46EB
:101B50005DF8047B704780B483B000AF786000BF4D
:101B60000C37BD465DF8047B704780B483B000AF8E
:101B7000786000BF0C37BD465DF8047B70470000FD
:101B800080B485B000AF786039607B681B68FB600B
:101B90007B68404A934213D07B68B3F1804F0FD0EB
:101BA0007B683D4A93420BD07B683C4A934207D006
:101BB0007B683B4A934203D07B683A4A934208D100
:101BC000FB6823F07003FB603B685B68FA681343B3
:101BD000FB607B682F4A93422BD07B68B3F1804F28
:101BE00027D07B682C4A934223D07B682B4A9342B0
:101BF0001FD07B682A4A93421BD07B68294A9342B4
:101C000017D07B68284A934213D07B68274A9342B7
:101C10000FD07B68264A93420BD07B68254A9342BB
:101C200007D07B68244A934203D07B68234A9342BF
:101C300008D1FB6823F44073FB603B68DB68FA68FB
:101C40001343FB60FB6823F080023B685B6913432E
:101C5000FB607B68FA681A603B689A687B68DA62A6
:101C60003B681A687B689A627B680A4A934203D091
:101C70007B680C4A934203D13B681A697B681A63FC
:101C80007B6801225A6100BF1437BD465DF8047BB2
:101C9000704700BF00000140000400400008004001
:101CA000000C00400004014000400140004401409D
:101CB0000048014000180040001C00400020004087
:101CC00080B487B000AF786039607B681B6A23F00E
:101CD00001027B681A627B681B6A7B617B685B68B8
:101CE0003B617B689B69FB60FB6823F07003FB60D2
:101CF000FB6823F00303FB603B681B68FA6813432F
:101D0000FB607B6923F002037B613B689B687A6917
:101D100013437B617B68204A934203D07B681F4A50
:101D200093420CD17B6923F008037B613B68DB683D
:101D30007A6913437B617B6923F004037B617B68D1
:101D4000154A934203D07B68144A934211D13B69F0
:101D500023F480733B613B6923F400733B613B6870
:101D60005B693A6913433B613B689B693A6913437A
:101D70003B617B683A695A607B68FA689A613B68A4
:101D80005A687B685A637B687A691A6200BF1C379D
:101D9000BD465DF8047B704700000140000401402F
:101DA00080B487B000AF786039607B681B6A23F02D
:101DB00010027B681A627B681B6A7B617B685B68C8
:101DC0003B617B689B69FB60FB6823F4E043FB603D
:101DD000FB6823F44073FB603B681B681B02FA68D6
:101DE0001343FB607B6923F020037B613B689B68A6
:101DF0001B017A6913437B617B68224A934203D0BB
:101E00007B68214A93420DD17B6923F080037B617B
:101E10003B68DB681B017A6913437B617B6923F0B4
:101E200040037B617B68174A934203D07B68164A64
:101E3000934213D13B6923F480633B613B6923F4F4
:101E400000633B613B685B699B003A6913433B61FC
:101E50003B689B699B003A6913433B617B683A6925
:101E60005A607B68FA689A613B685A687B689A6333
:101E70007B687A691A6200BF1C37BD465DF8047B37
:101E8000704700BF000001400004014080B487B0EB
:101E900000AF786039607B681B6A23F480727B68CE
:101EA0001A627B681B6A7B617B685B683B617B684D
:101EB000DB69FB60FB6823F07003FB60FB6823F0C9
:101EC0000303FB603B681B68FA681343FB607B6994
:101ED00023F400737B613B689B681B027A691343A0
:101EE0007B617B68214A934203D07B68204A9342FE
:101EF0000DD17B6923F400637B613B68DB681B02C7
:101F00007A6913437B617B6923F480637B617B681F
:101F1000164A934203D07B68154A934213D13B691A
:101F200023F480533B613B6923F400533B613B68DE
:101F30005B691B013A6913433B613B689B691B0169
:101F40003A6913433B617B683A695A607B68FA6877
:101F5000DA613B685A687B68DA637B687A691A627F
:101F600000BF1C37BD465DF8047B70470000014090
:101F70000004014080B487B000AF786039607B68AE
:101F80001B6A23F480527B681A627B681B6A3B6180
:101F90007B685B687B617B68DB69FB60FB6823F4C3
:101FA000E043FB60FB6823F44073FB603B681B6805
:101FB0001B02FA681343FB603B6923F400533B6147
:101FC0003B689B681B033A6913433B617B68124A79
:101FD000934203D07B68114A934209D17B6923F471
:101FE00080437B613B685B699B017A6913437B613A
:101FF0007B687A695A607B68FA68DA613B685A687C
:102000007B681A647B683A691A6200BF1C37BD4658
:102010005DF8047B704700BF0000014000040140F0
:1020200080B487B000AFF860B9607A60FB681B6A63
:102030007B61FB681B6A23F00102FB681A62FB6884
:102040009B693B613B6923F0F0033B617B681B01AB
:102050003A6913433B617B6923F00A037B617A6928
:10206000BB6813437B61FB683A699A61FB687A69D4
:102070001A6200BF1C37BD465DF8047B704780B410
:1020800087B000AFF860B9607A60FB681B6A23F024
:102090001002FB681A62FB689B697B61FB681B6A24
:1020A0003B617B6923F470437B617B681B037A6926
:1020B00013437B613B6923F0A0033B61BB681B01B9
:1020C0003A6913433B61FB687A699A61FB683A6934
:1020D0001A6200BF1C37BD465DF8047B704780B4B0
:1020E00085B000AF786039607B689B68FB60FB68F7
:1020F00023F07003FB603A68FB68134343F0070367
:10210000FB607B68FA689A6000BF1437BD465DF8D3
:10211000047B704780B487B000AFF860B9607A6024
:102120003B60FB689B687B617B6923F47F437B6139
:102130003B681A027B681A43BB6813437A691343EE
:102140007B61FB687A699A6000BF1C37BD465DF809
:10215000047B704780B487B000AFF860B9607A60E4
:10216000BB6803F01F03012202FA03F37B61FB68E3
:102170001A6A7B69DB431A40FB681A62FB681A6AB9
:10218000BB6803F01F03796801FA03F31A43FB6885
:102190001A6200BF1C37BD465DF8047B7047000023
:1021A00080B485B000AF786039607B6893F83C30CC
:1021B000012B01D102235AE07B68012283F83C20E5
:1021C0007B68022283F83D207B681B685B68FB60AC
:1021D0007B681B689B68BB60FB6823F07003FB6037
:1021E0003B681B68FA681343FB607B681B68FA68EE
:1021F0005A607B681B68214A934222D07B681B6827
:10220000B3F1804F1DD07B681B681D4A934218D0E4
:102210007B681B681B4A934213D07B681B681A4A71
:1022200093420ED07B681B68184A934209D07B68A2
:102230001B68174A934204D07B681B68154A934277
:102240000CD1BB6823F08003BB603B685B68BA6855
:102250001343BB607B681B68BA689A607B68012285
:1022600083F83D207B68002283F83C200023184639
:102270001437BD465DF8047B704700BF0000014085
:102280000004004000080040000C00400004014031
:10229000004001400018004080B485B000AF786075
:1022A00039600023FB607B6893F83C30012B01D13F
:1022B00002233DE07B68012283F83C20FB6823F089
:1022C000FF023B68DB681343FB60FB6823F440724A
:1022D0003B689B681343FB60FB6823F480623B68A8
:1022E0005B681343FB60FB6823F400623B681B6878
:1022F0001343FB60FB6823F480523B681B69134364
:10230000FB60FB6823F400523B685B691343FB608E
:10231000FB6823F480423B68DB691343FB607B6806
:102320001B68FA685A647B68002283F83C2000230B
:1023300018461437BD465DF8047B704780B483B0FF
:1023400000AF786000BF0C37BD465DF8047B704776
:1023500080B483B000AF786000BF0C37BD465DF835
:10236000047B704780B586B000AF78607B68002B37
:1023700001D1012367E27B681B6803F00103002B96
:1023800075D0884B9B6803F00C03042B0CD0854B55
:102390009B6803F00C03082B12D1824B5B6803F49B
:1023A0008003B3F5800F0BD17E4B1B6803F4003321
:1023B000002B5BD07B685B68002B57D1012342E286
:1023C0007B685B68B3F5803F06D1764B1B68754A26
:1023D00043F4803313601DE07B685B68B3F5A02F86
:1023E0000CD1704B1B686F4A43F4802313606D4B14
:1023F0001B686C4A43F4803313600BE0694B1B6825
:10240000684A23F480331360664B1B68654A23F4E3
:10241000802313607B685B68002B13D000F046FFBD
:10242000386108E000F042FF02463B69D31A642B92
:1024300001D9032307E25B4B1B6803F40033002B35
:10244000F0D014E000F032FF386108E000F02EFF19
:1024500002463B69D31A642B01D90323F3E1514BA4
:102460001B6803F40033002BF0D100E000BF7B6851
:102470001B6803F00203002B63D04A4B9B6803F0F8
:102480000C03002B0BD0474B9B6803F00C03082B6D
:102490001CD1444B5B6803F48003002B16D1414BE5
:1024A0001B6803F00203002B05D07B68DB68012B5F
:1024B00001D00123C7E13B4B1B6823F0F8027B6886
:1024C0001B69DB00374913430B603AE07B68DB682C
:1024D000002B20D0344B01221A6000F0E7FE386157
:1024E00008E000F0E3FE02463B69D31A022B01D953
:1024F0000323A8E12B4B1B6803F00203002BF0D051
:10250000284B1B6823F0F8027B681B69DB00254918
:1025100013430B6015E0244B00221A6000F0C6FE46
:10252000386108E000F0C2FE02463B69D31A022B74
:1025300001D9032387E11B4B1B6803F00203002B27
:10254000F0D17B681B6803F00803002B36D07B6852
:102550005B69002B16D0154B01221A6000F0A6FE15
:10256000386108E000F0A2FE02463B69D31A022B54
:1025700001D9032367E10B4B5B6F03F00203002BD0
:10258000F0D01BE0094B00221A6000F08FFE38618A
:102590000EE000F08BFE02463B69D31A022B07D9EE
:1025A000032350E10038024000004742800E4742BA
:1025B000884B5B6F03F00203002BEAD17B681B683A
:1025C00003F00403002B00F097800023FB75814B80
:1025D0001B6C03F08053002B0FD10023BB607D4B9D
:1025E0001B6C7C4A43F0805313647A4B1B6C03F0E2
:1025F0008053BB60BB680123FB75774B1B6803F4FA
:102600008073002B18D1744B1B68734A43F480739A
:10261000136000F04BFE386108E000F047FE024610
:102620003B69D31A022B01D903230CE16A4B1B68C7
:1026300003F48073002BF0D07B689B68012B06D1DC
:10264000644B1B6F634A43F0010313671CE07B6814
:102650009B68052B0CD15F4B1B6F5E4A43F0040354
:1026600013675C4B1B6F5B4A43F0010313670BE07E
:10267000584B1B6F574A23F001031367554B1B6FD1
:10268000544A23F0040313677B689B68002B15D022
:1026900000F00CFE38610AE000F008FE02463B69DB
:1026A000D31A41F28832934201D90323CBE0494B3C
:1026B0001B6F03F00203002BEED014E000F0F6FDD8
:1026C00038610AE000F0F2FD02463B69D31A41F29C
:1026D0008832934201D90323B5E03E4B1B6F03F0D0
:1026E0000203002BEED1FB7D012B05D1394B1B6C76
:1026F000384A23F0805313647B689B69002B00F0F9
:10270000A180344B9B6803F00C03082B5CD07B68E2
:102710009B69022B41D1314B00221A6000F0C6FDAB
:10272000386108E000F0C2FD02463B69D31A022B73
:1027300001D9032387E0274B1B6803F00073002BAC
:10274000F0D17B68DA697B681B6A1A437B685B6A35
:102750009B011A437B689B6A5B08013B1B041A437D
:102760007B68DB6A1B061B4913434B601B4B012232
:102770001A6000F09BFD386108E000F097FD02460A
:102780003B69D31A022B01D903235CE0114B1B6870
:1027900003F00073002BF0D054E0104B00221A60BD
:1027A00000F084FD386108E000F080FD02463B69DE
:1027B000D31A022B01D9032345E0064B1B6803F013
:1027C0000073002BF0D13DE07B689B69012B07D1A2
:1027D000012338E0003802400070004060004742AA
:1027E0001B4B5B68FB607B689B69012B28D0FB68F7
:1027F00003F480027B68DB699A4221D1FB6803F015
:102800003F027B681B6A9A421AD1FA6847F6C07386
:1028100013407A68526A9201934211D1FB6803F423
:1028200040327B689B6A5B08013B1B049A4207D1DC
:10283000FB6803F070627B68DB6A1B069A4201D07A
:10284000012300E0002318461837BD4680BD00BFB5
:102850000038024080B584B000AF786039607B6892
:10286000002B01D10123CCE0684B1B6803F00F0360
:102870003A689A420CD9654B3A68D2B21A70634BE7
:102880001B6803F00F033A689A4201D00123B8E0B5
:102890007B681B6803F00203002B20D07B681B6859
:1028A00003F00403002B05D0594B9B68584A43F4AE
:1028B000E05393607B681B6803F00803002B05D08E
:1028C000534B9B68524A43F460439360504B9B6860
:1028D00023F0F0027B689B684D4913438B607B6853
:1028E0001B6803F00103002B44D07B685B68012B5D
:1028F00007D1474B1B6803F40033002B19D1012388
:102900007FE07B685B68022B03D07B685B68032BEE
:1029100007D13F4B1B6803F00073002B09D1012343
:102920006FE03B4B1B6803F00203002B01D1012336
:1029300067E0374B9B6823F003027B685B68344990
:1029400013438B6000F0B2FCF8600AE000F0AEFCCC
:102950000246FB68D31A41F28832934201D903231D
:102960004FE02B4B9B6803F00C027B685B689B007D
:102970009A42EBD1254B1B6803F00F033A689A4249
:102980000CD2224B3A68D2B21A70204B1B6803F06B
:102990000F033A689A4201D0012332E07B681B683A
:1029A00003F00403002B08D0194B9B6823F4E0527A
:1029B0007B68DB68164913438B607B681B6803F0F8
:1029C0000803002B09D0124B9B6823F460427B68FC
:1029D0001B69DB000E4913438B6000F021F80246AF
:1029E0000B4B9B681B0903F00F030A49CB5C22FACF
:1029F00003F3094A1360094B1B681846FEF7B2FB44
:102A0000002318461037BD4680BD00BF003C024081
:102A10000038024014840008080000200000002054
:102A20002DE9B04F90B000AF00237B630023FB6320
:102A300000233B630023BB63594B9B6803F00C03EB
:102A4000082B0DD0082B00F2A180002B02D0042B04
:102A500003D09BE0534BBB639BE0534BBB6398E0BD
:102A60004F4B5B6803F03F037B634D4B5B6803F4A4
:102A70008003002B28D04A4B5B689B0900223B62F5
:102A80007A623B6AC3F308000021474B03FB01F263
:102A9000002300FB03F31344434AA0FB0212FA6233
:102AA0000A46BA62FA6A1344FB627B6B0022BB617E
:102AB000FA61D7E90623D7E90A01FEF785F802464D
:102AC0000B461346FB6353E0354B5B689B090022C2
:102AD0003B617A613B69C3F3080A4FF0000B524631
:102AE0005B464FF000004FF00001590141EAD2610E
:102AF000500102460B46B2EB0A0863EB0B094FF09C
:102B000000024FF000034FEA891343EA98634FEA4B
:102B10008812B2EB080463EB09054FF000024FF096
:102B20000003EB0043EA5473E20014461D4614EB25
:102B30000A033B6045EB0B037B604FF000024FF054
:102B40000003D7E9004529468B02214643EA915309
:102B500021468A02104619467B6B0022BB60FA6050
:102B6000D7E90223FEF730F802460B461346FB6313
:102B70000B4B5B681B0C03F0030301335B003B63EF
:102B8000FA6B3B6BB2FBF3F3BB6302E0054BBB6339
:102B900000BFBB6B18464037BD46BDE8B08F00BFD5
:102BA000003802400024F40040787D0180B400AF7A
:102BB000034B1B681846BD465DF8047B704700BF99
:102BC0000800002080B500AFFFF7F0FF0246054B7C
:102BD0009B689B0A03F007030349CB5C22FA03F3CB
:102BE000184680BD003802402484000880B483B0B9
:102BF00000AF786039607B680F221A60124B9B68C7
:102C000003F003027B685A600F4B9B6803F0F002ED
:102C10007B689A600C4B9B6803F4E0527B68DA6037
:102C2000094B9B68DB0803F4E0527B681A61074B91
:102C30001B6803F00F023B681A6000BF0C37BD46EB
:102C40005DF8047B704700BF00380240003C024042
:102C500080B489B000AF7860396000237B610023C5
:102C60003B610023BB610023FB6177E10122FB692B
:102C700002FA03F37B613B681B687A6913403B618E
:102C80003A697B699A4240F066813B685B6803F071
:102C90000303012B05D03B685B6803F00303022BA1
:102CA00030D17B689B68BB61FB695B00032202FA41
:102CB00003F3DB43BA691340BB613B68DA68FB6925
:102CC0005B0002FA03F3BA691343BB617B68BA691C
:102CD0009A607B685B68BB610122FB6902FA03F3BF
:102CE000DB43BA691340BB613B685B681B0903F0B7
:102CF0000102FB6902FA03F3BA691343BB617B6803
:102D0000BA695A603B685B6803F00303032B17D072
:102D10007B68DB68BB61FB695B00032202FA03F39B
:102D2000DB43BA691340BB613B689A68FB695B008F
:102D300002FA03F3BA691343BB617B68BA69DA60CC
:102D40003B685B6803F00303022B23D1FB69DA08BD
:102D50007B68083253F82230BB61FB6903F007033C
:102D60009B000F2202FA03F3DB43BA691340BB61F5
:102D70003B681A69FB6903F007039B0002FA03F33F
:102D8000BA691343BB61FB69DA087B680832B96929
:102D900043F822107B681B68BB61FB695B00032260
:102DA00002FA03F3DB43BA691340BB613B685B681B
:102DB00003F00302FB695B0002FA03F3BA691343F1
:102DC000BB617B68BA691A603B685B6803F4403397
:102DD000002B00F0C0800023FB60664B5B6C654AF3
:102DE00043F480435364634B5B6C03F48043FB60A8
:102DF000FB68614AFB699B08023352F82330BB61D0
:102E0000FB6903F003039B000F2202FA03F3DB4389
:102E1000BA691340BB617B68584A934237D07B68DC
:102E2000574A934231D07B68564A93422BD07B68F5
:102E3000554A934225D07B68544A93421FD07B6801
:102E4000534A934219D07B68524A934213D07B680D
:102E5000514A93420DD07B68504A934207D07B6819
:102E60004F4A934201D1092312E00A2310E00823BC
:102E70000EE007230CE006230AE0052308E0042304
:102E800006E0032304E0022302E0012300E0002324
:102E9000FA6902F0030292009340BA691343BB61DE
:102EA0003549FB699B080233BA6941F823203D4B41
:102EB0009B68BB613B69DB43BA691340BB613B68FC
:102EC0005B6803F48013002B03D0BA693B6913439A
:102ED000BB61344ABB699360324BDB68BB613B69C1
:102EE000DB43BA691340BB613B685B6803F40013C2
:102EF000002B03D0BA693B691343BB61294ABB6904
:102F0000D360284B5B68BB613B69DB43BA69134004
:102F1000BB613B685B6803F40033002B03D0BA69E4
:102F20003B691343BB611F4ABB6953601D4B1B6860
:102F3000BB613B69DB43BA691340BB613B685B68BB
:102F400003F48033002B03D0BA693B691343BB61A0
:102F5000144ABB691360FB690133FB61FB690F2BEA
:102F60007FF684AE00BF00BF2437BD465DF8047B0A
:102F7000704700BF003802400038014000000240A6
:102F80000004024000080240000C02400010024011
:102F90000014024000180240001C024000200240C1
:102FA00000240240003C014080B483B000AF786050
:102FB0000B467B8013467B707B78002B03D07A888E
:102FC0007B689A6103E07B881A047B689A6100BF82
:102FD0000C37BD465DF8047B7047000080B582B0B9
:102FE00000AF00237B6000233B60204B1B6C1F4A1B
:102FF00043F0805313641D4B1B6C03F080533B6004
:103000003B681B4B01221A6000F050F9786009E020
:1030100000F04CF902467B68D31AB3F57A7F01D9E8
:1030200003231FE0134B5B6803F48033B3F5803F49
:10303000EED1114B01221A6000F038F9786009E0F6
:1030400000F034F902467B68D31AB3F57A7F01D9D0
:10305000032307E0074B5B6803F40033B3F5003F3D
:10306000EED1002318460837BD4680BD0038024027
:1030700040000E420070004044000E4280B485B013
:1030800000AF78607B6803F00703FB600C4BDB68E4
:10309000BB60BA684FF6FF031340BB60FB681A02BF
:1030A000BB68134343F0BF6343F40033BB60044A7F
:1030B000BB68D36000BF1437BD465DF8047B704722
:1030C00000ED00E080B400AF044BDB681B0A03F0A6
:1030D00007031846BD465DF8047B704700ED00E02D
:1030E00080B483B000AF0346FB7197F90730002B23
:1030F0000BDBFB7903F01F02074997F907305B09E7
:10310000012000FA02F241F8232000BF0C37BD462F
:103110005DF8047B704700BF00E100E080B483B03D
:1031200000AF03463960FB7197F90730002B0ADBCB
:103130003B68DAB20C4997F907301201D2B20B445E
:1031400083F800230AE03B68DAB20849FB7903F010
:103150000F03043B1201D2B20B441A7600BF0C37A6
:10316000BD465DF8047B704700E100E000ED00E043
:1031700080B489B000AFF860B9607A60FB6803F092
:103180000703FB61FB69C3F10703042B28BF04237A
:10319000BB61FB690433062B02D9FB69033B00E0EA
:1031A00000237B614FF0FF32BB6902FA03F3DA437D
:1031B000BB681A407B699A404FF0FF317B6901FA86
:1031C00003F3D9437B680B40134318462437BD46AD
:1031D0005DF8047B704780B582B000AF7860786896
:1031E000FFF74CFF00BF0837BD4680BD80B586B0F5
:1031F00000AF0346B9607A60FB7300237B61FFF781
:1032000061FF78617A68B9687869FFF7B1FF0246B3
:1032100097F90F3011461846FFF780FF00BF1837A7
:10322000BD4680BD80B582B000AF0346FB7197F903
:1032300007301846FFF754FF00BF0837BD4680BD72
:1032400080B500AF0E4B1B680D4A43F4007313604A
:103250000B4B1B680A4A43F480631360084B1B68DE
:10326000074A43F4807313600320FFF7B4FF0F2075
:10327000FDF778FFFDF74EFF0023184680BD00BF25
:10328000003C024080B400AF064B1B781A46064B48
:103290001B681344044A136000BFBD465DF8047BFD
:1032A000704700BF040000204802002080B400AF37
:1032B000034B1B681846BD465DF8047B704700BF92
:1032C0004802002080B400AF064BD3F88830054A8E
:1032D00043F47003C2F8883000BFBD465DF8047B3C
:1032E000704700BF00ED00E080B596B000AF07F179
:1032F000480300221A605A609A60DA6007F14003BE
:1033000000221A605A6007F1240300221A605A60F2
:103310009A60DA601A615A619A613B1D202200218D
:10332000184600F03BFA3E4B3E4A1A603C4BB32233
:103330005A603B4B00229A60394B40F2E732DA6028
:10334000374B00221A61364B00225A61344B8022DF
:103350009A613348FDF782FF0346002B01D0FDF749
:1033600044FE4FF48053BB6407F1480319462C48D0
:10337000FEF716FB0346002B01D0FDF736FE28486A
:10338000FEF72CF80346002B01D0FDF72EFE00239C
:103390003B6400237B6407F1400319462048FEF795
:1033A000FFFE0346002B01D0FDF71FFE60237B626A
:1033B0000023BB620223FB6200233B6300237B6389
:1033C0000023BB630023FB6307F124030422194697
:1033D0001348FEF723FA0346002B01D0FDF705FE44
:1033E00000237B600023BB600023FB6000233B6164
:1033F00000237B614FF40053BB6100233B623B1D04
:1034000019460748FEF748FF0346002B01D0FDF799
:10341000ECFD034800F0A6F800BF5837BD4680BD5C
:103420004C0200200000014080B58AB000AF07F1D7
:10343000200300221A605A603B1D00221A605A6065
:103440009A60DA601A615A619A61224B224A1A60C4
:10345000204BB3225A601F4B00229A601D4B40F252
:10346000CF72DA601B4B00221A611A4B80229A61DC
:103470001848FDF7B3FF0346002B01D0FDF7B5FD5B
:1034800000233B6200237B6207F1200319461148A9
:10349000FEF786FE0346002B01D0FDF7A6FD602354
:1034A0007B600023BB600023FB6000237B613B1D2E
:1034B0000C2219460748FEF7B1F90346002B01D04C
:1034C000FDF793FD034800F04DF800BF2837BD46D7
:1034D00080BD00BF94020020000C004080B485B085
:1034E00000AF78607B681B680B4A93420DD10023C4
:1034F000FB600A4B5B6C094A43F001035364074BC2
:103500005B6C03F00103FB60FB6800BF1437BD4632
:103510005DF8047B704700BF0000014000380240A6
:1035200080B485B000AF78607B681B680B4A93421B
:103530000DD10023FB600A4B1B6C094A43F00803C2
:103540001364074B1B6C03F00803FB60FB6800BFB0
:103550001437BD465DF8047B704700BF000C004087
:103560000038024080B58AB000AF786007F11403DC
:1035700000221A605A609A60DA601A617B681B68E0
:10358000244A93421FD100233B61234B1B6B224AE9
:1035900043F010031363204B1B6B03F010033B61DC
:1035A0003B694FF400637B610223BB610023FB6135
:1035B00000233B6201237B6207F11403194617487D
:1035C000FFF746FB22E07B681B68154A93421DD13A
:1035D0000023FB60104B1B6B0F4A43F00103136386
:1035E0000D4B1B6B03F00103FB60FB6808237B6141
:1035F0000223BB610023FB6100233B6202237B6249
:1036000007F1140319460748FFF722FB00BF2837CC
:10361000BD4680BD0000014000380240001002405D
:10362000000C00400000024080B582B002AF0120D3
:1036300002F03DFF03460D4A13600D4B0193022338
:103640000093002380220B490B4803F057F90B4BE2
:10365000019301230093002380220949094803F0C4
:103660004DF903F013FB00BFBD4680BDE40200200E
:10367000DC020020F883000889360008E002002000
:1036800004840008AD36000880B582B000AF7860D1
:1036900001224FF480410448FFF786FC4FF4FA60A2
:1036A00003F076FAFAE700BF0014024080B584B058
:1036B00000AF786004211148FDF7E0FE0023FB60B5
:1036C0000523BB60FB68B3F57A7F07DCFB68002B42
:1036D00004DBFA68BB681344FB6006E0BB685B422E
:1036E000BB60FA68BB681344FB60044B1B68FA6854
:1036F0009A630A2003F04CFAE4E700BF4C02002072
:10370000DFF834D00D480E490E4A002302E0D458A9
:10371000C4500433C4188C42F9D30B4A0B4C002319
:1037200001E013600432A242FBD3FFF7CBFD00F0AF
:1037300011F8FDF7CBFB70470000032000000020CC
:10374000E40100205C880008E40100204C400020D7
:10375000FEE7000070B50D4D0D4C641BA410002653
:10376000A64209D10B4D0C4C04F038FE641BA4108A
:103770000026A64205D170BD55F8043B9847013696
:10378000EEE755F8043B98470136F2E75488000805
:1037900054880008548800085888000802440346EA
:1037A000934200D1704703F8011BF9E72DE9FF4769
:1037B00055EC104B002D0E4619462B46BBBF05F1AC
:1037C00000431D4600232D230B700D9BDDF830A018
:1037D000914623F02008BCBF22461446B8F1460F9C
:1037E00005D0B8F1450F00D10136022100E00321D8
:1037F00003AB019302AB009345EC104B53463246AA
:1038000000F0CAFCB8F1470F074602D119F0010FCA
:1038100022D0B8F1460F07EB060910D13B78302BC8
:103820000AD10022002320462946FDF75DF918B988
:10383000C6F10106CAF80060DAF8003099440022A7
:10384000002320462946FDF74FF908B1CDF80C902A
:103850003022039B4B4507D3039B0E9ADB1B384654
:10386000136004B0BDE8F087591C03911A70F0E7AB
:10387000F7B503460029B8BF494203F8022BB4BF8D
:103880002D222B22092942702ADD0DF10704A446BE
:103890000A27A6460A4691FBF7F607FB16153035B0
:1038A000632A04F1FF340EF8015C3146F1DC30315B
:1038B000AEF1020504F8011C441C294661450AD3F7
:1038C0000DF10902A2EB0E02654588BF00221344E8
:1038D000181A03B0F0BD11F8012B04F8012FEDE721
:1038E000302330318370C170031DF1E72DE9F04FB3
:1038F0002DED028B8DB00C46DDF8608016461F461C
:10390000054601F037FAD0F800A05046FCF770FCED
:1039100000230A9323680593D8F8003094F818B070
:10392000073323F0070303F10802C8F80020D3E9A6
:103930000023C4E91223D4E9128929F00043079334
:10394000CDF8188008EE100A9F4BDDE906014FF014
:10395000FF32FDF7FBF888BBDDE906019A4B4FF01B
:10396000FF32FDF7D5F848BB002200234046494608
:10397000FDF7C4F810B12D2384F84330934B9448DD
:10398000BBF1470F94BF9846804603232361059BF4
:1039900023F0040222604FF00009009733460BAA7F
:1039A0002146284600F0D8F9013040F090804FF0D1
:1039B000FF300DB0BDEC028BBDE8F08F42464B46A8
:1039C00040464946FDF7C2F840B14B46002BBCBF0C
:1039D0002D2384F843307F487F4BD1E763680BF099
:1039E000DF0206925A1C3FD106236360059B616883
:1039F00043F48062002303930AABCDE901B309AB22
:103A000049EC108B009322600DF123032846FFF749
:103A1000CDFE069B0999472B804608D1C81C02DBC6
:103A20006368994241DDABF1020B5FFA8BFBBBF19E
:103A3000650F20D801395A4604F150000991FFF76B
:103A400017FF0A9A1318012A8146236102DC2268B3
:103A5000D20701D5013323619DF82330002B9CD080
:103A60002D2384F8433098E7069A472ABED1002BCD
:103A7000BCD10123B9E7BBF1660F18D100296368F7
:103A80000BDD216113B92268D00702D501330B4445
:103A90002361A1654FF00009DEE713B92268D20760
:103AA00001D50233F4E70123F2E74FF0670B0A9BDD
:103AB000994205DB23682161D807EAD54B1CE7E76B
:103AC0000029D4BFC1F1020201221344E0E72368B8
:103AD0005A0507D42369424631462846B847013083
:103AE0002CD164E7BBF1650F40F2E080D4E912010C
:103AF00000220023FCF7F8FF002834D0374A0123C6
:103B000031462846B84701303FF451AFDDE909237B
:103B10009A4202DB2368D80710D518EE103A5246B5
:103B200031462846B84701303FF441AF4FF0000816
:103B300004F11A090A9B013B434509DC23689B07F2
:103B400000F10581E0680B9B9842B8BF184630E74A
:103B500001234A4631462846B84701303FF427AF93
:103B600008F10108E6E7099B002B39DC1B4A012319
:103B700031462846B84701303FF419AFDDE9092343
:103B8000134302D12368D907D8D518EE103A52460C
:103B900031462846B84701303FF409AF4FF00009DD
:103BA00004F11A0A099B5B424B4501DC0A9B92E730
:103BB0000123524631462846B84701303FF4F7AE5C
:103BC00009F10109EEE700BFFFFFEF7F3084000835
:103BD000348400083C8400083884000840840008CD
:103BE0000A9AA36D9A42A8BF1A46002A914637DC6A
:103BF0004FF0000B29EAE97904F11A02A36D05934D
:103C0000A3EB09035B4533DCDDE909239A423BDB87
:103C10002368DA0738D40A9B059A09999A1AA3EB04
:103C200001099145A8BF9146B9F1000F35DC4FF06D
:103C3000000829EAE97904F11A0ADDE909239B1A47
:103C4000A3EB090343457FF779AF01235246314681
:103C50002846B84701303FF4AAAE08F10108ECE766
:103C60001346314642462846B8470130C0D19EE649
:103C70000123314628460592B84701303FF497AEFC
:103C8000059A0BF1010BB9E718EE103A524631468E
:103C90002846B8470130BED189E6059A4B464244D2
:103CA00031462846B8470130C1D180E60A9A012A38
:103CB00001DCDB0738D50123424631462846B847A8
:103CC00001303FF474AE18EE103A524631462846A1
:103CD000B84701303FF46BAED4E912010022002353
:103CE000FCF702FFD8B90A9B08F10102013B3146FB
:103CF0002846B84701300ED159E6012352463146D5
:103D00002846B84701303FF452AE08F101080A9B3B
:103D1000013B4345F1DC4B4604F15002DCE64FF039
:103D2000000804F11A0AF2E701234246DFE7012303
:103D30004A4631462846B84701303FF438AE08F1CC
:103D40000108E3680B995B1A4345F0DCFAE64FF093
:103D5000000804F11909F4E72DE9F04716469946E1
:103D60008A680B69DDF820809342B8BF1346336040
:103D700091F8432007460C460AB1013333602368AB
:103D8000990642BF336802333360256815F0060593
:103D900006D104F1190AE36832689B1AAB4226DCAB
:103DA00094F84320131E226818BF012392062BD4D7
:103DB00004F1430249463846C04701301ED023680B
:103DC000E568326803F00603042B08BFAD1AA36848
:103DD00022690CBF25EAE57500259342C4BF9B1AF2
:103DE000ED1800261A34B5421AD1002008E001234C
:103DF000524649463846C047013003D14FF0FF30A4
:103E0000BDE8F0870135C6E7E1185A1C302081F87B
:103E10004300224494F8451082F843100233C7E768
:103E20000123224649463846C0470130E6D00136D4
:103E3000D9E700002DE9FF470F7E0C9D782F9146B2
:103E400080460C469A4601F1430207D8622F0AD8F1
:103E5000002F00F0D880582F00F0A38004F1420515
:103E600084F842703AE0A7F16303152BF6D801A15C
:103E700051F823F0CD3E0008E13E00085D3E000809
:103E80005D3E00085D3E00085D3E0008E13E000822
:103E90005D3E00085D3E00085D3E00085D3E000896
:103EA000ED3F0008113F0008CF3F00085D3E0008CD
:103EB0005D3E00080F4000085D3E0008113F00080D
:103EC0005D3E00085D3E0008D73F00082B681A1DC4
:103ED0001B682A6004F1420584F842300123A3E004
:103EE00020682968060601F104030AD50E682B60D4
:103EF000002E03DA2D23764284F843305E480A23ED
:103F000019E00E682B6010F0400F18BF36B2EFE7D3
:103F10002B682068191D2960010601D51E6802E082
:103F20004606FBD51E8854486F2F0CBF08230A2372
:103F3000002184F843106568A560002DA2BF2168A8
:103F400021F0040121600EB9002D4DD01546B6FBBD
:103F5000F3F103FB1167C75D05F8017D3746BB42EE
:103F60000E46F4D9082B0BD12368DE0708D5236948
:103F700061689942DEBF302305F8013C05F1FF3549
:103F8000521B2261CDF800A04B4603AA21464046B1
:103F9000FFF7E2FE01304CD14FF0FF3004B0BDE836
:103FA000F087354881F845702968236851F8046B1B
:103FB00029601D0614D5DF0744BF43F020032360AA
:103FC0001EB9236823F0200323601023B0E7236881
:103FD00043F0200323607823284884F84530E3E742
:103FE000590648BFB6B2E6E71546BBE72B68266818
:103FF0006169181D286035061B6801D5196002E04B
:104000007006FBD51980002323611546BAE72B689B
:104010001A1D2A601D68626800212846FCF7F0F826
:1040200008B1401B606063682361002384F843305B
:10403000A8E723692A4649464046D0470130ABD01D
:1040400023689B0713D4E068039B9842B8BF1846C7
:10405000A4E70123324649464046D04701309BD071
:104060000135E36803995B1AAB42F2DCEBE700250C
:1040700004F11906F5E700BF4284000853840008E4
:104080002DE9F74F03690C69A3420746C0F281800E
:10409000013C01F1140800F1140505EB84030193C0
:1040A00058F8243055F8242001339A424FEA840B03
:1040B00008EB8409B2FBF3F631D34FF0000E404613
:1040C000AC46F24650F8042B93B206FB03E34FEAEA
:1040D000134E9BB2AAEB0303DCF800A0120C13FAF8
:1040E0008AF306FB02E20093009B4FEA124E92B263
:1040F000C2EB1A4202EB2342BDF80030814543EA8D
:1041000002434CF8043B4FEA224ADBD255F80B300D
:104110002BB9019B043B9D421A462ED33C61384685
:1041200001F0C4F8002824DB013628464FF0000CCB
:1041300058F8042BD0F800E093B2ACEB0303120C58
:1041400013FA8EF3C2EB1E4202EB23429BB243EA08
:104150000243C14540F8043B4FEA224CE8D255F8EF
:10416000242005EB840322B9043B9D421A460AD35E
:104170003C61304603B0BDE8F08F1268043B002A72
:10418000CCD1013CC7E71268043B002AF0D1013CC6
:10419000EBE70020EEE700002DE9F04F2DED048B5A
:1041A00057EC106B93B0456ADDF88080069110EEF5
:1041B00010AA044609920C93BB4675B9102000F072
:1041C000DDFD0246606220B9A74BEA21A74801F055
:1041D00075FAC0E901550560C560636A196851B197
:1041E0005A684A60012393408B60204600F01CFE11
:1041F000636A00221A603B1EAABF002323F0004B13
:10420000C8F800309A4BBCBF0122C8F8002033EA3E
:104210000B031BD10C9A42F20F731360CBF3130301
:10422000334300F09285219B63B9924B22E0924B7D
:1042300001930833219A1360019813B0BDEC048BED
:10424000BDE8F08F8B4B01930333F3E7002200238B
:1042500050465946FCF748FC4BEC19AB804658B128
:104260000C9A01231360219B002B00F06B8583487F
:104270001860431E0193DFE74BEC10AB10AA11A9A5
:10428000204601F0B9F8CBF30A5508EE100A002DCC
:1042900000F0848019EE903AC3F3130343F07F5784
:1042A000564647F44017A5F2FF35CDF83880744BD9
:1042B000002230463946FBF7F7FF65A3D3E9002318
:1042C000FCF7AAF964A3D3E90023FBF7EFFF064646
:1042D00028460F46FCF736F961A3D3E90023FCF723
:1042E0009BF902460B4630463946FBF7DFFF064690
:1042F0000F46FCF741FC002200900023304639466F
:10430000FCF7FCFB50B10098FCF71CF932463B4629
:10431000FCF7EAFB10B9009B013B0093009B162BB6
:104320005AD8009A574B03EBC203D3E9002351EC50
:10433000190BFCF7E3FB002850D0009B013B0093D6
:1043400000230B93109B5D1B6B1E059345BFC5F1AE
:1043500001030493002300234CBF05930493009BA7
:10436000002B3DDB059B009A0A9213440593002322
:104370000793069B092B00F28980052BC4BF043BE1
:104380000693069BA3F10203CCBF00250125032B56
:1043900000F28780DFE803F02D3A3859DDE9105349
:1043A0001D4405F23243202BC1BFC3F1400305F287
:1043B00012400BFA03F326FA00F0DABFC3F1200330
:1043C00006FA03F01843FCF7ADF801230646A1F105
:1043D000F877013D0E936AE70123B2E70B90B1E74E
:1043E000049B009A9B1A04935342079300230A9359
:1043F000BFE700230893099B002B55DC0123CDE97F
:1044000002331A4609920CE00123F3E70023099ACC
:104410000893009B134402930133012B0393B8BF0D
:104420000123606A00224260042202F114069E42C7
:1044300041683DD9204600F0B7FC019000283BD1EF
:10444000114B02464FF4D571C0E60123DFE700BFF0
:1044500061436F63A787D23FB3C8608B288AC63F8A
:10446000FB799F501344D33F71840008888400086F
:104470000000F07F6D840008648400084184000817
:104480000000F83FC08500080685000801250023CC
:10449000069308954FF0FF33CDE902330022122333
:1044A000B0E701230893F5E7099BCDE90233B8E7AC
:1044B000013141605200B8E7636A019A1A60039BB8
:1044C0000E2B00F29D80002D00F09A80009B002BA7
:1044D00032DDB74A03F00F0302EBC303D3E90089CF
:1044E000009BD8054FEA231716D5B24B51EC190B98
:1044F000D3E90823FCF7BAF907F00F0782468B4689
:104500000325AC4E57B942464B4650465946FCF738
:10451000ADF982468B4628E00225F2E7F90708D577
:1045200040464946D6E90023FCF776F80135804637
:1045300089467F100836E5E700F09B80009B9D4F81
:104540005E429B4B06F00F0203EBC203D3E900234C
:1045500051EC190BFCF760F8361182468B460023AC
:104560000225002E7AD1002BD3D10B9B002B00F01B
:104570008280914B002250465946FCF7BFFA002832
:1045800079D0039B002B76D0029B002B36DD009B5D
:10459000504659465F1E0022884BFCF73DF8029EAC
:1045A00082468B4601352846FBF7CCFF52465B46D8
:1045B000FCF732F8824B0022FBF778FED046D94652
:1045C0008246A1F1507B002E58D17E4B00224046FE
:1045D0004946FBF769FE52465B4680468946FCF732
:1045E000ABFA002840F0958252460BF1004340465A
:1045F0004946FCF783FA002840F089825BEC19AB4E
:10460000119B002BC0F24881009A0E2A00F34481CE
:10461000674B03EBC203D3E90089099B002B80F2AF
:10462000D580039B002B00F3D18040F06F82654B57
:10463000002240464946FBF7EFFF52465B46FCF737
:1046400071FA039E3746002840F04582019D3123D0
:1046500005F8013B009B0133009340E2F20705D5CA
:10466000D7E90023FBF7D8FF01350123761008377F
:1046700077E7022579E7009F039E94E701994C4B69
:1046800031440D91089903EBC60353E90223002935
:1046900043D04D490020FCF7E9F852465B46FBF752
:1046A00003FE019D82468B4649464046FCF764FA6C
:1046B0000646FBF747FF02460B4640464946FBF7D6
:1046C000F3FD303605F8016B52465B46804689465D
:1046D000FCF714FA002863D142464B4636490020C5
:1046E000FBF7E2FD52465B46FCF708FA002840F073
:1046F000B5800D9B9D4281D0304B002250465946DB
:10470000FBF78AFF2D4B82468B46404649460022E6
:10471000FBF782FF80468946C6E750465946FBF7BD
:104720007BFF0D9B019D0F9382468B464946404679
:10473000FCF722FA0646FBF705FF303602460B4629
:1047400040464946FBF7B0FD05F8016B0D9B9D42C5
:10475000804689464FF0000224D11B4B50465946F3
:10476000FBF7A4FD02460B4640464946FCF7E4F938
:10477000002873D152465B4613490020FBF794FD95
:1047800002460B4640464946FCF7B8F900283FF47C
:1047900035AF0F9D6B1E0F9315F8013C302BF8D0F1
:1047A000009749E0054BFBF737FF80468946BDE798
:1047B000C0850008988500080000F03F00002440F4
:1047C00000001C40000014400000E03F019D5646E0
:1047D0005F4642464B4630463946FCF747F8FCF701
:1047E000CBF98246FBF7AEFE42464B46FBF714FF81
:1047F00002460B46304639460AF13006FBF754FDB7
:1048000005F8016B019E039FAE1BB74202460B46A3
:1048100035D1FBF74BFD42464B4606460F46FCF7AB
:104820008BF9D0B942464B4630463946FCF75CF925
:1048300010B11AF0010F10D1204618EE101A00F036
:10484000F3FA002300982B700C9B01301860219B19
:10485000002B3FF4F1AC1D60EEE4009F2B461D469B
:1048600013F8012D392A06D1019A9A42F7D10199FC
:10487000302201370A701A7801321A7090E7A64B7D
:104880000022FBF7C9FE0022002306460F46FCF774
:104890002BF900289DD0CFE7089A002A00F0D78096
:1048A000069A012A00F3BA800E9A002A00F0B2801C
:1048B00003F23343079E049D049A1A440492059A16
:1048C00001211A442046059200F066FB0746002DA0
:1048D0000CDD059B002B09DDAB42049AA8BF2B46DB
:1048E000D21A0492059AED1AD31A0593079B1BB3AB
:1048F000089B002B00F0AF80002E13DD39463246B6
:10490000204600F009FC18EE102A01460746204612
:1049100000F058FB18EE101A8046204600F084FA8A
:1049200008EE108A079B9A1B06D018EE101A204634
:1049300000F0F2FB08EE100A0121204600F02CFBEB
:104940000A9B002B064640F388801A460146204603
:1049500000F0E2FB069B012B064640F381804FF0FE
:104960000008336906EB8303186900F0C5FAC0F14B
:104970002000059B184410F01F0000F09280C0F149
:104980002003042B40F38A80C0F11C00049B0344E5
:104990000493059B034405440593049B002B07DD0A
:1049A00018EE101A1A46204600F010FC08EE100A05
:1049B000059B002B05DD31461A46204600F006FC1B
:1049C00006460B9B002B6ED018EE100A314600F005
:1049D0006DFC002867DA009B013B18EE101A00936B
:1049E0000A220023204600F041FA089B08EE100A34
:1049F000002B00F0B181002339460A22204600F046
:104A000035FA029B002B074600F38E80069B022B93
:104A100051DC89E0109BC3F136034BE7039B5E1E1C
:104A2000079BB342BFBF079B0796F21A0A9BB6BF0C
:104A30009B189E1B0A93039BB8BF0026002BB7BF91
:104A4000DDE90323DDE903359D1A002334E7079EE2
:104A5000049D089F3BE7079A67E7069B012B18DC3C
:104A6000BAF1000F15D1CBF3130393B92BF0004328
:104A70001B0D1B0583B1049B01330493059B01337C
:104A800005934FF001080A9B002B7FF46AAF0120C9
:104A90006FE74FF00008F6E79846F4E73FF47DAF84
:104AA00018461C3072E7039B002B37DC069B022B59
:104AB00034DD039B0293029B6BB9314605222046ED
:104AC00000F0D4F90146064618EE100A00F0EEFB9D
:104AD00000283FF7BBAD099B019DDB4300934FF0DE
:104AE00000083146204600F09FF9002F3FF4A4AEA5
:104AF000B8F1000F05D0B84503D04146204600F07C
:104B000093F93946204600F08FF995E6002637469E
:104B1000E1E70097374699E500002440089B002B09
:104B200000F0CA80039B0293002D05DD39462A461A
:104B3000204600F04BFB0746B8F1000F5BD07968C8
:104B4000204600F031F9054628B9874B024640F26D
:104B5000EA21FFF73BBB3A690232920007F10C01F0
:104B60000C3000F013F901222946204600F02EFBFC
:104B7000019B03F10109DDE90123134405930AF0C8
:104B80000103B84604930746314618EE100AFFF7B2
:104B900077FA4146029000F1300A18EE100A00F050
:104BA00085FB3A4603903146204600F09BFBC268E5
:104BB00009F1FF3B054602BB014618EE100A00F062
:104BC00075FB024629462046079200F02DF9DDE9E3
:104BD000063243EA0201049B0B434D460FD1BAF162
:104BE000390F2AD0039B002B02DD029B03F1310A0F
:104BF0008BF800A075E73846BAE70122E2E7039B8D
:104C0000002B04DB06990B4304990B4322D1002AA5
:104C1000EEDD18EE101A0122204600F0D7FA3146D8
:104C200008EE100A00F042FB002803DCE0D11AF085
:104C3000010FDDD0BAF1390FD7D139238BF800300D
:104C40002B461D46013B15F8012C392A71D0013243
:104C50001A7046E7002A07DDBAF1390FEDD00AF1E4
:104C600001038BF800303CE7059B09F801AC99453E
:104C700047D018EE101A00230A22204600F0F6F85A
:104C8000B84508EE100A4FF000034FF00A02414603
:104C9000204606D100F0EAF88046074609F10109EE
:104CA00072E700F0E3F83946804600230A222046E6
:104CB00000F0DCF80746F1E7039B0293019D18EE34
:104CC000100A3146FFF7DCF900F1300A019B05F8C4
:104CD00001ABEA1A029B934209DD18EE101A002379
:104CE0000A22204600F0C2F808EE100AE7E7029B0D
:104CF000002BC8BF1D46019BD8BF01251D444FF0A6
:104D0000000818EE101A0122204600F05FFA314622
:104D100008EE100A00F0CAFA002891DC02D11AF05D
:104D2000010F8DD12B461D4613F8012D302AFAD0E4
:104D3000D7E6019A9A4284D1009B01330093312334
:104D40001370CEE6094BFFF795BA219B002B7FF439
:104D50006EAA074BFFF78EBA029B002BAEDC069BB8
:104D6000022B3FF7A8AEA9E706850008408400089B
:104D7000648400080048704760010020024B01462F
:104D8000186800F017BC00BF0C0000200A449142D4
:104D900000F1FF3300D1704710B511F8014B03F853
:104DA000014F9142F9D110BD70B5466A04460D46D7
:104DB00076B91020FFF7E2FF0246606220B9184B77
:104DC0001848662100F07AFCC0E901660660C660FA
:104DD000666AF36883B1636ADB6853F82500B8B983
:104DE000012101FA05F6721D9200204600F060FBD9
:104DF00060B1C0E901560EE021220421204600F0F6
:104E000057FB636AF060DB68002BE4D1002070BDC3
:104E1000026843F825200023C0E90333F7E700BF09
:104E2000718400081785000870B5466A05460C466F
:104E300076B91020FFF7A2FF0246686220B9094B3D
:104E400009488A2100F03AFCC0E901660660C660A4
:104E50003CB16B6A6268DB6853F82210216043F84A
:104E6000224070BD71840008178500082DE9F041CB
:104E70000D6907460C461E4601F1140C0020DCF8B3
:104E8000003099B202FB01611E0C0B0C02FB0633D1
:104E900089B2013001EB034185424CF8041B4FEA13
:104EA0001346ECDC0EB3A368AB4219DC61683846EC
:104EB0000131FFF779FF804628B902460C4B0D48B7
:104EC000B52100F0FBFB2269023204F10C019200D3
:104ED0000C30FFF75BFF21463846FFF7A5FF44463D
:104EE00004EB850301355E6125612046BDE8F08154
:104EF0000685000817850008030C1B04D3B90004BD
:104F0000102310F07F4F04BF0002083310F0704FE1
:104F100004BF0001043310F0404F04BF800002338F
:104F2000002805DB10F0804F03F1010308BF2023A8
:104F3000184670470023E4E7036813F007020146B0
:104F40000BD0DA0723D4980749BF5B089B080120E0
:104F50000B605CBF0B600220704798B2A8B91B0CB5
:104F60001020DAB20AB908301B0A1A0704BF1B095D
:104F700004309A0704BF9B080230DA0703D45B08A9
:104F800000F1010005D00B6070471046E9E70020F2
:104F9000704720207047000010B50C460121FFF734
:104FA00003FF024628B9054B05484FF4A07100F0F5
:104FB00085FB01234461036110BD00BF0685000825
:104FC000178500082DE9F04F91460A69D9F810308D
:104FD0009A42B8BF0B460C46BCBF4C46994627695F
:104FE000D9F810A0A368616807EB0A06B34285B040
:104FF000B8BF0131FFF7D8FE30B90246444B4548EF
:1050000040F25D1100F05AFB00F1140505EB860833
:105010002B460022434521D304F1140303EB8707F9
:1050200009F1140303EB8A0202923A1B153A22F0AB
:105030000302043204F115018F4238BF04220192A9
:10504000029A03939A420CD8002E03DD58F8043DCF
:10505000002B5AD0066105B0BDE8F08F43F8042B51
:10506000D8E7B3F800A0BAF1000F24D004F1140E71
:10507000A9464FF0000C5EF8042BD9F800101FFA77
:1050800082FB89B20AFB0B114FEA124BD9F80020C0
:1050900061444FEA124C0AFB0BC202EB114289B287
:1050A00041EA0241774549F8041B4FEA124CE2D825
:1050B000019A45F802C0039AB2F802900433B9F19C
:1050C000000F20D0296804F1140CAE464FF0000AFE
:1050D000BCF800B0BEF8022009FB0B22924489B252
:1050E00041EA0A414EF8041B5CF8042BBEF800109C
:1050F000120C09FB021101EB1A4167454FEA114AF4
:10510000E6D8019AA95004359AE7013E9CE700BF12
:1051100006850008178500082DE9F843154612F0AA
:10512000030206460F4607D0254C013A002354F8E7
:105130002220FFF79BFE0746AD103DD0746A7CB974
:105140001020FFF71BFE0246706228B91D4B1E4857
:105150004FF4D77100F0B2FAC0E901440460C460B2
:10516000D6F82480D8F808404CB940F27121304676
:10517000FFF712FF0023C8F80800044603604FF051
:105180000009EB070AD5394622463046FFF71AFFD9
:10519000394680463046FFF747FE47466D100BD034
:1051A000206838B9224621463046FFF70BFF2060C1
:1051B000C0F800900446E4E73846BDE8F88300BF35
:1051C0008886000871840008178500082DE9F047DB
:1051D0000C464968236903EB6218A36807469146A9
:1051E0004FEA621A08F10106B3420BDB3846FFF7BB
:1051F000DBFD054648B902462A4B2B4840F2D9113F
:1052000000F05CFA01315B00EEE7002300F11401CD
:1052100000F110021846534537DB20692AEAEA7A82
:1052200004F1140319F01F0901EB8A0103EB80005C
:105230002FD0C9F1200E8A464FF0000C1A6802FAEE
:1052400009F242EA0C024AF8042B53F8042B984264
:1052500022FA0EFCF2D8031B153B23F003030433A0
:1052600004F11502904238BF042341F803C0BCF199
:10527000000F01D008F10206013E38462E6121469A
:10528000FFF7D2FD2846BDE8F08742F8040F01334E
:10529000C1E7043953F8042B41F8042F9842F9D898
:1052A000EAE700BF068500081785000830B50269E7
:1052B0000C69121B0ED100F11403143103EB8400AE
:1052C00001EB840150F8045D51F8044DA54203D070
:1052D00005D30122104630BD8342F3D3FAE74FF0E5
:1052E000FF32F7E72DE9F84F0C46064611462046F7
:1052F0009046FFF7DBFF051E10D129463046FFF729
:1053000053FD30B93A4B024640F23221394800F0A1
:10531000D5F90123C0E90435BDE8F88FA4BF4346A1
:10532000A0463046D8F80410A6BF1C46002501252B
:10533000FFF73AFD20B92E4B02464FF41071E5E716
:10534000D8F810702669C56004F1140908F1140535
:1053500000F1140E05EB870C09EB860608F110022C
:10536000F246002159F8043B52F804BF1FFA83F8B3
:1053700011FA8BF11B0CA1EB0808C3EB1B4303EBE9
:1053800028431FFA88F819144E4548EA03434AF89F
:10539000043BE7D8331B153B23F0030304331534D8
:1053A000A64238BF04231D4473449E462E466645DC
:1053B0000ED30CF10302521B22F00302033DAC4555
:1053C00038BF00221A4452F8043D7BB10761A3E7BD
:1053D00056F8048B11FA88F2141404EB184492B2B4
:1053E00042EA04424EF8042B2114E0E7013FEAE7C9
:1053F00006850008178500082DE9F7438946012135
:1054000057EC106B9046FFF7CFFC044630B90246CC
:10541000254B264840F20A3100F050F9C7F30A55EF
:10542000C7F3130335BB002E019328D068460096BE
:10543000FFF782FD009900B3019AC0F1200302FA40
:1054400003F30B43C24063610192019BA361002BF4
:1054500014BF022201222261D5B1A5F233450544D1
:10546000C9F80050C0F13500C8F80000204603B06C
:10547000BDE8F08343F48013D5E76161E5E701A857
:10548000FFF75AFD019B6361012222612030E3E7AF
:1054900004EB8203A0F23240C9F800001869FFF75C
:1054A0002BFDC0EB4210DFE70685000817850008DA
:1054B00037B5A1FB02244CB91146019200F07AF8ED
:1054C000019A054630B9284603B030BD0C2202606F
:1054D0000025F8E72146FEF761F9F4E737B5002922
:1054E00044D051F8043C0190002BA1F10404B8BF52
:1054F000E41800F025F91E4A0198136833B9636077
:10550000146003B0BDE8304000F020B9A34208D9D0
:10551000256861198B4201BF19685B6849192160D0
:10552000EDE71A465B680BB1A342FAD9116855182A
:10553000A5420BD1246821445418A3421160E0D144
:105540001C685B68536021441160DAE702D90C23C0
:105550000360D6E7256861198B4204BF19685B6850
:10556000636004BF491921605460CAE703B030BDCD
:10557000E802002070B50E4E0C463168054611B9A0
:1055800000F08CF830602146284600F087F8431C74
:105590000AD0C41C24F00304A04207D0211A2846D4
:1055A00000F07CF8013001D14FF0FF34204670BD8F
:1055B000EC0200202DE9F041CD1C25F00305083553
:1055C0000C2D38BF0C25002D074601DBA94205D95B
:1055D0000C233B6000263046BDE8F0812E4E00F0E3
:1055E000AFF833681C4634BB29463846FFF7C2FF84
:1055F000431C04464DD134682646002E40D1236812
:105600003146384604EB030800F048F880453AD1AB
:10561000216803356D1A25F0030508350C2D38BFB8
:105620000C2529463846FFF7A5FF01302BD023680B
:105630002B4423600EE02268521B1ED40B2A16D97D
:105640006119A342256018BF5960636808BF3160C3
:1056500062514B60384604F10B0600F077F826F0F3
:105660000706231DF21AB6D09B1BA350B3E762684E
:10567000A3420CBF32605A60ECE723466468B2E78D
:1056800034467668B9E70C233B60384600F05EF894
:10569000A1E72560DEE700BFE802002038B5064D2F
:1056A0000023044608462B6000F0CEFD431C02D1C7
:1056B0002B6803B1236038BDF00200201FB51446EB
:1056C0001A46094B1B680546D8684CB1074B009138
:1056D000CDE9013406492B4600F00EF800F064FADB
:1056E000044B1C46F3E700BF0C0000209486000822
:1056F000A1860008CF8600080EB403B5014603ABAF
:10570000054853F8042B0068019300F04FF802B0ED
:105710005DF804EB03B070470C00002082B001B9C3
:1057200001A942B14BB113780B601278101E18BF5B
:10573000012002B070471046FBE76FF00100F8E768
:10574000014800F0F1BB00BFF4020020014800F066
:10575000ECBB00BFF40200209368013B002B10B4A7
:10576000936008DA9469A34201DB0A2903D15DF84A
:10577000044B00F04BB91368581C106019700846B0
:105780005DF8044B7047F8B506460F461446D51829
:10579000AC4201D1002007E014F8011B3A46304624
:1057A000FFF7DAFF431CF3D1F8BD00002DE9F04FFD
:1057B0000D469DB014469846064618B183690BB94C
:1057C00000F014FB894B9D421BD175686B6ED907A5
:1057D00005D4AB899A0502D4A86D00F0A5FBAB896E
:1057E0001B0701D52B69EBB92946304600F06EF94D
:1057F000C0B16B6EDC070ED54FF0FF301DB0BDE8B9
:10580000F08F7B4B9D4201D1B568DFE7794B9D421C
:1058100008BFF568DAE7AB899805EDD4A86D00F00C
:1058200084FBE9E70023099320238DF82930CDF884
:105830000C803023DFF8C0818DF82A304FF0010949
:1058400023469A4613F8012B0AB1252AF9D1BAEB5F
:10585000040B0BD05B46224629463046FFF793FFE8
:10586000013000F0AA80099A5A4409929AF800304F
:10587000002B00F0A28000234FF0FF32CDE905237A
:105880000AF1010A049307938DF853301A93544692
:10589000052214F8011B5848FAF7B2FC049AD8B94B
:1058A000D10644BF20238DF85330130744BF2B2368
:1058B0008DF853309AF800302A2B15D0079A5446A9
:1058C00000204FF00A0C214611F8013B303B092B18
:1058D0004ED9B0B1079214E0A0EB080309FA03F324
:1058E00013430493A246D2E7039B191D1B6803913F
:1058F000002BBBBF5B4242F0020207930793B8BF85
:10590000049223782E2B0CD163782A2B35D1039B5C
:105910001A1D1B680392002BB8BF4FF0FF330234EF
:105920000593DFF8E4A0217803225046FAF768FCDB
:1059300040B14023A0EB0A0003FA00F0049B0343AC
:105940000134049314F8011B2C488DF8281006220A
:10595000FAF756FC00283FD0294B1BBB039B0733AB
:1059600023F0070308330393099B3B44099367E73C
:105970000CFB02320C460120A5E7002301340593FD
:1059800019464FF00A0C204610F8012B303A092A2C
:1059900003D9002BC5D00591C3E70CFB01210446B8
:1059A0000123F0E703AB00932A46164B04A93046C7
:1059B000FDF79CFF0746781CD6D16B6ED90705D43E
:1059C000AB899A0502D4A86D00F0AFFAAB895B06EB
:1059D0003FF512AF099811E703AB00932A46094B34
:1059E00004A93046FEF726FAE4E700BF0C88000859
:1059F0002C880008EC870008DA860008E486000896
:105A0000ED38000887570008E0860008F8B50E4614
:105A10001446054618B183690BB900F0E7F9214B2C
:105A20009C422BD16C68A369A360A3891A072FD568
:105A300023696BB323692068C01A6369F6B2834295
:105A4000374604DC2146284600F03CF930BBA36809
:105A5000013BA36023685A1C22601E7063690130F9
:105A6000834204D0A389DB0706D50A2E04D1214640
:105A7000284600F027F988B93846F8BD0A4B9C4201
:105A800001D1AC68CFE7094B9C4208BFEC68CAE77C
:105A90002146284600F01AF80028CBD04FF0FF37F7
:105AA000EAE700BF0C8800082C880008EC87000893
:105AB00049B1FF2A85BF8A2303600A704FF0FF3087
:105AC00098BF01207047084670470000324B70B500
:105AD0001D6806460C4625B1AB6913B9284600F08F
